{
  "_format": "hh-sol-artifact-1",
  "contractName": "MyToken",
  "sourceName": "contracts/NFT_with_presale.sol",
  "abi": [
    {
      "inputs": [
        {
          "internalType": "string",
          "name": "_baseUri",
          "type": "string"
        },
        {
          "internalType": "string",
          "name": "name",
          "type": "string"
        },
        {
          "internalType": "string",
          "name": "symbol",
          "type": "string"
        },
        {
          "internalType": "uint256",
          "name": "_maxSupply",
          "type": "uint256"
        },
        {
          "internalType": "uint256",
          "name": "_start",
          "type": "uint256"
        },
        {
          "internalType": "uint256",
          "name": "_end",
          "type": "uint256"
        },
        {
          "internalType": "uint256",
          "name": "_presaleFee",
          "type": "uint256"
        },
        {
          "internalType": "uint256",
          "name": "_presaleMaxPerWallet",
          "type": "uint256"
        },
        {
          "internalType": "uint256",
          "name": "_presaleSoftCap",
          "type": "uint256"
        },
        {
          "internalType": "uint256",
          "name": "_presalePlatformCutPercentage",
          "type": "uint256"
        }
      ],
      "stateMutability": "payable",
      "type": "constructor"
    },
    {
      "anonymous": false,
      "inputs": [
        {
          "indexed": true,
          "internalType": "address",
          "name": "owner",
          "type": "address"
        },
        {
          "indexed": true,
          "internalType": "address",
          "name": "approved",
          "type": "address"
        },
        {
          "indexed": true,
          "internalType": "uint256",
          "name": "tokenId",
          "type": "uint256"
        }
      ],
      "name": "Approval",
      "type": "event"
    },
    {
      "anonymous": false,
      "inputs": [
        {
          "indexed": true,
          "internalType": "address",
          "name": "owner",
          "type": "address"
        },
        {
          "indexed": true,
          "internalType": "address",
          "name": "operator",
          "type": "address"
        },
        {
          "indexed": false,
          "internalType": "bool",
          "name": "approved",
          "type": "bool"
        }
      ],
      "name": "ApprovalForAll",
      "type": "event"
    },
    {
      "anonymous": false,
      "inputs": [
        {
          "indexed": true,
          "internalType": "address",
          "name": "previousOwner",
          "type": "address"
        },
        {
          "indexed": true,
          "internalType": "address",
          "name": "newOwner",
          "type": "address"
        }
      ],
      "name": "OwnershipTransferred",
      "type": "event"
    },
    {
      "anonymous": false,
      "inputs": [
        {
          "indexed": true,
          "internalType": "address",
          "name": "from",
          "type": "address"
        },
        {
          "indexed": true,
          "internalType": "address",
          "name": "to",
          "type": "address"
        },
        {
          "indexed": true,
          "internalType": "uint256",
          "name": "tokenId",
          "type": "uint256"
        }
      ],
      "name": "Transfer",
      "type": "event"
    },
    {
      "inputs": [
        {
          "internalType": "address",
          "name": "to",
          "type": "address"
        },
        {
          "internalType": "uint256",
          "name": "tokenId",
          "type": "uint256"
        }
      ],
      "name": "approve",
      "outputs": [],
      "stateMutability": "nonpayable",
      "type": "function"
    },
    {
      "inputs": [
        {
          "internalType": "address",
          "name": "owner",
          "type": "address"
        }
      ],
      "name": "balanceOf",
      "outputs": [
        {
          "internalType": "uint256",
          "name": "",
          "type": "uint256"
        }
      ],
      "stateMutability": "view",
      "type": "function"
    },
    {
      "inputs": [],
      "name": "baseUri",
      "outputs": [
        {
          "internalType": "string",
          "name": "",
          "type": "string"
        }
      ],
      "stateMutability": "view",
      "type": "function"
    },
    {
      "inputs": [],
      "name": "claim",
      "outputs": [],
      "stateMutability": "nonpayable",
      "type": "function"
    },
    {
      "inputs": [],
      "name": "contribute",
      "outputs": [],
      "stateMutability": "payable",
      "type": "function"
    },
    {
      "inputs": [],
      "name": "contribution",
      "outputs": [
        {
          "internalType": "uint256",
          "name": "",
          "type": "uint256"
        }
      ],
      "stateMutability": "view",
      "type": "function"
    },
    {
      "inputs": [],
      "name": "contributionCount",
      "outputs": [
        {
          "internalType": "uint256",
          "name": "",
          "type": "uint256"
        }
      ],
      "stateMutability": "view",
      "type": "function"
    },
    {
      "inputs": [
        {
          "internalType": "address",
          "name": "",
          "type": "address"
        }
      ],
      "name": "contributor",
      "outputs": [
        {
          "internalType": "uint256",
          "name": "",
          "type": "uint256"
        }
      ],
      "stateMutability": "view",
      "type": "function"
    },
    {
      "inputs": [
        {
          "internalType": "address",
          "name": "",
          "type": "address"
        }
      ],
      "name": "contributorValue",
      "outputs": [
        {
          "internalType": "uint256",
          "name": "",
          "type": "uint256"
        }
      ],
      "stateMutability": "view",
      "type": "function"
    },
    {
      "inputs": [],
      "name": "dump",
      "outputs": [],
      "stateMutability": "nonpayable",
      "type": "function"
    },
    {
      "inputs": [],
      "name": "dumpProfit",
      "outputs": [
        {
          "internalType": "uint256",
          "name": "",
          "type": "uint256"
        }
      ],
      "stateMutability": "view",
      "type": "function"
    },
    {
      "inputs": [],
      "name": "end",
      "outputs": [
        {
          "internalType": "uint256",
          "name": "",
          "type": "uint256"
        }
      ],
      "stateMutability": "view",
      "type": "function"
    },
    {
      "inputs": [
        {
          "internalType": "uint256",
          "name": "tokenId",
          "type": "uint256"
        }
      ],
      "name": "getApproved",
      "outputs": [
        {
          "internalType": "address",
          "name": "",
          "type": "address"
        }
      ],
      "stateMutability": "view",
      "type": "function"
    },
    {
      "inputs": [
        {
          "internalType": "address",
          "name": "owner",
          "type": "address"
        },
        {
          "internalType": "address",
          "name": "operator",
          "type": "address"
        }
      ],
      "name": "isApprovedForAll",
      "outputs": [
        {
          "internalType": "bool",
          "name": "",
          "type": "bool"
        }
      ],
      "stateMutability": "view",
      "type": "function"
    },
    {
      "inputs": [],
      "name": "maxPerWallet",
      "outputs": [
        {
          "internalType": "uint256",
          "name": "",
          "type": "uint256"
        }
      ],
      "stateMutability": "view",
      "type": "function"
    },
    {
      "inputs": [],
      "name": "maxSupply",
      "outputs": [
        {
          "internalType": "uint256",
          "name": "",
          "type": "uint256"
        }
      ],
      "stateMutability": "view",
      "type": "function"
    },
    {
      "inputs": [],
      "name": "minMintFee",
      "outputs": [
        {
          "internalType": "uint256",
          "name": "",
          "type": "uint256"
        }
      ],
      "stateMutability": "view",
      "type": "function"
    },
    {
      "inputs": [],
      "name": "name",
      "outputs": [
        {
          "internalType": "string",
          "name": "",
          "type": "string"
        }
      ],
      "stateMutability": "view",
      "type": "function"
    },
    {
      "inputs": [],
      "name": "owner",
      "outputs": [
        {
          "internalType": "address",
          "name": "",
          "type": "address"
        }
      ],
      "stateMutability": "view",
      "type": "function"
    },
    {
      "inputs": [
        {
          "internalType": "uint256",
          "name": "tokenId",
          "type": "uint256"
        }
      ],
      "name": "ownerOf",
      "outputs": [
        {
          "internalType": "address",
          "name": "",
          "type": "address"
        }
      ],
      "stateMutability": "view",
      "type": "function"
    },
    {
      "inputs": [],
      "name": "renounceOwnership",
      "outputs": [],
      "stateMutability": "nonpayable",
      "type": "function"
    },
    {
      "inputs": [
        {
          "internalType": "address",
          "name": "from",
          "type": "address"
        },
        {
          "internalType": "address",
          "name": "to",
          "type": "address"
        },
        {
          "internalType": "uint256",
          "name": "tokenId",
          "type": "uint256"
        }
      ],
      "name": "safeTransferFrom",
      "outputs": [],
      "stateMutability": "nonpayable",
      "type": "function"
    },
    {
      "inputs": [
        {
          "internalType": "address",
          "name": "from",
          "type": "address"
        },
        {
          "internalType": "address",
          "name": "to",
          "type": "address"
        },
        {
          "internalType": "uint256",
          "name": "tokenId",
          "type": "uint256"
        },
        {
          "internalType": "bytes",
          "name": "data",
          "type": "bytes"
        }
      ],
      "name": "safeTransferFrom",
      "outputs": [],
      "stateMutability": "nonpayable",
      "type": "function"
    },
    {
      "inputs": [
        {
          "internalType": "address",
          "name": "operator",
          "type": "address"
        },
        {
          "internalType": "bool",
          "name": "approved",
          "type": "bool"
        }
      ],
      "name": "setApprovalForAll",
      "outputs": [],
      "stateMutability": "nonpayable",
      "type": "function"
    },
    {
      "inputs": [],
      "name": "softcap",
      "outputs": [
        {
          "internalType": "uint256",
          "name": "",
          "type": "uint256"
        }
      ],
      "stateMutability": "view",
      "type": "function"
    },
    {
      "inputs": [],
      "name": "start",
      "outputs": [
        {
          "internalType": "uint256",
          "name": "",
          "type": "uint256"
        }
      ],
      "stateMutability": "view",
      "type": "function"
    },
    {
      "inputs": [
        {
          "internalType": "bytes4",
          "name": "interfaceId",
          "type": "bytes4"
        }
      ],
      "name": "supportsInterface",
      "outputs": [
        {
          "internalType": "bool",
          "name": "",
          "type": "bool"
        }
      ],
      "stateMutability": "view",
      "type": "function"
    },
    {
      "inputs": [],
      "name": "symbol",
      "outputs": [
        {
          "internalType": "string",
          "name": "",
          "type": "string"
        }
      ],
      "stateMutability": "view",
      "type": "function"
    },
    {
      "inputs": [
        {
          "internalType": "uint256",
          "name": "index",
          "type": "uint256"
        }
      ],
      "name": "tokenByIndex",
      "outputs": [
        {
          "internalType": "uint256",
          "name": "",
          "type": "uint256"
        }
      ],
      "stateMutability": "view",
      "type": "function"
    },
    {
      "inputs": [
        {
          "internalType": "address",
          "name": "owner",
          "type": "address"
        },
        {
          "internalType": "uint256",
          "name": "index",
          "type": "uint256"
        }
      ],
      "name": "tokenOfOwnerByIndex",
      "outputs": [
        {
          "internalType": "uint256",
          "name": "",
          "type": "uint256"
        }
      ],
      "stateMutability": "view",
      "type": "function"
    },
    {
      "inputs": [
        {
          "internalType": "uint256",
          "name": "tokenId",
          "type": "uint256"
        }
      ],
      "name": "tokenURI",
      "outputs": [
        {
          "internalType": "string",
          "name": "",
          "type": "string"
        }
      ],
      "stateMutability": "view",
      "type": "function"
    },
    {
      "inputs": [],
      "name": "totalSupply",
      "outputs": [
        {
          "internalType": "uint256",
          "name": "",
          "type": "uint256"
        }
      ],
      "stateMutability": "view",
      "type": "function"
    },
    {
      "inputs": [
        {
          "internalType": "address",
          "name": "from",
          "type": "address"
        },
        {
          "internalType": "address",
          "name": "to",
          "type": "address"
        },
        {
          "internalType": "uint256",
          "name": "tokenId",
          "type": "uint256"
        }
      ],
      "name": "transferFrom",
      "outputs": [],
      "stateMutability": "nonpayable",
      "type": "function"
    },
    {
      "inputs": [
        {
          "internalType": "address",
          "name": "newOwner",
          "type": "address"
        }
      ],
      "name": "transferOwnership",
      "outputs": [],
      "stateMutability": "nonpayable",
      "type": "function"
    },
    {
      "inputs": [],
      "name": "uniqeContributors",
      "outputs": [
        {
          "internalType": "uint256",
          "name": "",
          "type": "uint256"
        }
      ],
      "stateMutability": "view",
      "type": "function"
    },
    {
      "inputs": [],
      "name": "withdraw",
      "outputs": [],
      "stateMutability": "nonpayable",
      "type": "function"
    }
  ],
  "bytecode": "0x6080604052600160145573412bb6e1febbfcf428dd0f6a739c30c79128a244601960006101000a81548173ffffffffffffffffffffffffffffffffffffffff021916908373ffffffffffffffffffffffffffffffffffffffff16021790555060405162004d6d38038062004d6d833981810160405281019062000083919062000441565b88888160009081620000969190620007d5565b508060019081620000a89190620007d5565b505050620000cb620000bf620001a560201b60201c565b620001ad60201b60201c565b86600c8190555085600f819055508460108190555083600e819055508260138190555081600d81905550600181146200010657600062000109565b60015b60ff166016819055508060158190555089600b90816200012a9190620007d5565b50601960009054906101000a900473ffffffffffffffffffffffffffffffffffffffff1673ffffffffffffffffffffffffffffffffffffffff166108fc349081150290604051600060405180830381858888f1935050505015801562000194573d6000803e3d6000fd5b5050505050505050505050620008bc565b600033905090565b6000600a60009054906101000a900473ffffffffffffffffffffffffffffffffffffffff16905081600a60006101000a81548173ffffffffffffffffffffffffffffffffffffffff021916908373ffffffffffffffffffffffffffffffffffffffff1602179055508173ffffffffffffffffffffffffffffffffffffffff168173ffffffffffffffffffffffffffffffffffffffff167f8be0079c531659141344cd1fd0a4f28419497f9722a3daafe3b4186f6b6457e060405160405180910390a35050565b6000604051905090565b600080fd5b600080fd5b600080fd5b600080fd5b6000601f19601f8301169050919050565b7f4e487b7100000000000000000000000000000000000000000000000000000000600052604160045260246000fd5b620002dc8262000291565b810181811067ffffffffffffffff82111715620002fe57620002fd620002a2565b5b80604052505050565b60006200031362000273565b9050620003218282620002d1565b919050565b600067ffffffffffffffff821115620003445762000343620002a2565b5b6200034f8262000291565b9050602081019050919050565b60005b838110156200037c5780820151818401526020810190506200035f565b60008484015250505050565b60006200039f620003998462000326565b62000307565b905082815260208101848484011115620003be57620003bd6200028c565b5b620003cb8482856200035c565b509392505050565b600082601f830112620003eb57620003ea62000287565b5b8151620003fd84826020860162000388565b91505092915050565b6000819050919050565b6200041b8162000406565b81146200042757600080fd5b50565b6000815190506200043b8162000410565b92915050565b6000806000806000806000806000806101408b8d0312156200046857620004676200027d565b5b60008b015167ffffffffffffffff81111562000489576200048862000282565b5b620004978d828e01620003d3565b9a505060208b015167ffffffffffffffff811115620004bb57620004ba62000282565b5b620004c98d828e01620003d3565b99505060408b015167ffffffffffffffff811115620004ed57620004ec62000282565b5b620004fb8d828e01620003d3565b98505060606200050e8d828e016200042a565b9750506080620005218d828e016200042a565b96505060a0620005348d828e016200042a565b95505060c0620005478d828e016200042a565b94505060e06200055a8d828e016200042a565b9350506101006200056e8d828e016200042a565b925050610120620005828d828e016200042a565b9150509295989b9194979a5092959850565b600081519050919050565b7f4e487b7100000000000000000000000000000000000000000000000000000000600052602260045260246000fd5b60006002820490506001821680620005e757607f821691505b602082108103620005fd57620005fc6200059f565b5b50919050565b60008190508160005260206000209050919050565b60006020601f8301049050919050565b600082821b905092915050565b600060088302620006677fffffffffffffffffffffffffffffffffffffffffffffffffffffffffffffffff8262000628565b62000673868362000628565b95508019841693508086168417925050509392505050565b6000819050919050565b6000620006b6620006b0620006aa8462000406565b6200068b565b62000406565b9050919050565b6000819050919050565b620006d28362000695565b620006ea620006e182620006bd565b84845462000635565b825550505050565b600090565b62000701620006f2565b6200070e818484620006c7565b505050565b5b8181101562000736576200072a600082620006f7565b60018101905062000714565b5050565b601f82111562000785576200074f8162000603565b6200075a8462000618565b810160208510156200076a578190505b62000782620007798562000618565b83018262000713565b50505b505050565b600082821c905092915050565b6000620007aa600019846008026200078a565b1980831691505092915050565b6000620007c5838362000797565b9150826002028217905092915050565b620007e08262000594565b67ffffffffffffffff811115620007fc57620007fb620002a2565b5b620008088254620005ce565b620008158282856200073a565b600060209050601f8311600181146200084d576000841562000838578287015190505b620008448582620007b7565b865550620008b4565b601f1984166200085d8662000603565b60005b82811015620008875784890151825560018201915060208501945060208101905062000860565b86831015620008a75784890151620008a3601f89168262000797565b8355505b6001600288020188555050505b505050505050565b6144a180620008cc6000396000f3fe60806040526004361061020f5760003560e01c8063639fae8b11610118578063c87b56dd116100a0578063e43305451161006f578063e433054514610784578063e985e9c51461079b578063efbe1c1c146107d8578063f2fde38b14610803578063f89be5931461082c5761020f565b8063c87b56dd146106d5578063ceb3560514610712578063d5abeb011461074f578063d7bb99ba1461077a5761020f565b806395d89b41116100e757806395d89b41146106025780639abc83201461062d578063a22cb46514610658578063b88d4fde14610681578063be9a6555146106aa5761020f565b8063639fae8b1461055857806370a0823114610583578063715018a6146105c05780638da5cb5b146105d75761020f565b806342842e0e1161019b57806350520b1f1161016a57806350520b1f1461046f578063539580b81461049a578063542afda3146104c55780635b18056b146104f05780636352211e1461051b5761020f565b806342842e0e146103c7578063453c2310146103f05780634e71d92d1461041b5780634f6ccce7146104325761020f565b806318160ddd116101e257806318160ddd146102e257806323b872dd1461030d5780632f745c591461033657806337e9ba19146103735780633ccfd60b146103b05761020f565b806301ffc9a71461021457806306fdde0314610251578063081812fc1461027c578063095ea7b3146102b9575b600080fd5b34801561022057600080fd5b5061023b60048036038101906102369190612feb565b610857565b6040516102489190613033565b60405180910390f35b34801561025d57600080fd5b50610266610869565b60405161027391906130de565b60405180910390f35b34801561028857600080fd5b506102a3600480360381019061029e9190613136565b6108fb565b6040516102b091906131a4565b60405180910390f35b3480156102c557600080fd5b506102e060048036038101906102db91906131eb565b610941565b005b3480156102ee57600080fd5b506102f7610a58565b604051610304919061323a565b60405180910390f35b34801561031957600080fd5b50610334600480360381019061032f9190613255565b610a65565b005b34801561034257600080fd5b5061035d600480360381019061035891906131eb565b610ac5565b60405161036a919061323a565b60405180910390f35b34801561037f57600080fd5b5061039a600480360381019061039591906132a8565b610b6a565b6040516103a7919061323a565b60405180910390f35b3480156103bc57600080fd5b506103c5610b82565b005b3480156103d357600080fd5b506103ee60048036038101906103e99190613255565b610dbc565b005b3480156103fc57600080fd5b50610405610ddc565b604051610412919061323a565b60405180910390f35b34801561042757600080fd5b50610430610de2565b005b34801561043e57600080fd5b5061045960048036038101906104549190613136565b611032565b604051610466919061323a565b60405180910390f35b34801561047b57600080fd5b506104846110a3565b604051610491919061323a565b60405180910390f35b3480156104a657600080fd5b506104af6110a9565b6040516104bc919061323a565b60405180910390f35b3480156104d157600080fd5b506104da6110af565b6040516104e7919061323a565b60405180910390f35b3480156104fc57600080fd5b506105056110b5565b604051610512919061323a565b60405180910390f35b34801561052757600080fd5b50610542600480360381019061053d9190613136565b6110bb565b60405161054f91906131a4565b60405180910390f35b34801561056457600080fd5b5061056d61116c565b60405161057a919061323a565b60405180910390f35b34801561058f57600080fd5b506105aa60048036038101906105a591906132a8565b611172565b6040516105b7919061323a565b60405180910390f35b3480156105cc57600080fd5b506105d5611229565b005b3480156105e357600080fd5b506105ec61123d565b6040516105f991906131a4565b60405180910390f35b34801561060e57600080fd5b50610617611267565b60405161062491906130de565b60405180910390f35b34801561063957600080fd5b506106426112f9565b60405161064f91906130de565b60405180910390f35b34801561066457600080fd5b5061067f600480360381019061067a9190613301565b611387565b005b34801561068d57600080fd5b506106a860048036038101906106a39190613476565b61139d565b005b3480156106b657600080fd5b506106bf6113ff565b6040516106cc919061323a565b60405180910390f35b3480156106e157600080fd5b506106fc60048036038101906106f79190613136565b611405565b60405161070991906130de565b60405180910390f35b34801561071e57600080fd5b50610739600480360381019061073491906132a8565b61146d565b604051610746919061323a565b60405180910390f35b34801561075b57600080fd5b50610764611485565b604051610771919061323a565b60405180910390f35b61078261148b565b005b34801561079057600080fd5b506107996116f3565b005b3480156107a757600080fd5b506107c260048036038101906107bd91906134f9565b611a78565b6040516107cf9190613033565b60405180910390f35b3480156107e457600080fd5b506107ed611b0c565b6040516107fa919061323a565b60405180910390f35b34801561080f57600080fd5b5061082a600480360381019061082591906132a8565b611b12565b005b34801561083857600080fd5b50610841611b95565b60405161084e919061323a565b60405180910390f35b600061086282611b9b565b9050919050565b60606000805461087890613568565b80601f01602080910402602001604051908101604052809291908181526020018280546108a490613568565b80156108f15780601f106108c6576101008083540402835291602001916108f1565b820191906000526020600020905b8154815290600101906020018083116108d457829003601f168201915b5050505050905090565b600061090682611c15565b6004600083815260200190815260200160002060009054906101000a900473ffffffffffffffffffffffffffffffffffffffff169050919050565b600061094c826110bb565b90508073ffffffffffffffffffffffffffffffffffffffff168373ffffffffffffffffffffffffffffffffffffffff16036109bc576040517f08c379a00000000000000000000000000000000000000000000000000000000081526004016109b39061360b565b60405180910390fd5b8073ffffffffffffffffffffffffffffffffffffffff166109db611c60565b73ffffffffffffffffffffffffffffffffffffffff161480610a0a5750610a0981610a04611c60565b611a78565b5b610a49576040517f08c379a0000000000000000000000000000000000000000000000000000000008152600401610a409061369d565b60405180910390fd5b610a538383611c68565b505050565b6000600880549050905090565b610a76610a70611c60565b82611d21565b610ab5576040517f08c379a0000000000000000000000000000000000000000000000000000000008152600401610aac9061372f565b60405180910390fd5b610ac0838383611db6565b505050565b6000610ad083611172565b8210610b11576040517f08c379a0000000000000000000000000000000000000000000000000000000008152600401610b08906137c1565b60405180910390fd5b600660008473ffffffffffffffffffffffffffffffffffffffff1673ffffffffffffffffffffffffffffffffffffffff168152602001908152602001600020600083815260200190815260200160002054905092915050565b601b6020528060005260406000206000915090505481565b610b8a61201c565b4260105410610bce576040517f08c379a0000000000000000000000000000000000000000000000000000000008152600401610bc59061382d565b60405180910390fd5b60004711610c11576040517f08c379a0000000000000000000000000000000000000000000000000000000008152600401610c0890613899565b60405180910390fd5b600d5460125410610d655760006012546064601554610c309190613917565b610c3a9190613948565b905060008147610c4a919061398a565b90506000601281905550600060158190555060006016541115610cae57610c95601960009054906101000a900473ffffffffffffffffffffffffffffffffffffffff1660145461209a565b60146000815480929190610ca8906139be565b91905055505b3373ffffffffffffffffffffffffffffffffffffffff166108fc829081150290604051600060405180830381858888f19350505050158015610cf4573d6000803e3d6000fd5b50601960009054906101000a900473ffffffffffffffffffffffffffffffffffffffff1673ffffffffffffffffffffffffffffffffffffffff166108fc839081150290604051600060405180830381858888f19350505050158015610d5d573d6000803e3d6000fd5b505050610dba565b3373ffffffffffffffffffffffffffffffffffffffff166108fc60125447610d8d919061398a565b9081150290604051600060405180830381858888f19350505050158015610db8573d6000803e3d6000fd5b505b565b610dd78383836040518060200160405280600081525061139d565b505050565b60135481565b4260105410610e26576040517f08c379a0000000000000000000000000000000000000000000000000000000008152600401610e1d9061382d565b60405180910390fd5b6000601a60003373ffffffffffffffffffffffffffffffffffffffff1673ffffffffffffffffffffffffffffffffffffffff1681526020019081526020016000205411610ea8576040517f08c379a0000000000000000000000000000000000000000000000000000000008152600401610e9f90613a52565b60405180910390fd5b600d5460185410610f1f5760005b601a60003373ffffffffffffffffffffffffffffffffffffffff1673ffffffffffffffffffffffffffffffffffffffff16815260200190815260200160002054811015610f1957610f06336120b8565b8080610f11906139be565b915050610eb6565b50611030565b3373ffffffffffffffffffffffffffffffffffffffff166108fc601b60003373ffffffffffffffffffffffffffffffffffffffff1673ffffffffffffffffffffffffffffffffffffffff168152602001908152602001600020549081150290604051600060405180830381858888f19350505050158015610fa4573d6000803e3d6000fd5b506000601a60003373ffffffffffffffffffffffffffffffffffffffff1673ffffffffffffffffffffffffffffffffffffffff168152602001908152602001600020819055506000601b60003373ffffffffffffffffffffffffffffffffffffffff1673ffffffffffffffffffffffffffffffffffffffff168152602001908152602001600020819055505b565b600061103c610a58565b821061107d576040517f08c379a000000000000000000000000000000000000000000000000000000000815260040161107490613ae4565b60405180910390fd5b6008828154811061109157611090613b04565b5b90600052602060002001549050919050565b60125481565b60175481565b600e5481565b60185481565b6000806002600084815260200190815260200160002060009054906101000a900473ffffffffffffffffffffffffffffffffffffffff169050600073ffffffffffffffffffffffffffffffffffffffff168173ffffffffffffffffffffffffffffffffffffffff1603611163576040517f08c379a000000000000000000000000000000000000000000000000000000000815260040161115a90613b7f565b60405180910390fd5b80915050919050565b60115481565b60008073ffffffffffffffffffffffffffffffffffffffff168273ffffffffffffffffffffffffffffffffffffffff16036111e2576040517f08c379a00000000000000000000000000000000000000000000000000000000081526004016111d990613c11565b60405180910390fd5b600360008373ffffffffffffffffffffffffffffffffffffffff1673ffffffffffffffffffffffffffffffffffffffff168152602001908152602001600020549050919050565b61123161201c565b61123b6000612137565b565b6000600a60009054906101000a900473ffffffffffffffffffffffffffffffffffffffff16905090565b60606001805461127690613568565b80601f01602080910402602001604051908101604052809291908181526020018280546112a290613568565b80156112ef5780601f106112c4576101008083540402835291602001916112ef565b820191906000526020600020905b8154815290600101906020018083116112d257829003601f168201915b5050505050905090565b600b805461130690613568565b80601f016020809104026020016040519081016040528092919081815260200182805461133290613568565b801561137f5780601f106113545761010080835404028352916020019161137f565b820191906000526020600020905b81548152906001019060200180831161136257829003601f168201915b505050505081565b611399611392611c60565b83836121fd565b5050565b6113ae6113a8611c60565b83611d21565b6113ed576040517f08c379a00000000000000000000000000000000000000000000000000000000081526004016113e49061372f565b60405180910390fd5b6113f984848484612369565b50505050565b600f5481565b606061141082611c15565b600061141a6123c5565b9050600081511161143a5760405180602001604052806000815250611465565b8061144484612457565b604051602001611455929190613c6d565b6040516020818303038152906040525b915050919050565b601a6020528060005260406000206000915090505481565b600c5481565b4260105411801561149d575042600f54105b6114dc576040517f08c379a00000000000000000000000000000000000000000000000000000000081526004016114d390613cdd565b60405180910390fd5b600e54341015611521576040517f08c379a000000000000000000000000000000000000000000000000000000000815260040161151890613d6f565b60405180910390fd5b601354601a60003373ffffffffffffffffffffffffffffffffffffffff1673ffffffffffffffffffffffffffffffffffffffff16815260200190815260200160002054106115a4576040517f08c379a000000000000000000000000000000000000000000000000000000000815260040161159b90613ddb565b60405180910390fd5b6000601a60003373ffffffffffffffffffffffffffffffffffffffff1673ffffffffffffffffffffffffffffffffffffffff16815260200190815260200160002054116115ff5760016011546115fa9190613dfb565b61160f565b600060115461160e9190613dfb565b5b60118190555034601260008282546116279190613dfb565b92505081905550601a60003373ffffffffffffffffffffffffffffffffffffffff1673ffffffffffffffffffffffffffffffffffffffff168152602001908152602001600020600081548092919061167e906139be565b919050555034601b60003373ffffffffffffffffffffffffffffffffffffffff1673ffffffffffffffffffffffffffffffffffffffff16815260200190815260200160002060008282546116d29190613dfb565b92505081905550601860008154809291906116ec906139be565b9190505550565b42601054118015611705575042600f54105b611744576040517f08c379a000000000000000000000000000000000000000000000000000000000815260040161173b90613cdd565b60405180910390fd5b6000601a60003373ffffffffffffffffffffffffffffffffffffffff1673ffffffffffffffffffffffffffffffffffffffff16815260200190815260200160002054116117c6576040517f08c379a00000000000000000000000000000000000000000000000000000000081526004016117bd90613e7b565b60405180910390fd5b601160008154809291906117d990613e9b565b919050555060006064601b60003373ffffffffffffffffffffffffffffffffffffffff1673ffffffffffffffffffffffffffffffffffffffff16815260200190815260200160002054600a61182e9190613948565b6118389190613917565b601b60003373ffffffffffffffffffffffffffffffffffffffff1673ffffffffffffffffffffffffffffffffffffffff16815260200190815260200160002054611882919061398a565b90506064601b60003373ffffffffffffffffffffffffffffffffffffffff1673ffffffffffffffffffffffffffffffffffffffff16815260200190815260200160002054600a6118d29190613948565b6118dc9190613917565b601760008282546118ed9190613dfb565b92505081905550601a60003373ffffffffffffffffffffffffffffffffffffffff1673ffffffffffffffffffffffffffffffffffffffff1681526020019081526020016000205460186000828254611945919061398a565b92505081905550601b60003373ffffffffffffffffffffffffffffffffffffffff1673ffffffffffffffffffffffffffffffffffffffff168152602001908152602001600020546012600082825461199d919061398a565b925050819055506000601a60003373ffffffffffffffffffffffffffffffffffffffff1673ffffffffffffffffffffffffffffffffffffffff168152602001908152602001600020819055506000601b60003373ffffffffffffffffffffffffffffffffffffffff1673ffffffffffffffffffffffffffffffffffffffff168152602001908152602001600020819055503373ffffffffffffffffffffffffffffffffffffffff166108fc829081150290604051600060405180830381858888f19350505050158015611a74573d6000803e3d6000fd5b5050565b6000600560008473ffffffffffffffffffffffffffffffffffffffff1673ffffffffffffffffffffffffffffffffffffffff16815260200190815260200160002060008373ffffffffffffffffffffffffffffffffffffffff1673ffffffffffffffffffffffffffffffffffffffff16815260200190815260200160002060009054906101000a900460ff16905092915050565b60105481565b611b1a61201c565b600073ffffffffffffffffffffffffffffffffffffffff168173ffffffffffffffffffffffffffffffffffffffff1603611b89576040517f08c379a0000000000000000000000000000000000000000000000000000000008152600401611b8090613f36565b60405180910390fd5b611b9281612137565b50565b600d5481565b60007f780e9d63000000000000000000000000000000000000000000000000000000007bffffffffffffffffffffffffffffffffffffffffffffffffffffffff1916827bffffffffffffffffffffffffffffffffffffffffffffffffffffffff19161480611c0e5750611c0d826125b7565b5b9050919050565b611c1e81612699565b611c5d576040517f08c379a0000000000000000000000000000000000000000000000000000000008152600401611c5490613b7f565b60405180910390fd5b50565b600033905090565b816004600083815260200190815260200160002060006101000a81548173ffffffffffffffffffffffffffffffffffffffff021916908373ffffffffffffffffffffffffffffffffffffffff160217905550808273ffffffffffffffffffffffffffffffffffffffff16611cdb836110bb565b73ffffffffffffffffffffffffffffffffffffffff167f8c5be1e5ebec7d5bd14f71427d1e84f3dd0314c0f7b2291e5b200ac8c7c3b92560405160405180910390a45050565b600080611d2d836110bb565b90508073ffffffffffffffffffffffffffffffffffffffff168473ffffffffffffffffffffffffffffffffffffffff161480611d6f5750611d6e8185611a78565b5b80611dad57508373ffffffffffffffffffffffffffffffffffffffff16611d95846108fb565b73ffffffffffffffffffffffffffffffffffffffff16145b91505092915050565b8273ffffffffffffffffffffffffffffffffffffffff16611dd6826110bb565b73ffffffffffffffffffffffffffffffffffffffff1614611e2c576040517f08c379a0000000000000000000000000000000000000000000000000000000008152600401611e2390613fc8565b60405180910390fd5b600073ffffffffffffffffffffffffffffffffffffffff168273ffffffffffffffffffffffffffffffffffffffff1603611e9b576040517f08c379a0000000000000000000000000000000000000000000000000000000008152600401611e929061405a565b60405180910390fd5b611ea6838383612705565b611eb1600082611c68565b6001600360008573ffffffffffffffffffffffffffffffffffffffff1673ffffffffffffffffffffffffffffffffffffffff1681526020019081526020016000206000828254611f01919061398a565b925050819055506001600360008473ffffffffffffffffffffffffffffffffffffffff1673ffffffffffffffffffffffffffffffffffffffff1681526020019081526020016000206000828254611f589190613dfb565b92505081905550816002600083815260200190815260200160002060006101000a81548173ffffffffffffffffffffffffffffffffffffffff021916908373ffffffffffffffffffffffffffffffffffffffff160217905550808273ffffffffffffffffffffffffffffffffffffffff168473ffffffffffffffffffffffffffffffffffffffff167fddf252ad1be2c89b69c2b068fc378daa952ba7f163c4a11628f55a4df523b3ef60405160405180910390a4612017838383612715565b505050565b612024611c60565b73ffffffffffffffffffffffffffffffffffffffff1661204261123d565b73ffffffffffffffffffffffffffffffffffffffff1614612098576040517f08c379a000000000000000000000000000000000000000000000000000000000815260040161208f906140c6565b60405180910390fd5b565b6120b482826040518060200160405280600081525061271a565b5050565b6016546120c3610a58565b6120cd9190613dfb565b600c5411612110576040517f08c379a000000000000000000000000000000000000000000000000000000000815260040161210790614132565b60405180910390fd5b61211c8160145461209a565b6014600081548092919061212f906139be565b919050555050565b6000600a60009054906101000a900473ffffffffffffffffffffffffffffffffffffffff16905081600a60006101000a81548173ffffffffffffffffffffffffffffffffffffffff021916908373ffffffffffffffffffffffffffffffffffffffff1602179055508173ffffffffffffffffffffffffffffffffffffffff168173ffffffffffffffffffffffffffffffffffffffff167f8be0079c531659141344cd1fd0a4f28419497f9722a3daafe3b4186f6b6457e060405160405180910390a35050565b8173ffffffffffffffffffffffffffffffffffffffff168373ffffffffffffffffffffffffffffffffffffffff160361226b576040517f08c379a00000000000000000000000000000000000000000000000000000000081526004016122629061419e565b60405180910390fd5b80600560008573ffffffffffffffffffffffffffffffffffffffff1673ffffffffffffffffffffffffffffffffffffffff16815260200190815260200160002060008473ffffffffffffffffffffffffffffffffffffffff1673ffffffffffffffffffffffffffffffffffffffff16815260200190815260200160002060006101000a81548160ff0219169083151502179055508173ffffffffffffffffffffffffffffffffffffffff168373ffffffffffffffffffffffffffffffffffffffff167f17307eab39ab6107e8899845ad3d59bd9653f200f220920489ca2b5937696c318360405161235c9190613033565b60405180910390a3505050565b612374848484611db6565b61238084848484612775565b6123bf576040517f08c379a00000000000000000000000000000000000000000000000000000000081526004016123b690614230565b60405180910390fd5b50505050565b6060600b80546123d490613568565b80601f016020809104026020016040519081016040528092919081815260200182805461240090613568565b801561244d5780601f106124225761010080835404028352916020019161244d565b820191906000526020600020905b81548152906001019060200180831161243057829003601f168201915b5050505050905090565b60606000820361249e576040518060400160405280600181526020017f300000000000000000000000000000000000000000000000000000000000000081525090506125b2565b600082905060005b600082146124d05780806124b9906139be565b915050600a826124c99190613917565b91506124a6565b60008167ffffffffffffffff8111156124ec576124eb61334b565b5b6040519080825280601f01601f19166020018201604052801561251e5781602001600182028036833780820191505090505b5090505b600085146125ab57600182612537919061398a565b9150600a856125469190614250565b60306125529190613dfb565b60f81b81838151811061256857612567613b04565b5b60200101907effffffffffffffffffffffffffffffffffffffffffffffffffffffffffffff1916908160001a905350600a856125a49190613917565b9450612522565b8093505050505b919050565b60007f80ac58cd000000000000000000000000000000000000000000000000000000007bffffffffffffffffffffffffffffffffffffffffffffffffffffffff1916827bffffffffffffffffffffffffffffffffffffffffffffffffffffffff1916148061268257507f5b5e139f000000000000000000000000000000000000000000000000000000007bffffffffffffffffffffffffffffffffffffffffffffffffffffffff1916827bffffffffffffffffffffffffffffffffffffffffffffffffffffffff1916145b806126925750612691826128fc565b5b9050919050565b60008073ffffffffffffffffffffffffffffffffffffffff166002600084815260200190815260200160002060009054906101000a900473ffffffffffffffffffffffffffffffffffffffff1673ffffffffffffffffffffffffffffffffffffffff1614159050919050565b612710838383612966565b505050565b505050565b6127248383612a78565b6127316000848484612775565b612770576040517f08c379a000000000000000000000000000000000000000000000000000000000815260040161276790614230565b60405180910390fd5b505050565b60006127968473ffffffffffffffffffffffffffffffffffffffff16612c51565b156128ef578373ffffffffffffffffffffffffffffffffffffffff1663150b7a026127bf611c60565b8786866040518563ffffffff1660e01b81526004016127e194939291906142d6565b6020604051808303816000875af192505050801561281d57506040513d601f19601f8201168201806040525081019061281a9190614337565b60015b61289f573d806000811461284d576040519150601f19603f3d011682016040523d82523d6000602084013e612852565b606091505b506000815103612897576040517f08c379a000000000000000000000000000000000000000000000000000000000815260040161288e90614230565b60405180910390fd5b805181602001fd5b63150b7a0260e01b7bffffffffffffffffffffffffffffffffffffffffffffffffffffffff1916817bffffffffffffffffffffffffffffffffffffffffffffffffffffffff1916149150506128f4565b600190505b949350505050565b60007f01ffc9a7000000000000000000000000000000000000000000000000000000007bffffffffffffffffffffffffffffffffffffffffffffffffffffffff1916827bffffffffffffffffffffffffffffffffffffffffffffffffffffffff1916149050919050565b612971838383612c74565b600073ffffffffffffffffffffffffffffffffffffffff168373ffffffffffffffffffffffffffffffffffffffff16036129b3576129ae81612c79565b6129f2565b8173ffffffffffffffffffffffffffffffffffffffff168373ffffffffffffffffffffffffffffffffffffffff16146129f1576129f08382612cc2565b5b5b600073ffffffffffffffffffffffffffffffffffffffff168273ffffffffffffffffffffffffffffffffffffffff1603612a3457612a2f81612e2f565b612a73565b8273ffffffffffffffffffffffffffffffffffffffff168273ffffffffffffffffffffffffffffffffffffffff1614612a7257612a718282612f00565b5b5b505050565b600073ffffffffffffffffffffffffffffffffffffffff168273ffffffffffffffffffffffffffffffffffffffff1603612ae7576040517f08c379a0000000000000000000000000000000000000000000000000000000008152600401612ade906143b0565b60405180910390fd5b612af081612699565b15612b30576040517f08c379a0000000000000000000000000000000000000000000000000000000008152600401612b279061441c565b60405180910390fd5b612b3c60008383612705565b6001600360008473ffffffffffffffffffffffffffffffffffffffff1673ffffffffffffffffffffffffffffffffffffffff1681526020019081526020016000206000828254612b8c9190613dfb565b92505081905550816002600083815260200190815260200160002060006101000a81548173ffffffffffffffffffffffffffffffffffffffff021916908373ffffffffffffffffffffffffffffffffffffffff160217905550808273ffffffffffffffffffffffffffffffffffffffff16600073ffffffffffffffffffffffffffffffffffffffff167fddf252ad1be2c89b69c2b068fc378daa952ba7f163c4a11628f55a4df523b3ef60405160405180910390a4612c4d60008383612715565b5050565b6000808273ffffffffffffffffffffffffffffffffffffffff163b119050919050565b505050565b6008805490506009600083815260200190815260200160002081905550600881908060018154018082558091505060019003906000526020600020016000909190919091505550565b60006001612ccf84611172565b612cd9919061398a565b9050600060076000848152602001908152602001600020549050818114612dbe576000600660008673ffffffffffffffffffffffffffffffffffffffff1673ffffffffffffffffffffffffffffffffffffffff168152602001908152602001600020600084815260200190815260200160002054905080600660008773ffffffffffffffffffffffffffffffffffffffff1673ffffffffffffffffffffffffffffffffffffffff168152602001908152602001600020600084815260200190815260200160002081905550816007600083815260200190815260200160002081905550505b6007600084815260200190815260200160002060009055600660008573ffffffffffffffffffffffffffffffffffffffff1673ffffffffffffffffffffffffffffffffffffffff16815260200190815260200160002060008381526020019081526020016000206000905550505050565b60006001600880549050612e43919061398a565b9050600060096000848152602001908152602001600020549050600060088381548110612e7357612e72613b04565b5b906000526020600020015490508060088381548110612e9557612e94613b04565b5b906000526020600020018190555081600960008381526020019081526020016000208190555060096000858152602001908152602001600020600090556008805480612ee457612ee361443c565b5b6001900381819060005260206000200160009055905550505050565b6000612f0b83611172565b905081600660008573ffffffffffffffffffffffffffffffffffffffff1673ffffffffffffffffffffffffffffffffffffffff168152602001908152602001600020600083815260200190815260200160002081905550806007600084815260200190815260200160002081905550505050565b6000604051905090565b600080fd5b600080fd5b60007fffffffff0000000000000000000000000000000000000000000000000000000082169050919050565b612fc881612f93565b8114612fd357600080fd5b50565b600081359050612fe581612fbf565b92915050565b60006020828403121561300157613000612f89565b5b600061300f84828501612fd6565b91505092915050565b60008115159050919050565b61302d81613018565b82525050565b60006020820190506130486000830184613024565b92915050565b600081519050919050565b600082825260208201905092915050565b60005b8381101561308857808201518184015260208101905061306d565b60008484015250505050565b6000601f19601f8301169050919050565b60006130b08261304e565b6130ba8185613059565b93506130ca81856020860161306a565b6130d381613094565b840191505092915050565b600060208201905081810360008301526130f881846130a5565b905092915050565b6000819050919050565b61311381613100565b811461311e57600080fd5b50565b6000813590506131308161310a565b92915050565b60006020828403121561314c5761314b612f89565b5b600061315a84828501613121565b91505092915050565b600073ffffffffffffffffffffffffffffffffffffffff82169050919050565b600061318e82613163565b9050919050565b61319e81613183565b82525050565b60006020820190506131b96000830184613195565b92915050565b6131c881613183565b81146131d357600080fd5b50565b6000813590506131e5816131bf565b92915050565b6000806040838503121561320257613201612f89565b5b6000613210858286016131d6565b925050602061322185828601613121565b9150509250929050565b61323481613100565b82525050565b600060208201905061324f600083018461322b565b92915050565b60008060006060848603121561326e5761326d612f89565b5b600061327c868287016131d6565b935050602061328d868287016131d6565b925050604061329e86828701613121565b9150509250925092565b6000602082840312156132be576132bd612f89565b5b60006132cc848285016131d6565b91505092915050565b6132de81613018565b81146132e957600080fd5b50565b6000813590506132fb816132d5565b92915050565b6000806040838503121561331857613317612f89565b5b6000613326858286016131d6565b9250506020613337858286016132ec565b9150509250929050565b600080fd5b600080fd5b7f4e487b7100000000000000000000000000000000000000000000000000000000600052604160045260246000fd5b61338382613094565b810181811067ffffffffffffffff821117156133a2576133a161334b565b5b80604052505050565b60006133b5612f7f565b90506133c1828261337a565b919050565b600067ffffffffffffffff8211156133e1576133e061334b565b5b6133ea82613094565b9050602081019050919050565b82818337600083830152505050565b6000613419613414846133c6565b6133ab565b90508281526020810184848401111561343557613434613346565b5b6134408482856133f7565b509392505050565b600082601f83011261345d5761345c613341565b5b813561346d848260208601613406565b91505092915050565b600080600080608085870312156134905761348f612f89565b5b600061349e878288016131d6565b94505060206134af878288016131d6565b93505060406134c087828801613121565b925050606085013567ffffffffffffffff8111156134e1576134e0612f8e565b5b6134ed87828801613448565b91505092959194509250565b600080604083850312156135105761350f612f89565b5b600061351e858286016131d6565b925050602061352f858286016131d6565b9150509250929050565b7f4e487b7100000000000000000000000000000000000000000000000000000000600052602260045260246000fd5b6000600282049050600182168061358057607f821691505b60208210810361359357613592613539565b5b50919050565b7f4552433732313a20617070726f76616c20746f2063757272656e74206f776e6560008201527f7200000000000000000000000000000000000000000000000000000000000000602082015250565b60006135f5602183613059565b915061360082613599565b604082019050919050565b60006020820190508181036000830152613624816135e8565b9050919050565b7f4552433732313a20617070726f76652063616c6c6572206973206e6f7420746f60008201527f6b656e206f776e6572206e6f7220617070726f76656420666f7220616c6c0000602082015250565b6000613687603e83613059565b91506136928261362b565b604082019050919050565b600060208201905081810360008301526136b68161367a565b9050919050565b7f4552433732313a2063616c6c6572206973206e6f7420746f6b656e206f776e6560008201527f72206e6f7220617070726f766564000000000000000000000000000000000000602082015250565b6000613719602e83613059565b9150613724826136bd565b604082019050919050565b600060208201905081810360008301526137488161370c565b9050919050565b7f455243373231456e756d657261626c653a206f776e657220696e646578206f7560008201527f74206f6620626f756e6473000000000000000000000000000000000000000000602082015250565b60006137ab602b83613059565b91506137b68261374f565b604082019050919050565b600060208201905081810360008301526137da8161379e565b9050919050565b7f70726573616c6520686173206e6f7420656e6465640000000000000000000000600082015250565b6000613817601583613059565b9150613822826137e1565b602082019050919050565b600060208201905081810360008301526138468161380a565b9050919050565b7f6e6f2066756e6473000000000000000000000000000000000000000000000000600082015250565b6000613883600883613059565b915061388e8261384d565b602082019050919050565b600060208201905081810360008301526138b281613876565b9050919050565b7f4e487b7100000000000000000000000000000000000000000000000000000000600052601260045260246000fd5b7f4e487b7100000000000000000000000000000000000000000000000000000000600052601160045260246000fd5b600061392282613100565b915061392d83613100565b92508261393d5761393c6138b9565b5b828204905092915050565b600061395382613100565b915061395e83613100565b925082820261396c81613100565b91508282048414831517613983576139826138e8565b5b5092915050565b600061399582613100565b91506139a083613100565b92508282039050818111156139b8576139b76138e8565b5b92915050565b60006139c982613100565b91507fffffffffffffffffffffffffffffffffffffffffffffffffffffffffffffffff82036139fb576139fa6138e8565b5b600182019050919050565b7f6e6f7468696e6720746f20636c61696d00000000000000000000000000000000600082015250565b6000613a3c601083613059565b9150613a4782613a06565b602082019050919050565b60006020820190508181036000830152613a6b81613a2f565b9050919050565b7f455243373231456e756d657261626c653a20676c6f62616c20696e646578206f60008201527f7574206f6620626f756e64730000000000000000000000000000000000000000602082015250565b6000613ace602c83613059565b9150613ad982613a72565b604082019050919050565b60006020820190508181036000830152613afd81613ac1565b9050919050565b7f4e487b7100000000000000000000000000000000000000000000000000000000600052603260045260246000fd5b7f4552433732313a20696e76616c696420746f6b656e2049440000000000000000600082015250565b6000613b69601883613059565b9150613b7482613b33565b602082019050919050565b60006020820190508181036000830152613b9881613b5c565b9050919050565b7f4552433732313a2061646472657373207a65726f206973206e6f74206120766160008201527f6c6964206f776e65720000000000000000000000000000000000000000000000602082015250565b6000613bfb602983613059565b9150613c0682613b9f565b604082019050919050565b60006020820190508181036000830152613c2a81613bee565b9050919050565b600081905092915050565b6000613c478261304e565b613c518185613c31565b9350613c6181856020860161306a565b80840191505092915050565b6000613c798285613c3c565b9150613c858284613c3c565b91508190509392505050565b7f6f7574736964652070726573616c6520706572696f6400000000000000000000600082015250565b6000613cc7601683613059565b9150613cd282613c91565b602082019050919050565b60006020820190508181036000830152613cf681613cba565b9050919050565b7f7061796d656e74206973206c657373207468616e20746865206d696e7420666560008201527f6500000000000000000000000000000000000000000000000000000000000000602082015250565b6000613d59602183613059565b9150613d6482613cfd565b604082019050919050565b60006020820190508181036000830152613d8881613d4c565b9050919050565b7f796f752068617665206f726465726564206d6178696d616c6c79000000000000600082015250565b6000613dc5601a83613059565b9150613dd082613d8f565b602082019050919050565b60006020820190508181036000830152613df481613db8565b9050919050565b6000613e0682613100565b9150613e1183613100565b9250828201905080821115613e2957613e286138e8565b5b92915050565b7f6e6f7468696e6720746f2064756d700000000000000000000000000000000000600082015250565b6000613e65600f83613059565b9150613e7082613e2f565b602082019050919050565b60006020820190508181036000830152613e9481613e58565b9050919050565b6000613ea682613100565b915060008203613eb957613eb86138e8565b5b600182039050919050565b7f4f776e61626c653a206e6577206f776e657220697320746865207a65726f206160008201527f6464726573730000000000000000000000000000000000000000000000000000602082015250565b6000613f20602683613059565b9150613f2b82613ec4565b604082019050919050565b60006020820190508181036000830152613f4f81613f13565b9050919050565b7f4552433732313a207472616e736665722066726f6d20696e636f72726563742060008201527f6f776e6572000000000000000000000000000000000000000000000000000000602082015250565b6000613fb2602583613059565b9150613fbd82613f56565b604082019050919050565b60006020820190508181036000830152613fe181613fa5565b9050919050565b7f4552433732313a207472616e7366657220746f20746865207a65726f2061646460008201527f7265737300000000000000000000000000000000000000000000000000000000602082015250565b6000614044602483613059565b915061404f82613fe8565b604082019050919050565b6000602082019050818103600083015261407381614037565b9050919050565b7f4f776e61626c653a2063616c6c6572206973206e6f7420746865206f776e6572600082015250565b60006140b0602083613059565b91506140bb8261407a565b602082019050919050565b600060208201905081810360008301526140df816140a3565b9050919050565b7f746f6b656e732061726520616c6c20636c61696d656400000000000000000000600082015250565b600061411c601683613059565b9150614127826140e6565b602082019050919050565b6000602082019050818103600083015261414b8161410f565b9050919050565b7f4552433732313a20617070726f766520746f2063616c6c657200000000000000600082015250565b6000614188601983613059565b915061419382614152565b602082019050919050565b600060208201905081810360008301526141b78161417b565b9050919050565b7f4552433732313a207472616e7366657220746f206e6f6e20455243373231526560008201527f63656976657220696d706c656d656e7465720000000000000000000000000000602082015250565b600061421a603283613059565b9150614225826141be565b604082019050919050565b600060208201905081810360008301526142498161420d565b9050919050565b600061425b82613100565b915061426683613100565b925082614276576142756138b9565b5b828206905092915050565b600081519050919050565b600082825260208201905092915050565b60006142a882614281565b6142b2818561428c565b93506142c281856020860161306a565b6142cb81613094565b840191505092915050565b60006080820190506142eb6000830187613195565b6142f86020830186613195565b614305604083018561322b565b8181036060830152614317818461429d565b905095945050505050565b60008151905061433181612fbf565b92915050565b60006020828403121561434d5761434c612f89565b5b600061435b84828501614322565b91505092915050565b7f4552433732313a206d696e7420746f20746865207a65726f2061646472657373600082015250565b600061439a602083613059565b91506143a582614364565b602082019050919050565b600060208201905081810360008301526143c98161438d565b9050919050565b7f4552433732313a20746f6b656e20616c7265616479206d696e74656400000000600082015250565b6000614406601c83613059565b9150614411826143d0565b602082019050919050565b60006020820190508181036000830152614435816143f9565b9050919050565b7f4e487b7100000000000000000000000000000000000000000000000000000000600052603160045260246000fdfea2646970667358221220e5904aad4a48668f2c1693d5578822110bfa1c7d9c60d140253a63a7073ab1f464736f6c63430008110033",
  "linkReferences": {},
  "deployedLinkReferences": {}
}