{
  "_format": "hh-sol-artifact-1",
  "contractName": "MyToken",
  "sourceName": "contracts/NFT_with_presale.sol",
  "abi": [
    {
      "inputs": [
        {
          "internalType": "string",
          "name": "_baseUri",
          "type": "string"
        },
        {
          "internalType": "string",
          "name": "name",
          "type": "string"
        },
        {
          "internalType": "string",
          "name": "symbol",
          "type": "string"
        },
        {
          "internalType": "uint256",
          "name": "_maxSupply",
          "type": "uint256"
        },
        {
          "internalType": "uint256",
          "name": "_start",
          "type": "uint256"
        },
        {
          "internalType": "uint256",
          "name": "_end",
          "type": "uint256"
        },
        {
          "internalType": "uint256",
          "name": "_presaleFee",
          "type": "uint256"
        },
        {
          "internalType": "uint256",
          "name": "_presaleMaxPerWallet",
          "type": "uint256"
        },
        {
          "internalType": "uint256",
          "name": "_presaleSoftCap",
          "type": "uint256"
        },
        {
          "internalType": "uint256",
          "name": "_presalePlatformCutPercentage",
          "type": "uint256"
        }
      ],
      "stateMutability": "payable",
      "type": "constructor"
    },
    {
      "anonymous": false,
      "inputs": [
        {
          "indexed": true,
          "internalType": "address",
          "name": "owner",
          "type": "address"
        },
        {
          "indexed": true,
          "internalType": "address",
          "name": "approved",
          "type": "address"
        },
        {
          "indexed": true,
          "internalType": "uint256",
          "name": "tokenId",
          "type": "uint256"
        }
      ],
      "name": "Approval",
      "type": "event"
    },
    {
      "anonymous": false,
      "inputs": [
        {
          "indexed": true,
          "internalType": "address",
          "name": "owner",
          "type": "address"
        },
        {
          "indexed": true,
          "internalType": "address",
          "name": "operator",
          "type": "address"
        },
        {
          "indexed": false,
          "internalType": "bool",
          "name": "approved",
          "type": "bool"
        }
      ],
      "name": "ApprovalForAll",
      "type": "event"
    },
    {
      "anonymous": false,
      "inputs": [
        {
          "indexed": true,
          "internalType": "address",
          "name": "previousOwner",
          "type": "address"
        },
        {
          "indexed": true,
          "internalType": "address",
          "name": "newOwner",
          "type": "address"
        }
      ],
      "name": "OwnershipTransferred",
      "type": "event"
    },
    {
      "anonymous": false,
      "inputs": [
        {
          "indexed": true,
          "internalType": "address",
          "name": "from",
          "type": "address"
        },
        {
          "indexed": true,
          "internalType": "address",
          "name": "to",
          "type": "address"
        },
        {
          "indexed": true,
          "internalType": "uint256",
          "name": "tokenId",
          "type": "uint256"
        }
      ],
      "name": "Transfer",
      "type": "event"
    },
    {
      "inputs": [
        {
          "internalType": "address",
          "name": "to",
          "type": "address"
        },
        {
          "internalType": "uint256",
          "name": "tokenId",
          "type": "uint256"
        }
      ],
      "name": "approve",
      "outputs": [],
      "stateMutability": "nonpayable",
      "type": "function"
    },
    {
      "inputs": [
        {
          "internalType": "address",
          "name": "owner",
          "type": "address"
        }
      ],
      "name": "balanceOf",
      "outputs": [
        {
          "internalType": "uint256",
          "name": "",
          "type": "uint256"
        }
      ],
      "stateMutability": "view",
      "type": "function"
    },
    {
      "inputs": [],
      "name": "baseUri",
      "outputs": [
        {
          "internalType": "string",
          "name": "",
          "type": "string"
        }
      ],
      "stateMutability": "view",
      "type": "function"
    },
    {
      "inputs": [],
      "name": "claim",
      "outputs": [],
      "stateMutability": "nonpayable",
      "type": "function"
    },
    {
      "inputs": [],
      "name": "contribute",
      "outputs": [],
      "stateMutability": "payable",
      "type": "function"
    },
    {
      "inputs": [],
      "name": "contribution",
      "outputs": [
        {
          "internalType": "uint256",
          "name": "",
          "type": "uint256"
        }
      ],
      "stateMutability": "view",
      "type": "function"
    },
    {
      "inputs": [],
      "name": "contributionCount",
      "outputs": [
        {
          "internalType": "uint256",
          "name": "",
          "type": "uint256"
        }
      ],
      "stateMutability": "view",
      "type": "function"
    },
    {
      "inputs": [
        {
          "internalType": "address",
          "name": "",
          "type": "address"
        }
      ],
      "name": "contributor",
      "outputs": [
        {
          "internalType": "uint256",
          "name": "",
          "type": "uint256"
        }
      ],
      "stateMutability": "view",
      "type": "function"
    },
    {
      "inputs": [
        {
          "internalType": "address",
          "name": "",
          "type": "address"
        }
      ],
      "name": "contributorValue",
      "outputs": [
        {
          "internalType": "uint256",
          "name": "",
          "type": "uint256"
        }
      ],
      "stateMutability": "view",
      "type": "function"
    },
    {
      "inputs": [],
      "name": "dump",
      "outputs": [],
      "stateMutability": "nonpayable",
      "type": "function"
    },
    {
      "inputs": [],
      "name": "dumpProfit",
      "outputs": [
        {
          "internalType": "uint256",
          "name": "",
          "type": "uint256"
        }
      ],
      "stateMutability": "view",
      "type": "function"
    },
    {
      "inputs": [],
      "name": "end",
      "outputs": [
        {
          "internalType": "uint256",
          "name": "",
          "type": "uint256"
        }
      ],
      "stateMutability": "view",
      "type": "function"
    },
    {
      "inputs": [
        {
          "internalType": "uint256",
          "name": "tokenId",
          "type": "uint256"
        }
      ],
      "name": "getApproved",
      "outputs": [
        {
          "internalType": "address",
          "name": "",
          "type": "address"
        }
      ],
      "stateMutability": "view",
      "type": "function"
    },
    {
      "inputs": [
        {
          "internalType": "address",
          "name": "owner",
          "type": "address"
        },
        {
          "internalType": "address",
          "name": "operator",
          "type": "address"
        }
      ],
      "name": "isApprovedForAll",
      "outputs": [
        {
          "internalType": "bool",
          "name": "",
          "type": "bool"
        }
      ],
      "stateMutability": "view",
      "type": "function"
    },
    {
      "inputs": [],
      "name": "maxPerWallet",
      "outputs": [
        {
          "internalType": "uint256",
          "name": "",
          "type": "uint256"
        }
      ],
      "stateMutability": "view",
      "type": "function"
    },
    {
      "inputs": [],
      "name": "maxSupply",
      "outputs": [
        {
          "internalType": "uint256",
          "name": "",
          "type": "uint256"
        }
      ],
      "stateMutability": "view",
      "type": "function"
    },
    {
      "inputs": [],
      "name": "minMintFee",
      "outputs": [
        {
          "internalType": "uint256",
          "name": "",
          "type": "uint256"
        }
      ],
      "stateMutability": "view",
      "type": "function"
    },
    {
      "inputs": [],
      "name": "name",
      "outputs": [
        {
          "internalType": "string",
          "name": "",
          "type": "string"
        }
      ],
      "stateMutability": "view",
      "type": "function"
    },
    {
      "inputs": [],
      "name": "owner",
      "outputs": [
        {
          "internalType": "address",
          "name": "",
          "type": "address"
        }
      ],
      "stateMutability": "view",
      "type": "function"
    },
    {
      "inputs": [
        {
          "internalType": "uint256",
          "name": "tokenId",
          "type": "uint256"
        }
      ],
      "name": "ownerOf",
      "outputs": [
        {
          "internalType": "address",
          "name": "",
          "type": "address"
        }
      ],
      "stateMutability": "view",
      "type": "function"
    },
    {
      "inputs": [],
      "name": "renounceOwnership",
      "outputs": [],
      "stateMutability": "nonpayable",
      "type": "function"
    },
    {
      "inputs": [
        {
          "internalType": "address",
          "name": "from",
          "type": "address"
        },
        {
          "internalType": "address",
          "name": "to",
          "type": "address"
        },
        {
          "internalType": "uint256",
          "name": "tokenId",
          "type": "uint256"
        }
      ],
      "name": "safeTransferFrom",
      "outputs": [],
      "stateMutability": "nonpayable",
      "type": "function"
    },
    {
      "inputs": [
        {
          "internalType": "address",
          "name": "from",
          "type": "address"
        },
        {
          "internalType": "address",
          "name": "to",
          "type": "address"
        },
        {
          "internalType": "uint256",
          "name": "tokenId",
          "type": "uint256"
        },
        {
          "internalType": "bytes",
          "name": "data",
          "type": "bytes"
        }
      ],
      "name": "safeTransferFrom",
      "outputs": [],
      "stateMutability": "nonpayable",
      "type": "function"
    },
    {
      "inputs": [
        {
          "internalType": "address",
          "name": "operator",
          "type": "address"
        },
        {
          "internalType": "bool",
          "name": "approved",
          "type": "bool"
        }
      ],
      "name": "setApprovalForAll",
      "outputs": [],
      "stateMutability": "nonpayable",
      "type": "function"
    },
    {
      "inputs": [],
      "name": "softcap",
      "outputs": [
        {
          "internalType": "uint256",
          "name": "",
          "type": "uint256"
        }
      ],
      "stateMutability": "view",
      "type": "function"
    },
    {
      "inputs": [],
      "name": "start",
      "outputs": [
        {
          "internalType": "uint256",
          "name": "",
          "type": "uint256"
        }
      ],
      "stateMutability": "view",
      "type": "function"
    },
    {
      "inputs": [
        {
          "internalType": "bytes4",
          "name": "interfaceId",
          "type": "bytes4"
        }
      ],
      "name": "supportsInterface",
      "outputs": [
        {
          "internalType": "bool",
          "name": "",
          "type": "bool"
        }
      ],
      "stateMutability": "view",
      "type": "function"
    },
    {
      "inputs": [],
      "name": "symbol",
      "outputs": [
        {
          "internalType": "string",
          "name": "",
          "type": "string"
        }
      ],
      "stateMutability": "view",
      "type": "function"
    },
    {
      "inputs": [
        {
          "internalType": "uint256",
          "name": "index",
          "type": "uint256"
        }
      ],
      "name": "tokenByIndex",
      "outputs": [
        {
          "internalType": "uint256",
          "name": "",
          "type": "uint256"
        }
      ],
      "stateMutability": "view",
      "type": "function"
    },
    {
      "inputs": [
        {
          "internalType": "address",
          "name": "owner",
          "type": "address"
        },
        {
          "internalType": "uint256",
          "name": "index",
          "type": "uint256"
        }
      ],
      "name": "tokenOfOwnerByIndex",
      "outputs": [
        {
          "internalType": "uint256",
          "name": "",
          "type": "uint256"
        }
      ],
      "stateMutability": "view",
      "type": "function"
    },
    {
      "inputs": [
        {
          "internalType": "uint256",
          "name": "tokenId",
          "type": "uint256"
        }
      ],
      "name": "tokenURI",
      "outputs": [
        {
          "internalType": "string",
          "name": "",
          "type": "string"
        }
      ],
      "stateMutability": "view",
      "type": "function"
    },
    {
      "inputs": [],
      "name": "totalSupply",
      "outputs": [
        {
          "internalType": "uint256",
          "name": "",
          "type": "uint256"
        }
      ],
      "stateMutability": "view",
      "type": "function"
    },
    {
      "inputs": [
        {
          "internalType": "address",
          "name": "from",
          "type": "address"
        },
        {
          "internalType": "address",
          "name": "to",
          "type": "address"
        },
        {
          "internalType": "uint256",
          "name": "tokenId",
          "type": "uint256"
        }
      ],
      "name": "transferFrom",
      "outputs": [],
      "stateMutability": "nonpayable",
      "type": "function"
    },
    {
      "inputs": [
        {
          "internalType": "address",
          "name": "newOwner",
          "type": "address"
        }
      ],
      "name": "transferOwnership",
      "outputs": [],
      "stateMutability": "nonpayable",
      "type": "function"
    },
    {
      "inputs": [],
      "name": "uniqeContributors",
      "outputs": [
        {
          "internalType": "uint256",
          "name": "",
          "type": "uint256"
        }
      ],
      "stateMutability": "view",
      "type": "function"
    },
    {
      "inputs": [],
      "name": "withdraw",
      "outputs": [],
      "stateMutability": "nonpayable",
      "type": "function"
    }
  ],
  "bytecode": "0x6080604052600160145573412bb6e1febbfcf428dd0f6a739c30c79128a244601960006101000a81548173ffffffffffffffffffffffffffffffffffffffff021916908373ffffffffffffffffffffffffffffffffffffffff16021790555060405162004d5c38038062004d5c833981810160405281019062000083919062000441565b88888160009081620000969190620007d5565b508060019081620000a89190620007d5565b505050620000cb620000bf620001a560201b60201c565b620001ad60201b60201c565b86600c8190555085600f819055508460108190555083600e819055508260138190555081600d81905550600181146200010657600062000109565b60015b60ff166016819055508060158190555089600b90816200012a9190620007d5565b50601960009054906101000a900473ffffffffffffffffffffffffffffffffffffffff1673ffffffffffffffffffffffffffffffffffffffff166108fc349081150290604051600060405180830381858888f1935050505015801562000194573d6000803e3d6000fd5b5050505050505050505050620008bc565b600033905090565b6000600a60009054906101000a900473ffffffffffffffffffffffffffffffffffffffff16905081600a60006101000a81548173ffffffffffffffffffffffffffffffffffffffff021916908373ffffffffffffffffffffffffffffffffffffffff1602179055508173ffffffffffffffffffffffffffffffffffffffff168173ffffffffffffffffffffffffffffffffffffffff167f8be0079c531659141344cd1fd0a4f28419497f9722a3daafe3b4186f6b6457e060405160405180910390a35050565b6000604051905090565b600080fd5b600080fd5b600080fd5b600080fd5b6000601f19601f8301169050919050565b7f4e487b7100000000000000000000000000000000000000000000000000000000600052604160045260246000fd5b620002dc8262000291565b810181811067ffffffffffffffff82111715620002fe57620002fd620002a2565b5b80604052505050565b60006200031362000273565b9050620003218282620002d1565b919050565b600067ffffffffffffffff821115620003445762000343620002a2565b5b6200034f8262000291565b9050602081019050919050565b60005b838110156200037c5780820151818401526020810190506200035f565b60008484015250505050565b60006200039f620003998462000326565b62000307565b905082815260208101848484011115620003be57620003bd6200028c565b5b620003cb8482856200035c565b509392505050565b600082601f830112620003eb57620003ea62000287565b5b8151620003fd84826020860162000388565b91505092915050565b6000819050919050565b6200041b8162000406565b81146200042757600080fd5b50565b6000815190506200043b8162000410565b92915050565b6000806000806000806000806000806101408b8d0312156200046857620004676200027d565b5b60008b015167ffffffffffffffff81111562000489576200048862000282565b5b620004978d828e01620003d3565b9a505060208b015167ffffffffffffffff811115620004bb57620004ba62000282565b5b620004c98d828e01620003d3565b99505060408b015167ffffffffffffffff811115620004ed57620004ec62000282565b5b620004fb8d828e01620003d3565b98505060606200050e8d828e016200042a565b9750506080620005218d828e016200042a565b96505060a0620005348d828e016200042a565b95505060c0620005478d828e016200042a565b94505060e06200055a8d828e016200042a565b9350506101006200056e8d828e016200042a565b925050610120620005828d828e016200042a565b9150509295989b9194979a5092959850565b600081519050919050565b7f4e487b7100000000000000000000000000000000000000000000000000000000600052602260045260246000fd5b60006002820490506001821680620005e757607f821691505b602082108103620005fd57620005fc6200059f565b5b50919050565b60008190508160005260206000209050919050565b60006020601f8301049050919050565b600082821b905092915050565b600060088302620006677fffffffffffffffffffffffffffffffffffffffffffffffffffffffffffffffff8262000628565b62000673868362000628565b95508019841693508086168417925050509392505050565b6000819050919050565b6000620006b6620006b0620006aa8462000406565b6200068b565b62000406565b9050919050565b6000819050919050565b620006d28362000695565b620006ea620006e182620006bd565b84845462000635565b825550505050565b600090565b62000701620006f2565b6200070e818484620006c7565b505050565b5b8181101562000736576200072a600082620006f7565b60018101905062000714565b5050565b601f82111562000785576200074f8162000603565b6200075a8462000618565b810160208510156200076a578190505b62000782620007798562000618565b83018262000713565b50505b505050565b600082821c905092915050565b6000620007aa600019846008026200078a565b1980831691505092915050565b6000620007c5838362000797565b9150826002028217905092915050565b620007e08262000594565b67ffffffffffffffff811115620007fc57620007fb620002a2565b5b620008088254620005ce565b620008158282856200073a565b600060209050601f8311600181146200084d576000841562000838578287015190505b620008448582620007b7565b865550620008b4565b601f1984166200085d8662000603565b60005b82811015620008875784890151825560018201915060208501945060208101905062000860565b86831015620008a75784890151620008a3601f89168262000797565b8355505b6001600288020188555050505b505050505050565b61449080620008cc6000396000f3fe60806040526004361061020f5760003560e01c8063639fae8b11610118578063c87b56dd116100a0578063e43305451161006f578063e433054514610784578063e985e9c51461079b578063efbe1c1c146107d8578063f2fde38b14610803578063f89be5931461082c5761020f565b8063c87b56dd146106d5578063ceb3560514610712578063d5abeb011461074f578063d7bb99ba1461077a5761020f565b806395d89b41116100e757806395d89b41146106025780639abc83201461062d578063a22cb46514610658578063b88d4fde14610681578063be9a6555146106aa5761020f565b8063639fae8b1461055857806370a0823114610583578063715018a6146105c05780638da5cb5b146105d75761020f565b806342842e0e1161019b57806350520b1f1161016a57806350520b1f1461046f578063539580b81461049a578063542afda3146104c55780635b18056b146104f05780636352211e1461051b5761020f565b806342842e0e146103c7578063453c2310146103f05780634e71d92d1461041b5780634f6ccce7146104325761020f565b806318160ddd116101e257806318160ddd146102e257806323b872dd1461030d5780632f745c591461033657806337e9ba19146103735780633ccfd60b146103b05761020f565b806301ffc9a71461021457806306fdde0314610251578063081812fc1461027c578063095ea7b3146102b9575b600080fd5b34801561022057600080fd5b5061023b60048036038101906102369190612fda565b610857565b6040516102489190613022565b60405180910390f35b34801561025d57600080fd5b50610266610869565b60405161027391906130cd565b60405180910390f35b34801561028857600080fd5b506102a3600480360381019061029e9190613125565b6108fb565b6040516102b09190613193565b60405180910390f35b3480156102c557600080fd5b506102e060048036038101906102db91906131da565b610941565b005b3480156102ee57600080fd5b506102f7610a58565b6040516103049190613229565b60405180910390f35b34801561031957600080fd5b50610334600480360381019061032f9190613244565b610a65565b005b34801561034257600080fd5b5061035d600480360381019061035891906131da565b610ac5565b60405161036a9190613229565b60405180910390f35b34801561037f57600080fd5b5061039a60048036038101906103959190613297565b610b6a565b6040516103a79190613229565b60405180910390f35b3480156103bc57600080fd5b506103c5610b82565b005b3480156103d357600080fd5b506103ee60048036038101906103e99190613244565b610dbc565b005b3480156103fc57600080fd5b50610405610ddc565b6040516104129190613229565b60405180910390f35b34801561042757600080fd5b50610430610de2565b005b34801561043e57600080fd5b5061045960048036038101906104549190613125565b611032565b6040516104669190613229565b60405180910390f35b34801561047b57600080fd5b506104846110a3565b6040516104919190613229565b60405180910390f35b3480156104a657600080fd5b506104af6110a9565b6040516104bc9190613229565b60405180910390f35b3480156104d157600080fd5b506104da6110af565b6040516104e79190613229565b60405180910390f35b3480156104fc57600080fd5b506105056110b5565b6040516105129190613229565b60405180910390f35b34801561052757600080fd5b50610542600480360381019061053d9190613125565b6110bb565b60405161054f9190613193565b60405180910390f35b34801561056457600080fd5b5061056d61116c565b60405161057a9190613229565b60405180910390f35b34801561058f57600080fd5b506105aa60048036038101906105a59190613297565b611172565b6040516105b79190613229565b60405180910390f35b3480156105cc57600080fd5b506105d5611229565b005b3480156105e357600080fd5b506105ec61123d565b6040516105f99190613193565b60405180910390f35b34801561060e57600080fd5b50610617611267565b60405161062491906130cd565b60405180910390f35b34801561063957600080fd5b506106426112f9565b60405161064f91906130cd565b60405180910390f35b34801561066457600080fd5b5061067f600480360381019061067a91906132f0565b611387565b005b34801561068d57600080fd5b506106a860048036038101906106a39190613465565b61139d565b005b3480156106b657600080fd5b506106bf6113ff565b6040516106cc9190613229565b60405180910390f35b3480156106e157600080fd5b506106fc60048036038101906106f79190613125565b611405565b60405161070991906130cd565b60405180910390f35b34801561071e57600080fd5b5061073960048036038101906107349190613297565b61146d565b6040516107469190613229565b60405180910390f35b34801561075b57600080fd5b50610764611485565b6040516107719190613229565b60405180910390f35b61078261148b565b005b34801561079057600080fd5b506107996116e2565b005b3480156107a757600080fd5b506107c260048036038101906107bd91906134e8565b611a67565b6040516107cf9190613022565b60405180910390f35b3480156107e457600080fd5b506107ed611afb565b6040516107fa9190613229565b60405180910390f35b34801561080f57600080fd5b5061082a60048036038101906108259190613297565b611b01565b005b34801561083857600080fd5b50610841611b84565b60405161084e9190613229565b60405180910390f35b600061086282611b8a565b9050919050565b60606000805461087890613557565b80601f01602080910402602001604051908101604052809291908181526020018280546108a490613557565b80156108f15780601f106108c6576101008083540402835291602001916108f1565b820191906000526020600020905b8154815290600101906020018083116108d457829003601f168201915b5050505050905090565b600061090682611c04565b6004600083815260200190815260200160002060009054906101000a900473ffffffffffffffffffffffffffffffffffffffff169050919050565b600061094c826110bb565b90508073ffffffffffffffffffffffffffffffffffffffff168373ffffffffffffffffffffffffffffffffffffffff16036109bc576040517f08c379a00000000000000000000000000000000000000000000000000000000081526004016109b3906135fa565b60405180910390fd5b8073ffffffffffffffffffffffffffffffffffffffff166109db611c4f565b73ffffffffffffffffffffffffffffffffffffffff161480610a0a5750610a0981610a04611c4f565b611a67565b5b610a49576040517f08c379a0000000000000000000000000000000000000000000000000000000008152600401610a409061368c565b60405180910390fd5b610a538383611c57565b505050565b6000600880549050905090565b610a76610a70611c4f565b82611d10565b610ab5576040517f08c379a0000000000000000000000000000000000000000000000000000000008152600401610aac9061371e565b60405180910390fd5b610ac0838383611da5565b505050565b6000610ad083611172565b8210610b11576040517f08c379a0000000000000000000000000000000000000000000000000000000008152600401610b08906137b0565b60405180910390fd5b600660008473ffffffffffffffffffffffffffffffffffffffff1673ffffffffffffffffffffffffffffffffffffffff168152602001908152602001600020600083815260200190815260200160002054905092915050565b601b6020528060005260406000206000915090505481565b610b8a61200b565b4260105410610bce576040517f08c379a0000000000000000000000000000000000000000000000000000000008152600401610bc59061381c565b60405180910390fd5b60004711610c11576040517f08c379a0000000000000000000000000000000000000000000000000000000008152600401610c0890613888565b60405180910390fd5b600d5460125410610d655760006012546064601554610c309190613906565b610c3a9190613937565b905060008147610c4a9190613979565b90506000601281905550600060158190555060006016541115610cae57610c95601960009054906101000a900473ffffffffffffffffffffffffffffffffffffffff16601454612089565b60146000815480929190610ca8906139ad565b91905055505b3373ffffffffffffffffffffffffffffffffffffffff166108fc829081150290604051600060405180830381858888f19350505050158015610cf4573d6000803e3d6000fd5b50601960009054906101000a900473ffffffffffffffffffffffffffffffffffffffff1673ffffffffffffffffffffffffffffffffffffffff166108fc839081150290604051600060405180830381858888f19350505050158015610d5d573d6000803e3d6000fd5b505050610dba565b3373ffffffffffffffffffffffffffffffffffffffff166108fc60125447610d8d9190613979565b9081150290604051600060405180830381858888f19350505050158015610db8573d6000803e3d6000fd5b505b565b610dd78383836040518060200160405280600081525061139d565b505050565b60135481565b4260105410610e26576040517f08c379a0000000000000000000000000000000000000000000000000000000008152600401610e1d9061381c565b60405180910390fd5b6000601a60003373ffffffffffffffffffffffffffffffffffffffff1673ffffffffffffffffffffffffffffffffffffffff1681526020019081526020016000205411610ea8576040517f08c379a0000000000000000000000000000000000000000000000000000000008152600401610e9f90613a41565b60405180910390fd5b600d5460185410610f1f5760005b601a60003373ffffffffffffffffffffffffffffffffffffffff1673ffffffffffffffffffffffffffffffffffffffff16815260200190815260200160002054811015610f1957610f06336120a7565b8080610f11906139ad565b915050610eb6565b50610fa6565b3373ffffffffffffffffffffffffffffffffffffffff166108fc601b60003373ffffffffffffffffffffffffffffffffffffffff1673ffffffffffffffffffffffffffffffffffffffff168152602001908152602001600020549081150290604051600060405180830381858888f19350505050158015610fa4573d6000803e3d6000fd5b505b6000601a60003373ffffffffffffffffffffffffffffffffffffffff1673ffffffffffffffffffffffffffffffffffffffff168152602001908152602001600020819055506000601b60003373ffffffffffffffffffffffffffffffffffffffff1673ffffffffffffffffffffffffffffffffffffffff16815260200190815260200160002081905550565b600061103c610a58565b821061107d576040517f08c379a000000000000000000000000000000000000000000000000000000000815260040161107490613ad3565b60405180910390fd5b6008828154811061109157611090613af3565b5b90600052602060002001549050919050565b60125481565b60175481565b600e5481565b60185481565b6000806002600084815260200190815260200160002060009054906101000a900473ffffffffffffffffffffffffffffffffffffffff169050600073ffffffffffffffffffffffffffffffffffffffff168173ffffffffffffffffffffffffffffffffffffffff1603611163576040517f08c379a000000000000000000000000000000000000000000000000000000000815260040161115a90613b6e565b60405180910390fd5b80915050919050565b60115481565b60008073ffffffffffffffffffffffffffffffffffffffff168273ffffffffffffffffffffffffffffffffffffffff16036111e2576040517f08c379a00000000000000000000000000000000000000000000000000000000081526004016111d990613c00565b60405180910390fd5b600360008373ffffffffffffffffffffffffffffffffffffffff1673ffffffffffffffffffffffffffffffffffffffff168152602001908152602001600020549050919050565b61123161200b565b61123b6000612126565b565b6000600a60009054906101000a900473ffffffffffffffffffffffffffffffffffffffff16905090565b60606001805461127690613557565b80601f01602080910402602001604051908101604052809291908181526020018280546112a290613557565b80156112ef5780601f106112c4576101008083540402835291602001916112ef565b820191906000526020600020905b8154815290600101906020018083116112d257829003601f168201915b5050505050905090565b600b805461130690613557565b80601f016020809104026020016040519081016040528092919081815260200182805461133290613557565b801561137f5780601f106113545761010080835404028352916020019161137f565b820191906000526020600020905b81548152906001019060200180831161136257829003601f168201915b505050505081565b611399611392611c4f565b83836121ec565b5050565b6113ae6113a8611c4f565b83611d10565b6113ed576040517f08c379a00000000000000000000000000000000000000000000000000000000081526004016113e49061371e565b60405180910390fd5b6113f984848484612358565b50505050565b600f5481565b606061141082611c04565b600061141a6123b4565b9050600081511161143a5760405180602001604052806000815250611465565b8061144484612446565b604051602001611455929190613c5c565b6040516020818303038152906040525b915050919050565b601a6020528060005260406000206000915090505481565b600c5481565b4260105411801561149d575042600f54105b6114dc576040517f08c379a00000000000000000000000000000000000000000000000000000000081526004016114d390613ccc565b60405180910390fd5b600e54341015611521576040517f08c379a000000000000000000000000000000000000000000000000000000000815260040161151890613d5e565b60405180910390fd5b601354601a60003373ffffffffffffffffffffffffffffffffffffffff1673ffffffffffffffffffffffffffffffffffffffff16815260200190815260200160002054106115a4576040517f08c379a000000000000000000000000000000000000000000000000000000000815260040161159b90613dca565b60405180910390fd5b6000601a60003373ffffffffffffffffffffffffffffffffffffffff1673ffffffffffffffffffffffffffffffffffffffff168152602001908152602001600020540361160457601160008154809291906115fe906139ad565b91905055505b34601260008282546116169190613dea565b92505081905550601a60003373ffffffffffffffffffffffffffffffffffffffff1673ffffffffffffffffffffffffffffffffffffffff168152602001908152602001600020600081548092919061166d906139ad565b919050555034601b60003373ffffffffffffffffffffffffffffffffffffffff1673ffffffffffffffffffffffffffffffffffffffff16815260200190815260200160002060008282546116c19190613dea565b92505081905550601860008154809291906116db906139ad565b9190505550565b426010541180156116f4575042600f54105b611733576040517f08c379a000000000000000000000000000000000000000000000000000000000815260040161172a90613ccc565b60405180910390fd5b6000601a60003373ffffffffffffffffffffffffffffffffffffffff1673ffffffffffffffffffffffffffffffffffffffff16815260200190815260200160002054116117b5576040517f08c379a00000000000000000000000000000000000000000000000000000000081526004016117ac90613e6a565b60405180910390fd5b601160008154809291906117c890613e8a565b919050555060006064601b60003373ffffffffffffffffffffffffffffffffffffffff1673ffffffffffffffffffffffffffffffffffffffff16815260200190815260200160002054600a61181d9190613937565b6118279190613906565b601b60003373ffffffffffffffffffffffffffffffffffffffff1673ffffffffffffffffffffffffffffffffffffffff168152602001908152602001600020546118719190613979565b90506064601b60003373ffffffffffffffffffffffffffffffffffffffff1673ffffffffffffffffffffffffffffffffffffffff16815260200190815260200160002054600a6118c19190613937565b6118cb9190613906565b601760008282546118dc9190613dea565b92505081905550601a60003373ffffffffffffffffffffffffffffffffffffffff1673ffffffffffffffffffffffffffffffffffffffff16815260200190815260200160002054601860008282546119349190613979565b92505081905550601b60003373ffffffffffffffffffffffffffffffffffffffff1673ffffffffffffffffffffffffffffffffffffffff168152602001908152602001600020546012600082825461198c9190613979565b925050819055506000601a60003373ffffffffffffffffffffffffffffffffffffffff1673ffffffffffffffffffffffffffffffffffffffff168152602001908152602001600020819055506000601b60003373ffffffffffffffffffffffffffffffffffffffff1673ffffffffffffffffffffffffffffffffffffffff168152602001908152602001600020819055503373ffffffffffffffffffffffffffffffffffffffff166108fc829081150290604051600060405180830381858888f19350505050158015611a63573d6000803e3d6000fd5b5050565b6000600560008473ffffffffffffffffffffffffffffffffffffffff1673ffffffffffffffffffffffffffffffffffffffff16815260200190815260200160002060008373ffffffffffffffffffffffffffffffffffffffff1673ffffffffffffffffffffffffffffffffffffffff16815260200190815260200160002060009054906101000a900460ff16905092915050565b60105481565b611b0961200b565b600073ffffffffffffffffffffffffffffffffffffffff168173ffffffffffffffffffffffffffffffffffffffff1603611b78576040517f08c379a0000000000000000000000000000000000000000000000000000000008152600401611b6f90613f25565b60405180910390fd5b611b8181612126565b50565b600d5481565b60007f780e9d63000000000000000000000000000000000000000000000000000000007bffffffffffffffffffffffffffffffffffffffffffffffffffffffff1916827bffffffffffffffffffffffffffffffffffffffffffffffffffffffff19161480611bfd5750611bfc826125a6565b5b9050919050565b611c0d81612688565b611c4c576040517f08c379a0000000000000000000000000000000000000000000000000000000008152600401611c4390613b6e565b60405180910390fd5b50565b600033905090565b816004600083815260200190815260200160002060006101000a81548173ffffffffffffffffffffffffffffffffffffffff021916908373ffffffffffffffffffffffffffffffffffffffff160217905550808273ffffffffffffffffffffffffffffffffffffffff16611cca836110bb565b73ffffffffffffffffffffffffffffffffffffffff167f8c5be1e5ebec7d5bd14f71427d1e84f3dd0314c0f7b2291e5b200ac8c7c3b92560405160405180910390a45050565b600080611d1c836110bb565b90508073ffffffffffffffffffffffffffffffffffffffff168473ffffffffffffffffffffffffffffffffffffffff161480611d5e5750611d5d8185611a67565b5b80611d9c57508373ffffffffffffffffffffffffffffffffffffffff16611d84846108fb565b73ffffffffffffffffffffffffffffffffffffffff16145b91505092915050565b8273ffffffffffffffffffffffffffffffffffffffff16611dc5826110bb565b73ffffffffffffffffffffffffffffffffffffffff1614611e1b576040517f08c379a0000000000000000000000000000000000000000000000000000000008152600401611e1290613fb7565b60405180910390fd5b600073ffffffffffffffffffffffffffffffffffffffff168273ffffffffffffffffffffffffffffffffffffffff1603611e8a576040517f08c379a0000000000000000000000000000000000000000000000000000000008152600401611e8190614049565b60405180910390fd5b611e958383836126f4565b611ea0600082611c57565b6001600360008573ffffffffffffffffffffffffffffffffffffffff1673ffffffffffffffffffffffffffffffffffffffff1681526020019081526020016000206000828254611ef09190613979565b925050819055506001600360008473ffffffffffffffffffffffffffffffffffffffff1673ffffffffffffffffffffffffffffffffffffffff1681526020019081526020016000206000828254611f479190613dea565b92505081905550816002600083815260200190815260200160002060006101000a81548173ffffffffffffffffffffffffffffffffffffffff021916908373ffffffffffffffffffffffffffffffffffffffff160217905550808273ffffffffffffffffffffffffffffffffffffffff168473ffffffffffffffffffffffffffffffffffffffff167fddf252ad1be2c89b69c2b068fc378daa952ba7f163c4a11628f55a4df523b3ef60405160405180910390a4612006838383612704565b505050565b612013611c4f565b73ffffffffffffffffffffffffffffffffffffffff1661203161123d565b73ffffffffffffffffffffffffffffffffffffffff1614612087576040517f08c379a000000000000000000000000000000000000000000000000000000000815260040161207e906140b5565b60405180910390fd5b565b6120a3828260405180602001604052806000815250612709565b5050565b6016546120b2610a58565b6120bc9190613dea565b600c54116120ff576040517f08c379a00000000000000000000000000000000000000000000000000000000081526004016120f690614121565b60405180910390fd5b61210b81601454612089565b6014600081548092919061211e906139ad565b919050555050565b6000600a60009054906101000a900473ffffffffffffffffffffffffffffffffffffffff16905081600a60006101000a81548173ffffffffffffffffffffffffffffffffffffffff021916908373ffffffffffffffffffffffffffffffffffffffff1602179055508173ffffffffffffffffffffffffffffffffffffffff168173ffffffffffffffffffffffffffffffffffffffff167f8be0079c531659141344cd1fd0a4f28419497f9722a3daafe3b4186f6b6457e060405160405180910390a35050565b8173ffffffffffffffffffffffffffffffffffffffff168373ffffffffffffffffffffffffffffffffffffffff160361225a576040517f08c379a00000000000000000000000000000000000000000000000000000000081526004016122519061418d565b60405180910390fd5b80600560008573ffffffffffffffffffffffffffffffffffffffff1673ffffffffffffffffffffffffffffffffffffffff16815260200190815260200160002060008473ffffffffffffffffffffffffffffffffffffffff1673ffffffffffffffffffffffffffffffffffffffff16815260200190815260200160002060006101000a81548160ff0219169083151502179055508173ffffffffffffffffffffffffffffffffffffffff168373ffffffffffffffffffffffffffffffffffffffff167f17307eab39ab6107e8899845ad3d59bd9653f200f220920489ca2b5937696c318360405161234b9190613022565b60405180910390a3505050565b612363848484611da5565b61236f84848484612764565b6123ae576040517f08c379a00000000000000000000000000000000000000000000000000000000081526004016123a59061421f565b60405180910390fd5b50505050565b6060600b80546123c390613557565b80601f01602080910402602001604051908101604052809291908181526020018280546123ef90613557565b801561243c5780601f106124115761010080835404028352916020019161243c565b820191906000526020600020905b81548152906001019060200180831161241f57829003601f168201915b5050505050905090565b60606000820361248d576040518060400160405280600181526020017f300000000000000000000000000000000000000000000000000000000000000081525090506125a1565b600082905060005b600082146124bf5780806124a8906139ad565b915050600a826124b89190613906565b9150612495565b60008167ffffffffffffffff8111156124db576124da61333a565b5b6040519080825280601f01601f19166020018201604052801561250d5781602001600182028036833780820191505090505b5090505b6000851461259a576001826125269190613979565b9150600a85612535919061423f565b60306125419190613dea565b60f81b81838151811061255757612556613af3565b5b60200101907effffffffffffffffffffffffffffffffffffffffffffffffffffffffffffff1916908160001a905350600a856125939190613906565b9450612511565b8093505050505b919050565b60007f80ac58cd000000000000000000000000000000000000000000000000000000007bffffffffffffffffffffffffffffffffffffffffffffffffffffffff1916827bffffffffffffffffffffffffffffffffffffffffffffffffffffffff1916148061267157507f5b5e139f000000000000000000000000000000000000000000000000000000007bffffffffffffffffffffffffffffffffffffffffffffffffffffffff1916827bffffffffffffffffffffffffffffffffffffffffffffffffffffffff1916145b806126815750612680826128eb565b5b9050919050565b60008073ffffffffffffffffffffffffffffffffffffffff166002600084815260200190815260200160002060009054906101000a900473ffffffffffffffffffffffffffffffffffffffff1673ffffffffffffffffffffffffffffffffffffffff1614159050919050565b6126ff838383612955565b505050565b505050565b6127138383612a67565b6127206000848484612764565b61275f576040517f08c379a00000000000000000000000000000000000000000000000000000000081526004016127569061421f565b60405180910390fd5b505050565b60006127858473ffffffffffffffffffffffffffffffffffffffff16612c40565b156128de578373ffffffffffffffffffffffffffffffffffffffff1663150b7a026127ae611c4f565b8786866040518563ffffffff1660e01b81526004016127d094939291906142c5565b6020604051808303816000875af192505050801561280c57506040513d601f19601f820116820180604052508101906128099190614326565b60015b61288e573d806000811461283c576040519150601f19603f3d011682016040523d82523d6000602084013e612841565b606091505b506000815103612886576040517f08c379a000000000000000000000000000000000000000000000000000000000815260040161287d9061421f565b60405180910390fd5b805181602001fd5b63150b7a0260e01b7bffffffffffffffffffffffffffffffffffffffffffffffffffffffff1916817bffffffffffffffffffffffffffffffffffffffffffffffffffffffff1916149150506128e3565b600190505b949350505050565b60007f01ffc9a7000000000000000000000000000000000000000000000000000000007bffffffffffffffffffffffffffffffffffffffffffffffffffffffff1916827bffffffffffffffffffffffffffffffffffffffffffffffffffffffff1916149050919050565b612960838383612c63565b600073ffffffffffffffffffffffffffffffffffffffff168373ffffffffffffffffffffffffffffffffffffffff16036129a25761299d81612c68565b6129e1565b8173ffffffffffffffffffffffffffffffffffffffff168373ffffffffffffffffffffffffffffffffffffffff16146129e0576129df8382612cb1565b5b5b600073ffffffffffffffffffffffffffffffffffffffff168273ffffffffffffffffffffffffffffffffffffffff1603612a2357612a1e81612e1e565b612a62565b8273ffffffffffffffffffffffffffffffffffffffff168273ffffffffffffffffffffffffffffffffffffffff1614612a6157612a608282612eef565b5b5b505050565b600073ffffffffffffffffffffffffffffffffffffffff168273ffffffffffffffffffffffffffffffffffffffff1603612ad6576040517f08c379a0000000000000000000000000000000000000000000000000000000008152600401612acd9061439f565b60405180910390fd5b612adf81612688565b15612b1f576040517f08c379a0000000000000000000000000000000000000000000000000000000008152600401612b169061440b565b60405180910390fd5b612b2b600083836126f4565b6001600360008473ffffffffffffffffffffffffffffffffffffffff1673ffffffffffffffffffffffffffffffffffffffff1681526020019081526020016000206000828254612b7b9190613dea565b92505081905550816002600083815260200190815260200160002060006101000a81548173ffffffffffffffffffffffffffffffffffffffff021916908373ffffffffffffffffffffffffffffffffffffffff160217905550808273ffffffffffffffffffffffffffffffffffffffff16600073ffffffffffffffffffffffffffffffffffffffff167fddf252ad1be2c89b69c2b068fc378daa952ba7f163c4a11628f55a4df523b3ef60405160405180910390a4612c3c60008383612704565b5050565b6000808273ffffffffffffffffffffffffffffffffffffffff163b119050919050565b505050565b6008805490506009600083815260200190815260200160002081905550600881908060018154018082558091505060019003906000526020600020016000909190919091505550565b60006001612cbe84611172565b612cc89190613979565b9050600060076000848152602001908152602001600020549050818114612dad576000600660008673ffffffffffffffffffffffffffffffffffffffff1673ffffffffffffffffffffffffffffffffffffffff168152602001908152602001600020600084815260200190815260200160002054905080600660008773ffffffffffffffffffffffffffffffffffffffff1673ffffffffffffffffffffffffffffffffffffffff168152602001908152602001600020600084815260200190815260200160002081905550816007600083815260200190815260200160002081905550505b6007600084815260200190815260200160002060009055600660008573ffffffffffffffffffffffffffffffffffffffff1673ffffffffffffffffffffffffffffffffffffffff16815260200190815260200160002060008381526020019081526020016000206000905550505050565b60006001600880549050612e329190613979565b9050600060096000848152602001908152602001600020549050600060088381548110612e6257612e61613af3565b5b906000526020600020015490508060088381548110612e8457612e83613af3565b5b906000526020600020018190555081600960008381526020019081526020016000208190555060096000858152602001908152602001600020600090556008805480612ed357612ed261442b565b5b6001900381819060005260206000200160009055905550505050565b6000612efa83611172565b905081600660008573ffffffffffffffffffffffffffffffffffffffff1673ffffffffffffffffffffffffffffffffffffffff168152602001908152602001600020600083815260200190815260200160002081905550806007600084815260200190815260200160002081905550505050565b6000604051905090565b600080fd5b600080fd5b60007fffffffff0000000000000000000000000000000000000000000000000000000082169050919050565b612fb781612f82565b8114612fc257600080fd5b50565b600081359050612fd481612fae565b92915050565b600060208284031215612ff057612fef612f78565b5b6000612ffe84828501612fc5565b91505092915050565b60008115159050919050565b61301c81613007565b82525050565b60006020820190506130376000830184613013565b92915050565b600081519050919050565b600082825260208201905092915050565b60005b8381101561307757808201518184015260208101905061305c565b60008484015250505050565b6000601f19601f8301169050919050565b600061309f8261303d565b6130a98185613048565b93506130b9818560208601613059565b6130c281613083565b840191505092915050565b600060208201905081810360008301526130e78184613094565b905092915050565b6000819050919050565b613102816130ef565b811461310d57600080fd5b50565b60008135905061311f816130f9565b92915050565b60006020828403121561313b5761313a612f78565b5b600061314984828501613110565b91505092915050565b600073ffffffffffffffffffffffffffffffffffffffff82169050919050565b600061317d82613152565b9050919050565b61318d81613172565b82525050565b60006020820190506131a86000830184613184565b92915050565b6131b781613172565b81146131c257600080fd5b50565b6000813590506131d4816131ae565b92915050565b600080604083850312156131f1576131f0612f78565b5b60006131ff858286016131c5565b925050602061321085828601613110565b9150509250929050565b613223816130ef565b82525050565b600060208201905061323e600083018461321a565b92915050565b60008060006060848603121561325d5761325c612f78565b5b600061326b868287016131c5565b935050602061327c868287016131c5565b925050604061328d86828701613110565b9150509250925092565b6000602082840312156132ad576132ac612f78565b5b60006132bb848285016131c5565b91505092915050565b6132cd81613007565b81146132d857600080fd5b50565b6000813590506132ea816132c4565b92915050565b6000806040838503121561330757613306612f78565b5b6000613315858286016131c5565b9250506020613326858286016132db565b9150509250929050565b600080fd5b600080fd5b7f4e487b7100000000000000000000000000000000000000000000000000000000600052604160045260246000fd5b61337282613083565b810181811067ffffffffffffffff821117156133915761339061333a565b5b80604052505050565b60006133a4612f6e565b90506133b08282613369565b919050565b600067ffffffffffffffff8211156133d0576133cf61333a565b5b6133d982613083565b9050602081019050919050565b82818337600083830152505050565b6000613408613403846133b5565b61339a565b90508281526020810184848401111561342457613423613335565b5b61342f8482856133e6565b509392505050565b600082601f83011261344c5761344b613330565b5b813561345c8482602086016133f5565b91505092915050565b6000806000806080858703121561347f5761347e612f78565b5b600061348d878288016131c5565b945050602061349e878288016131c5565b93505060406134af87828801613110565b925050606085013567ffffffffffffffff8111156134d0576134cf612f7d565b5b6134dc87828801613437565b91505092959194509250565b600080604083850312156134ff576134fe612f78565b5b600061350d858286016131c5565b925050602061351e858286016131c5565b9150509250929050565b7f4e487b7100000000000000000000000000000000000000000000000000000000600052602260045260246000fd5b6000600282049050600182168061356f57607f821691505b60208210810361358257613581613528565b5b50919050565b7f4552433732313a20617070726f76616c20746f2063757272656e74206f776e6560008201527f7200000000000000000000000000000000000000000000000000000000000000602082015250565b60006135e4602183613048565b91506135ef82613588565b604082019050919050565b60006020820190508181036000830152613613816135d7565b9050919050565b7f4552433732313a20617070726f76652063616c6c6572206973206e6f7420746f60008201527f6b656e206f776e6572206e6f7220617070726f76656420666f7220616c6c0000602082015250565b6000613676603e83613048565b91506136818261361a565b604082019050919050565b600060208201905081810360008301526136a581613669565b9050919050565b7f4552433732313a2063616c6c6572206973206e6f7420746f6b656e206f776e6560008201527f72206e6f7220617070726f766564000000000000000000000000000000000000602082015250565b6000613708602e83613048565b9150613713826136ac565b604082019050919050565b60006020820190508181036000830152613737816136fb565b9050919050565b7f455243373231456e756d657261626c653a206f776e657220696e646578206f7560008201527f74206f6620626f756e6473000000000000000000000000000000000000000000602082015250565b600061379a602b83613048565b91506137a58261373e565b604082019050919050565b600060208201905081810360008301526137c98161378d565b9050919050565b7f70726573616c6520686173206e6f7420656e6465640000000000000000000000600082015250565b6000613806601583613048565b9150613811826137d0565b602082019050919050565b60006020820190508181036000830152613835816137f9565b9050919050565b7f6e6f2066756e6473000000000000000000000000000000000000000000000000600082015250565b6000613872600883613048565b915061387d8261383c565b602082019050919050565b600060208201905081810360008301526138a181613865565b9050919050565b7f4e487b7100000000000000000000000000000000000000000000000000000000600052601260045260246000fd5b7f4e487b7100000000000000000000000000000000000000000000000000000000600052601160045260246000fd5b6000613911826130ef565b915061391c836130ef565b92508261392c5761392b6138a8565b5b828204905092915050565b6000613942826130ef565b915061394d836130ef565b925082820261395b816130ef565b91508282048414831517613972576139716138d7565b5b5092915050565b6000613984826130ef565b915061398f836130ef565b92508282039050818111156139a7576139a66138d7565b5b92915050565b60006139b8826130ef565b91507fffffffffffffffffffffffffffffffffffffffffffffffffffffffffffffffff82036139ea576139e96138d7565b5b600182019050919050565b7f6e6f7468696e6720746f20636c61696d00000000000000000000000000000000600082015250565b6000613a2b601083613048565b9150613a36826139f5565b602082019050919050565b60006020820190508181036000830152613a5a81613a1e565b9050919050565b7f455243373231456e756d657261626c653a20676c6f62616c20696e646578206f60008201527f7574206f6620626f756e64730000000000000000000000000000000000000000602082015250565b6000613abd602c83613048565b9150613ac882613a61565b604082019050919050565b60006020820190508181036000830152613aec81613ab0565b9050919050565b7f4e487b7100000000000000000000000000000000000000000000000000000000600052603260045260246000fd5b7f4552433732313a20696e76616c696420746f6b656e2049440000000000000000600082015250565b6000613b58601883613048565b9150613b6382613b22565b602082019050919050565b60006020820190508181036000830152613b8781613b4b565b9050919050565b7f4552433732313a2061646472657373207a65726f206973206e6f74206120766160008201527f6c6964206f776e65720000000000000000000000000000000000000000000000602082015250565b6000613bea602983613048565b9150613bf582613b8e565b604082019050919050565b60006020820190508181036000830152613c1981613bdd565b9050919050565b600081905092915050565b6000613c368261303d565b613c408185613c20565b9350613c50818560208601613059565b80840191505092915050565b6000613c688285613c2b565b9150613c748284613c2b565b91508190509392505050565b7f6f7574736964652070726573616c6520706572696f6400000000000000000000600082015250565b6000613cb6601683613048565b9150613cc182613c80565b602082019050919050565b60006020820190508181036000830152613ce581613ca9565b9050919050565b7f7061796d656e74206973206c657373207468616e20746865206d696e7420666560008201527f6500000000000000000000000000000000000000000000000000000000000000602082015250565b6000613d48602183613048565b9150613d5382613cec565b604082019050919050565b60006020820190508181036000830152613d7781613d3b565b9050919050565b7f796f752068617665206f726465726564206d6178696d616c6c79000000000000600082015250565b6000613db4601a83613048565b9150613dbf82613d7e565b602082019050919050565b60006020820190508181036000830152613de381613da7565b9050919050565b6000613df5826130ef565b9150613e00836130ef565b9250828201905080821115613e1857613e176138d7565b5b92915050565b7f6e6f7468696e6720746f2064756d700000000000000000000000000000000000600082015250565b6000613e54600f83613048565b9150613e5f82613e1e565b602082019050919050565b60006020820190508181036000830152613e8381613e47565b9050919050565b6000613e95826130ef565b915060008203613ea857613ea76138d7565b5b600182039050919050565b7f4f776e61626c653a206e6577206f776e657220697320746865207a65726f206160008201527f6464726573730000000000000000000000000000000000000000000000000000602082015250565b6000613f0f602683613048565b9150613f1a82613eb3565b604082019050919050565b60006020820190508181036000830152613f3e81613f02565b9050919050565b7f4552433732313a207472616e736665722066726f6d20696e636f72726563742060008201527f6f776e6572000000000000000000000000000000000000000000000000000000602082015250565b6000613fa1602583613048565b9150613fac82613f45565b604082019050919050565b60006020820190508181036000830152613fd081613f94565b9050919050565b7f4552433732313a207472616e7366657220746f20746865207a65726f2061646460008201527f7265737300000000000000000000000000000000000000000000000000000000602082015250565b6000614033602483613048565b915061403e82613fd7565b604082019050919050565b6000602082019050818103600083015261406281614026565b9050919050565b7f4f776e61626c653a2063616c6c6572206973206e6f7420746865206f776e6572600082015250565b600061409f602083613048565b91506140aa82614069565b602082019050919050565b600060208201905081810360008301526140ce81614092565b9050919050565b7f746f6b656e732061726520616c6c20636c61696d656400000000000000000000600082015250565b600061410b601683613048565b9150614116826140d5565b602082019050919050565b6000602082019050818103600083015261413a816140fe565b9050919050565b7f4552433732313a20617070726f766520746f2063616c6c657200000000000000600082015250565b6000614177601983613048565b915061418282614141565b602082019050919050565b600060208201905081810360008301526141a68161416a565b9050919050565b7f4552433732313a207472616e7366657220746f206e6f6e20455243373231526560008201527f63656976657220696d706c656d656e7465720000000000000000000000000000602082015250565b6000614209603283613048565b9150614214826141ad565b604082019050919050565b60006020820190508181036000830152614238816141fc565b9050919050565b600061424a826130ef565b9150614255836130ef565b925082614265576142646138a8565b5b828206905092915050565b600081519050919050565b600082825260208201905092915050565b600061429782614270565b6142a1818561427b565b93506142b1818560208601613059565b6142ba81613083565b840191505092915050565b60006080820190506142da6000830187613184565b6142e76020830186613184565b6142f4604083018561321a565b8181036060830152614306818461428c565b905095945050505050565b60008151905061432081612fae565b92915050565b60006020828403121561433c5761433b612f78565b5b600061434a84828501614311565b91505092915050565b7f4552433732313a206d696e7420746f20746865207a65726f2061646472657373600082015250565b6000614389602083613048565b915061439482614353565b602082019050919050565b600060208201905081810360008301526143b88161437c565b9050919050565b7f4552433732313a20746f6b656e20616c7265616479206d696e74656400000000600082015250565b60006143f5601c83613048565b9150614400826143bf565b602082019050919050565b60006020820190508181036000830152614424816143e8565b9050919050565b7f4e487b7100000000000000000000000000000000000000000000000000000000600052603160045260246000fdfea2646970667358221220c76c63e2ab5a8c3ee92b7f6c33f6622fd85796edd7b70ca264b53593ddb9bb5b64736f6c63430008110033",
  "linkReferences": {},
  "deployedLinkReferences": {}
}