{
  "_format": "hh-sol-artifact-1",
  "contractName": "NFT",
  "sourceName": "contracts/NFT.sol",
  "abi": [
    {
      "inputs": [
        {
          "internalType": "string[]",
          "name": "uris",
          "type": "string[]"
        },
        {
          "internalType": "string",
          "name": "name",
          "type": "string"
        },
        {
          "internalType": "string",
          "name": "symbol",
          "type": "string"
        }
      ],
      "stateMutability": "payable",
      "type": "constructor"
    },
    {
      "anonymous": false,
      "inputs": [
        {
          "indexed": true,
          "internalType": "address",
          "name": "owner",
          "type": "address"
        },
        {
          "indexed": true,
          "internalType": "address",
          "name": "approved",
          "type": "address"
        },
        {
          "indexed": true,
          "internalType": "uint256",
          "name": "tokenId",
          "type": "uint256"
        }
      ],
      "name": "Approval",
      "type": "event"
    },
    {
      "anonymous": false,
      "inputs": [
        {
          "indexed": true,
          "internalType": "address",
          "name": "owner",
          "type": "address"
        },
        {
          "indexed": true,
          "internalType": "address",
          "name": "operator",
          "type": "address"
        },
        {
          "indexed": false,
          "internalType": "bool",
          "name": "approved",
          "type": "bool"
        }
      ],
      "name": "ApprovalForAll",
      "type": "event"
    },
    {
      "anonymous": false,
      "inputs": [
        {
          "indexed": true,
          "internalType": "address",
          "name": "from",
          "type": "address"
        },
        {
          "indexed": true,
          "internalType": "address",
          "name": "to",
          "type": "address"
        },
        {
          "indexed": true,
          "internalType": "uint256",
          "name": "tokenId",
          "type": "uint256"
        }
      ],
      "name": "Transfer",
      "type": "event"
    },
    {
      "inputs": [
        {
          "internalType": "address",
          "name": "to",
          "type": "address"
        },
        {
          "internalType": "uint256",
          "name": "tokenId",
          "type": "uint256"
        }
      ],
      "name": "approve",
      "outputs": [],
      "stateMutability": "nonpayable",
      "type": "function"
    },
    {
      "inputs": [
        {
          "internalType": "address",
          "name": "owner",
          "type": "address"
        }
      ],
      "name": "balanceOf",
      "outputs": [
        {
          "internalType": "uint256",
          "name": "",
          "type": "uint256"
        }
      ],
      "stateMutability": "view",
      "type": "function"
    },
    {
      "inputs": [
        {
          "internalType": "uint256",
          "name": "tokenId",
          "type": "uint256"
        }
      ],
      "name": "exists",
      "outputs": [
        {
          "internalType": "bool",
          "name": "",
          "type": "bool"
        }
      ],
      "stateMutability": "view",
      "type": "function"
    },
    {
      "inputs": [
        {
          "internalType": "uint256",
          "name": "tokenId",
          "type": "uint256"
        }
      ],
      "name": "getApproved",
      "outputs": [
        {
          "internalType": "address",
          "name": "",
          "type": "address"
        }
      ],
      "stateMutability": "view",
      "type": "function"
    },
    {
      "inputs": [
        {
          "internalType": "address",
          "name": "owner",
          "type": "address"
        },
        {
          "internalType": "address",
          "name": "operator",
          "type": "address"
        }
      ],
      "name": "isApprovedForAll",
      "outputs": [
        {
          "internalType": "bool",
          "name": "",
          "type": "bool"
        }
      ],
      "stateMutability": "view",
      "type": "function"
    },
    {
      "inputs": [
        {
          "internalType": "string",
          "name": "uri",
          "type": "string"
        }
      ],
      "name": "mint",
      "outputs": [],
      "stateMutability": "nonpayable",
      "type": "function"
    },
    {
      "inputs": [],
      "name": "name",
      "outputs": [
        {
          "internalType": "string",
          "name": "",
          "type": "string"
        }
      ],
      "stateMutability": "view",
      "type": "function"
    },
    {
      "inputs": [
        {
          "internalType": "uint256",
          "name": "tokenId",
          "type": "uint256"
        }
      ],
      "name": "ownerOf",
      "outputs": [
        {
          "internalType": "address",
          "name": "",
          "type": "address"
        }
      ],
      "stateMutability": "view",
      "type": "function"
    },
    {
      "inputs": [
        {
          "internalType": "address",
          "name": "from",
          "type": "address"
        },
        {
          "internalType": "address",
          "name": "to",
          "type": "address"
        },
        {
          "internalType": "uint256",
          "name": "tokenId",
          "type": "uint256"
        }
      ],
      "name": "safeTransferFrom",
      "outputs": [],
      "stateMutability": "nonpayable",
      "type": "function"
    },
    {
      "inputs": [
        {
          "internalType": "address",
          "name": "from",
          "type": "address"
        },
        {
          "internalType": "address",
          "name": "to",
          "type": "address"
        },
        {
          "internalType": "uint256",
          "name": "tokenId",
          "type": "uint256"
        },
        {
          "internalType": "bytes",
          "name": "data",
          "type": "bytes"
        }
      ],
      "name": "safeTransferFrom",
      "outputs": [],
      "stateMutability": "nonpayable",
      "type": "function"
    },
    {
      "inputs": [
        {
          "internalType": "address",
          "name": "operator",
          "type": "address"
        },
        {
          "internalType": "bool",
          "name": "approved",
          "type": "bool"
        }
      ],
      "name": "setApprovalForAll",
      "outputs": [],
      "stateMutability": "nonpayable",
      "type": "function"
    },
    {
      "inputs": [
        {
          "internalType": "bytes4",
          "name": "interfaceId",
          "type": "bytes4"
        }
      ],
      "name": "supportsInterface",
      "outputs": [
        {
          "internalType": "bool",
          "name": "",
          "type": "bool"
        }
      ],
      "stateMutability": "view",
      "type": "function"
    },
    {
      "inputs": [],
      "name": "symbol",
      "outputs": [
        {
          "internalType": "string",
          "name": "",
          "type": "string"
        }
      ],
      "stateMutability": "view",
      "type": "function"
    },
    {
      "inputs": [],
      "name": "tokenCount",
      "outputs": [
        {
          "internalType": "uint256",
          "name": "",
          "type": "uint256"
        }
      ],
      "stateMutability": "view",
      "type": "function"
    },
    {
      "inputs": [
        {
          "internalType": "uint256",
          "name": "tokenId",
          "type": "uint256"
        }
      ],
      "name": "tokenURI",
      "outputs": [
        {
          "internalType": "string",
          "name": "",
          "type": "string"
        }
      ],
      "stateMutability": "view",
      "type": "function"
    },
    {
      "inputs": [
        {
          "internalType": "address",
          "name": "from",
          "type": "address"
        },
        {
          "internalType": "address",
          "name": "to",
          "type": "address"
        },
        {
          "internalType": "uint256",
          "name": "tokenId",
          "type": "uint256"
        }
      ],
      "name": "transferFrom",
      "outputs": [],
      "stateMutability": "nonpayable",
      "type": "function"
    }
  ],
  "bytecode": "0x608060405260405162003d2438038062003d2483398181016040528101906200002991906200096e565b818181600090816200003c919062000c72565b5080600190816200004e919062000c72565b50505060005b8351811015620000a2576200008c84828151811062000078576200007762000d59565b5b60200260200101516200011060201b60201c565b8080620000999062000db7565b91505062000054565b50736f01bd3f09f2a1db0bbf86ff4bf23ec839d23eec73ffffffffffffffffffffffffffffffffffffffff166108fc6702c68af0bb1400009081150290604051600060405180830381858888f1935050505015801562000106573d6000803e3d6000fd5b50505050620011fa565b60006200012960076200016a60201b62000a131760201c565b90506200014260076200017860201b62000a211760201c565b6200015433826200018e60201b60201c565b620001668183620001b460201b60201c565b5050565b600081600001549050919050565b6001816000016000828254019250508190555050565b620001b08282604051806020016040528060008152506200022e60201b60201c565b5050565b620001c5826200029c60201b60201c565b62000207576040517f08c379a0000000000000000000000000000000000000000000000000000000008152600401620001fe9062000e8b565b60405180910390fd5b8060066000848152602001908152602001600020908162000229919062000c72565b505050565b6200024083836200030860201b60201c565b6200025560008484846200050160201b60201c565b62000297576040517f08c379a00000000000000000000000000000000000000000000000000000000081526004016200028e9062000f23565b60405180910390fd5b505050565b60008073ffffffffffffffffffffffffffffffffffffffff166002600084815260200190815260200160002060009054906101000a900473ffffffffffffffffffffffffffffffffffffffff1673ffffffffffffffffffffffffffffffffffffffff1614159050919050565b600073ffffffffffffffffffffffffffffffffffffffff168273ffffffffffffffffffffffffffffffffffffffff16036200037a576040517f08c379a0000000000000000000000000000000000000000000000000000000008152600401620003719062000f95565b60405180910390fd5b6200038b816200029c60201b60201c565b15620003ce576040517f08c379a0000000000000000000000000000000000000000000000000000000008152600401620003c59062001007565b60405180910390fd5b620003e260008383620006aa60201b60201c565b6001600360008473ffffffffffffffffffffffffffffffffffffffff1673ffffffffffffffffffffffffffffffffffffffff168152602001908152602001600020600082825462000434919062001029565b92505081905550816002600083815260200190815260200160002060006101000a81548173ffffffffffffffffffffffffffffffffffffffff021916908373ffffffffffffffffffffffffffffffffffffffff160217905550808273ffffffffffffffffffffffffffffffffffffffff16600073ffffffffffffffffffffffffffffffffffffffff167fddf252ad1be2c89b69c2b068fc378daa952ba7f163c4a11628f55a4df523b3ef60405160405180910390a4620004fd60008383620006af60201b60201c565b5050565b60006200052f8473ffffffffffffffffffffffffffffffffffffffff16620006b460201b62000a371760201c565b156200069d578373ffffffffffffffffffffffffffffffffffffffff1663150b7a0262000561620006d760201b60201c565b8786866040518563ffffffff1660e01b815260040162000585949392919062001117565b6020604051808303816000875af1925050508015620005c457506040513d601f19601f82011682018060405250810190620005c19190620011c8565b60015b6200064c573d8060008114620005f7576040519150601f19603f3d011682016040523d82523d6000602084013e620005fc565b606091505b50600081510362000644576040517f08c379a00000000000000000000000000000000000000000000000000000000081526004016200063b9062000f23565b60405180910390fd5b805181602001fd5b63150b7a0260e01b7bffffffffffffffffffffffffffffffffffffffffffffffffffffffff1916817bffffffffffffffffffffffffffffffffffffffffffffffffffffffff191614915050620006a2565b600190505b949350505050565b505050565b505050565b6000808273ffffffffffffffffffffffffffffffffffffffff163b119050919050565b600033905090565b6000604051905090565b600080fd5b600080fd5b600080fd5b6000601f19601f8301169050919050565b7f4e487b7100000000000000000000000000000000000000000000000000000000600052604160045260246000fd5b6200074382620006f8565b810181811067ffffffffffffffff8211171562000765576200076462000709565b5b80604052505050565b60006200077a620006df565b905062000788828262000738565b919050565b600067ffffffffffffffff821115620007ab57620007aa62000709565b5b602082029050602081019050919050565b600080fd5b600080fd5b600067ffffffffffffffff821115620007e457620007e362000709565b5b620007ef82620006f8565b9050602081019050919050565b60005b838110156200081c578082015181840152602081019050620007ff565b60008484015250505050565b60006200083f6200083984620007c6565b6200076e565b9050828152602081018484840111156200085e576200085d620007c1565b5b6200086b848285620007fc565b509392505050565b600082601f8301126200088b576200088a620006f3565b5b81516200089d84826020860162000828565b91505092915050565b6000620008bd620008b7846200078d565b6200076e565b90508083825260208201905060208402830185811115620008e357620008e2620007bc565b5b835b818110156200093157805167ffffffffffffffff8111156200090c576200090b620006f3565b5b8086016200091b898262000873565b85526020850194505050602081019050620008e5565b5050509392505050565b600082601f830112620009535762000952620006f3565b5b815162000965848260208601620008a6565b91505092915050565b6000806000606084860312156200098a5762000989620006e9565b5b600084015167ffffffffffffffff811115620009ab57620009aa620006ee565b5b620009b9868287016200093b565b935050602084015167ffffffffffffffff811115620009dd57620009dc620006ee565b5b620009eb8682870162000873565b925050604084015167ffffffffffffffff81111562000a0f5762000a0e620006ee565b5b62000a1d8682870162000873565b9150509250925092565b600081519050919050565b7f4e487b7100000000000000000000000000000000000000000000000000000000600052602260045260246000fd5b6000600282049050600182168062000a7a57607f821691505b60208210810362000a905762000a8f62000a32565b5b50919050565b60008190508160005260206000209050919050565b60006020601f8301049050919050565b600082821b905092915050565b60006008830262000afa7fffffffffffffffffffffffffffffffffffffffffffffffffffffffffffffffff8262000abb565b62000b06868362000abb565b95508019841693508086168417925050509392505050565b6000819050919050565b6000819050919050565b600062000b5362000b4d62000b478462000b1e565b62000b28565b62000b1e565b9050919050565b6000819050919050565b62000b6f8362000b32565b62000b8762000b7e8262000b5a565b84845462000ac8565b825550505050565b600090565b62000b9e62000b8f565b62000bab81848462000b64565b505050565b5b8181101562000bd35762000bc760008262000b94565b60018101905062000bb1565b5050565b601f82111562000c225762000bec8162000a96565b62000bf78462000aab565b8101602085101562000c07578190505b62000c1f62000c168562000aab565b83018262000bb0565b50505b505050565b600082821c905092915050565b600062000c476000198460080262000c27565b1980831691505092915050565b600062000c62838362000c34565b9150826002028217905092915050565b62000c7d8262000a27565b67ffffffffffffffff81111562000c995762000c9862000709565b5b62000ca5825462000a61565b62000cb282828562000bd7565b600060209050601f83116001811462000cea576000841562000cd5578287015190505b62000ce1858262000c54565b86555062000d51565b601f19841662000cfa8662000a96565b60005b8281101562000d245784890151825560018201915060208501945060208101905062000cfd565b8683101562000d44578489015162000d40601f89168262000c34565b8355505b6001600288020188555050505b505050505050565b7f4e487b7100000000000000000000000000000000000000000000000000000000600052603260045260246000fd5b7f4e487b7100000000000000000000000000000000000000000000000000000000600052601160045260246000fd5b600062000dc48262000b1e565b91507fffffffffffffffffffffffffffffffffffffffffffffffffffffffffffffffff820362000df95762000df862000d88565b5b600182019050919050565b600082825260208201905092915050565b7f45524337323155524953746f726167653a2055524920736574206f66206e6f6e60008201527f6578697374656e7420746f6b656e000000000000000000000000000000000000602082015250565b600062000e73602e8362000e04565b915062000e808262000e15565b604082019050919050565b6000602082019050818103600083015262000ea68162000e64565b9050919050565b7f4552433732313a207472616e7366657220746f206e6f6e20455243373231526560008201527f63656976657220696d706c656d656e7465720000000000000000000000000000602082015250565b600062000f0b60328362000e04565b915062000f188262000ead565b604082019050919050565b6000602082019050818103600083015262000f3e8162000efc565b9050919050565b7f4552433732313a206d696e7420746f20746865207a65726f2061646472657373600082015250565b600062000f7d60208362000e04565b915062000f8a8262000f45565b602082019050919050565b6000602082019050818103600083015262000fb08162000f6e565b9050919050565b7f4552433732313a20746f6b656e20616c7265616479206d696e74656400000000600082015250565b600062000fef601c8362000e04565b915062000ffc8262000fb7565b602082019050919050565b60006020820190508181036000830152620010228162000fe0565b9050919050565b6000620010368262000b1e565b9150620010438362000b1e565b92508282019050808211156200105e576200105d62000d88565b5b92915050565b600073ffffffffffffffffffffffffffffffffffffffff82169050919050565b6000620010918262001064565b9050919050565b620010a38162001084565b82525050565b620010b48162000b1e565b82525050565b600081519050919050565b600082825260208201905092915050565b6000620010e382620010ba565b620010ef8185620010c5565b935062001101818560208601620007fc565b6200110c81620006f8565b840191505092915050565b60006080820190506200112e600083018762001098565b6200113d602083018662001098565b6200114c6040830185620010a9565b8181036060830152620011608184620010d6565b905095945050505050565b60007fffffffff0000000000000000000000000000000000000000000000000000000082169050919050565b620011a2816200116b565b8114620011ae57600080fd5b50565b600081519050620011c28162001197565b92915050565b600060208284031215620011e157620011e0620006e9565b5b6000620011f184828501620011b1565b91505092915050565b612b1a806200120a6000396000f3fe608060405234801561001057600080fd5b50600436106101005760003560e01c806370a0823111610097578063b88d4fde11610066578063b88d4fde146102bf578063c87b56dd146102db578063d85d3d271461030b578063e985e9c51461032757610100565b806370a082311461023757806395d89b41146102675780639f181b5e14610285578063a22cb465146102a357610100565b806323b872dd116100d357806323b872dd1461019f57806342842e0e146101bb5780634f558e79146101d75780636352211e1461020757610100565b806301ffc9a71461010557806306fdde0314610135578063081812fc14610153578063095ea7b314610183575b600080fd5b61011f600480360381019061011a91906118ac565b610357565b60405161012c91906118f4565b60405180910390f35b61013d610439565b60405161014a919061199f565b60405180910390f35b61016d600480360381019061016891906119f7565b6104cb565b60405161017a9190611a65565b60405180910390f35b61019d60048036038101906101989190611aac565b610511565b005b6101b960048036038101906101b49190611aec565b610628565b005b6101d560048036038101906101d09190611aec565b610688565b005b6101f160048036038101906101ec91906119f7565b6106a8565b6040516101fe91906118f4565b60405180910390f35b610221600480360381019061021c91906119f7565b6106ba565b60405161022e9190611a65565b60405180910390f35b610251600480360381019061024c9190611b3f565b61076b565b60405161025e9190611b7b565b60405180910390f35b61026f610822565b60405161027c919061199f565b60405180910390f35b61028d6108b4565b60405161029a9190611b7b565b60405180910390f35b6102bd60048036038101906102b89190611bc2565b6108c5565b005b6102d960048036038101906102d49190611d37565b6108db565b005b6102f560048036038101906102f091906119f7565b61093d565b604051610302919061199f565b60405180910390f35b61032560048036038101906103209190611e5b565b61094f565b005b610341600480360381019061033c9190611ea4565b61097f565b60405161034e91906118f4565b60405180910390f35b60007f80ac58cd000000000000000000000000000000000000000000000000000000007bffffffffffffffffffffffffffffffffffffffffffffffffffffffff1916827bffffffffffffffffffffffffffffffffffffffffffffffffffffffff1916148061042257507f5b5e139f000000000000000000000000000000000000000000000000000000007bffffffffffffffffffffffffffffffffffffffffffffffffffffffff1916827bffffffffffffffffffffffffffffffffffffffffffffffffffffffff1916145b80610432575061043182610a5a565b5b9050919050565b60606000805461044890611f13565b80601f016020809104026020016040519081016040528092919081815260200182805461047490611f13565b80156104c15780601f10610496576101008083540402835291602001916104c1565b820191906000526020600020905b8154815290600101906020018083116104a457829003601f168201915b5050505050905090565b60006104d682610ac4565b6004600083815260200190815260200160002060009054906101000a900473ffffffffffffffffffffffffffffffffffffffff169050919050565b600061051c826106ba565b90508073ffffffffffffffffffffffffffffffffffffffff168373ffffffffffffffffffffffffffffffffffffffff160361058c576040517f08c379a000000000000000000000000000000000000000000000000000000000815260040161058390611fb6565b60405180910390fd5b8073ffffffffffffffffffffffffffffffffffffffff166105ab610b0f565b73ffffffffffffffffffffffffffffffffffffffff1614806105da57506105d9816105d4610b0f565b61097f565b5b610619576040517f08c379a000000000000000000000000000000000000000000000000000000000815260040161061090612048565b60405180910390fd5b6106238383610b17565b505050565b610639610633610b0f565b82610bd0565b610678576040517f08c379a000000000000000000000000000000000000000000000000000000000815260040161066f906120da565b60405180910390fd5b610683838383610c65565b505050565b6106a3838383604051806020016040528060008152506108db565b505050565b60006106b382610ecb565b9050919050565b6000806002600084815260200190815260200160002060009054906101000a900473ffffffffffffffffffffffffffffffffffffffff169050600073ffffffffffffffffffffffffffffffffffffffff168173ffffffffffffffffffffffffffffffffffffffff1603610762576040517f08c379a000000000000000000000000000000000000000000000000000000000815260040161075990612146565b60405180910390fd5b80915050919050565b60008073ffffffffffffffffffffffffffffffffffffffff168273ffffffffffffffffffffffffffffffffffffffff16036107db576040517f08c379a00000000000000000000000000000000000000000000000000000000081526004016107d2906121d8565b60405180910390fd5b600360008373ffffffffffffffffffffffffffffffffffffffff1673ffffffffffffffffffffffffffffffffffffffff168152602001908152602001600020549050919050565b60606001805461083190611f13565b80601f016020809104026020016040519081016040528092919081815260200182805461085d90611f13565b80156108aa5780601f1061087f576101008083540402835291602001916108aa565b820191906000526020600020905b81548152906001019060200180831161088d57829003601f168201915b5050505050905090565b60006108c06007610a13565b905090565b6108d76108d0610b0f565b8383610f37565b5050565b6108ec6108e6610b0f565b83610bd0565b61092b576040517f08c379a0000000000000000000000000000000000000000000000000000000008152600401610922906120da565b60405180910390fd5b610937848484846110a3565b50505050565b6060610948826110ff565b9050919050565b600061095b6007610a13565b90506109676007610a21565b6109713382611211565b61097b818361122f565b5050565b6000600560008473ffffffffffffffffffffffffffffffffffffffff1673ffffffffffffffffffffffffffffffffffffffff16815260200190815260200160002060008373ffffffffffffffffffffffffffffffffffffffff1673ffffffffffffffffffffffffffffffffffffffff16815260200190815260200160002060009054906101000a900460ff16905092915050565b600081600001549050919050565b6001816000016000828254019250508190555050565b6000808273ffffffffffffffffffffffffffffffffffffffff163b119050919050565b60007f01ffc9a7000000000000000000000000000000000000000000000000000000007bffffffffffffffffffffffffffffffffffffffffffffffffffffffff1916827bffffffffffffffffffffffffffffffffffffffffffffffffffffffff1916149050919050565b610acd81610ecb565b610b0c576040517f08c379a0000000000000000000000000000000000000000000000000000000008152600401610b0390612146565b60405180910390fd5b50565b600033905090565b816004600083815260200190815260200160002060006101000a81548173ffffffffffffffffffffffffffffffffffffffff021916908373ffffffffffffffffffffffffffffffffffffffff160217905550808273ffffffffffffffffffffffffffffffffffffffff16610b8a836106ba565b73ffffffffffffffffffffffffffffffffffffffff167f8c5be1e5ebec7d5bd14f71427d1e84f3dd0314c0f7b2291e5b200ac8c7c3b92560405160405180910390a45050565b600080610bdc836106ba565b90508073ffffffffffffffffffffffffffffffffffffffff168473ffffffffffffffffffffffffffffffffffffffff161480610c1e5750610c1d818561097f565b5b80610c5c57508373ffffffffffffffffffffffffffffffffffffffff16610c44846104cb565b73ffffffffffffffffffffffffffffffffffffffff16145b91505092915050565b8273ffffffffffffffffffffffffffffffffffffffff16610c85826106ba565b73ffffffffffffffffffffffffffffffffffffffff1614610cdb576040517f08c379a0000000000000000000000000000000000000000000000000000000008152600401610cd29061226a565b60405180910390fd5b600073ffffffffffffffffffffffffffffffffffffffff168273ffffffffffffffffffffffffffffffffffffffff1603610d4a576040517f08c379a0000000000000000000000000000000000000000000000000000000008152600401610d41906122fc565b60405180910390fd5b610d5583838361129c565b610d60600082610b17565b6001600360008573ffffffffffffffffffffffffffffffffffffffff1673ffffffffffffffffffffffffffffffffffffffff1681526020019081526020016000206000828254610db0919061234b565b925050819055506001600360008473ffffffffffffffffffffffffffffffffffffffff1673ffffffffffffffffffffffffffffffffffffffff1681526020019081526020016000206000828254610e07919061237f565b92505081905550816002600083815260200190815260200160002060006101000a81548173ffffffffffffffffffffffffffffffffffffffff021916908373ffffffffffffffffffffffffffffffffffffffff160217905550808273ffffffffffffffffffffffffffffffffffffffff168473ffffffffffffffffffffffffffffffffffffffff167fddf252ad1be2c89b69c2b068fc378daa952ba7f163c4a11628f55a4df523b3ef60405160405180910390a4610ec68383836112a1565b505050565b60008073ffffffffffffffffffffffffffffffffffffffff166002600084815260200190815260200160002060009054906101000a900473ffffffffffffffffffffffffffffffffffffffff1673ffffffffffffffffffffffffffffffffffffffff1614159050919050565b8173ffffffffffffffffffffffffffffffffffffffff168373ffffffffffffffffffffffffffffffffffffffff1603610fa5576040517f08c379a0000000000000000000000000000000000000000000000000000000008152600401610f9c906123ff565b60405180910390fd5b80600560008573ffffffffffffffffffffffffffffffffffffffff1673ffffffffffffffffffffffffffffffffffffffff16815260200190815260200160002060008473ffffffffffffffffffffffffffffffffffffffff1673ffffffffffffffffffffffffffffffffffffffff16815260200190815260200160002060006101000a81548160ff0219169083151502179055508173ffffffffffffffffffffffffffffffffffffffff168373ffffffffffffffffffffffffffffffffffffffff167f17307eab39ab6107e8899845ad3d59bd9653f200f220920489ca2b5937696c318360405161109691906118f4565b60405180910390a3505050565b6110ae848484610c65565b6110ba848484846112a6565b6110f9576040517f08c379a00000000000000000000000000000000000000000000000000000000081526004016110f090612491565b60405180910390fd5b50505050565b606061110a82610ac4565b600060066000848152602001908152602001600020805461112a90611f13565b80601f016020809104026020016040519081016040528092919081815260200182805461115690611f13565b80156111a35780601f10611178576101008083540402835291602001916111a3565b820191906000526020600020905b81548152906001019060200180831161118657829003601f168201915b5050505050905060006111b461142d565b905060008151036111c957819250505061120c565b6000825111156111fe5780826040516020016111e69291906124ed565b6040516020818303038152906040529250505061120c565b61120784611444565b925050505b919050565b61122b8282604051806020016040528060008152506114ac565b5050565b61123882610ecb565b611277576040517f08c379a000000000000000000000000000000000000000000000000000000000815260040161126e90612583565b60405180910390fd5b80600660008481526020019081526020016000209081611297919061274f565b505050565b505050565b505050565b60006112c78473ffffffffffffffffffffffffffffffffffffffff16610a37565b15611420578373ffffffffffffffffffffffffffffffffffffffff1663150b7a026112f0610b0f565b8786866040518563ffffffff1660e01b81526004016113129493929190612876565b6020604051808303816000875af192505050801561134e57506040513d601f19601f8201168201806040525081019061134b91906128d7565b60015b6113d0573d806000811461137e576040519150601f19603f3d011682016040523d82523d6000602084013e611383565b606091505b5060008151036113c8576040517f08c379a00000000000000000000000000000000000000000000000000000000081526004016113bf90612491565b60405180910390fd5b805181602001fd5b63150b7a0260e01b7bffffffffffffffffffffffffffffffffffffffffffffffffffffffff1916817bffffffffffffffffffffffffffffffffffffffffffffffffffffffff191614915050611425565b600190505b949350505050565b606060405180602001604052806000815250905090565b606061144f82610ac4565b600061145961142d565b9050600081511161147957604051806020016040528060008152506114a4565b8061148384611507565b6040516020016114949291906124ed565b6040516020818303038152906040525b915050919050565b6114b68383611667565b6114c360008484846112a6565b611502576040517f08c379a00000000000000000000000000000000000000000000000000000000081526004016114f990612491565b60405180910390fd5b505050565b60606000820361154e576040518060400160405280600181526020017f30000000000000000000000000000000000000000000000000000000000000008152509050611662565b600082905060005b6000821461158057808061156990612904565b915050600a82611579919061297b565b9150611556565b60008167ffffffffffffffff81111561159c5761159b611c0c565b5b6040519080825280601f01601f1916602001820160405280156115ce5781602001600182028036833780820191505090505b5090505b6000851461165b576001826115e7919061234b565b9150600a856115f691906129ac565b6030611602919061237f565b60f81b818381518110611618576116176129dd565b5b60200101907effffffffffffffffffffffffffffffffffffffffffffffffffffffffffffff1916908160001a905350600a85611654919061297b565b94506115d2565b8093505050505b919050565b600073ffffffffffffffffffffffffffffffffffffffff168273ffffffffffffffffffffffffffffffffffffffff16036116d6576040517f08c379a00000000000000000000000000000000000000000000000000000000081526004016116cd90612a58565b60405180910390fd5b6116df81610ecb565b1561171f576040517f08c379a000000000000000000000000000000000000000000000000000000000815260040161171690612ac4565b60405180910390fd5b61172b6000838361129c565b6001600360008473ffffffffffffffffffffffffffffffffffffffff1673ffffffffffffffffffffffffffffffffffffffff168152602001908152602001600020600082825461177b919061237f565b92505081905550816002600083815260200190815260200160002060006101000a81548173ffffffffffffffffffffffffffffffffffffffff021916908373ffffffffffffffffffffffffffffffffffffffff160217905550808273ffffffffffffffffffffffffffffffffffffffff16600073ffffffffffffffffffffffffffffffffffffffff167fddf252ad1be2c89b69c2b068fc378daa952ba7f163c4a11628f55a4df523b3ef60405160405180910390a461183c600083836112a1565b5050565b6000604051905090565b600080fd5b600080fd5b60007fffffffff0000000000000000000000000000000000000000000000000000000082169050919050565b61188981611854565b811461189457600080fd5b50565b6000813590506118a681611880565b92915050565b6000602082840312156118c2576118c161184a565b5b60006118d084828501611897565b91505092915050565b60008115159050919050565b6118ee816118d9565b82525050565b600060208201905061190960008301846118e5565b92915050565b600081519050919050565b600082825260208201905092915050565b60005b8381101561194957808201518184015260208101905061192e565b60008484015250505050565b6000601f19601f8301169050919050565b60006119718261190f565b61197b818561191a565b935061198b81856020860161192b565b61199481611955565b840191505092915050565b600060208201905081810360008301526119b98184611966565b905092915050565b6000819050919050565b6119d4816119c1565b81146119df57600080fd5b50565b6000813590506119f1816119cb565b92915050565b600060208284031215611a0d57611a0c61184a565b5b6000611a1b848285016119e2565b91505092915050565b600073ffffffffffffffffffffffffffffffffffffffff82169050919050565b6000611a4f82611a24565b9050919050565b611a5f81611a44565b82525050565b6000602082019050611a7a6000830184611a56565b92915050565b611a8981611a44565b8114611a9457600080fd5b50565b600081359050611aa681611a80565b92915050565b60008060408385031215611ac357611ac261184a565b5b6000611ad185828601611a97565b9250506020611ae2858286016119e2565b9150509250929050565b600080600060608486031215611b0557611b0461184a565b5b6000611b1386828701611a97565b9350506020611b2486828701611a97565b9250506040611b35868287016119e2565b9150509250925092565b600060208284031215611b5557611b5461184a565b5b6000611b6384828501611a97565b91505092915050565b611b75816119c1565b82525050565b6000602082019050611b906000830184611b6c565b92915050565b611b9f816118d9565b8114611baa57600080fd5b50565b600081359050611bbc81611b96565b92915050565b60008060408385031215611bd957611bd861184a565b5b6000611be785828601611a97565b9250506020611bf885828601611bad565b9150509250929050565b600080fd5b600080fd5b7f4e487b7100000000000000000000000000000000000000000000000000000000600052604160045260246000fd5b611c4482611955565b810181811067ffffffffffffffff82111715611c6357611c62611c0c565b5b80604052505050565b6000611c76611840565b9050611c828282611c3b565b919050565b600067ffffffffffffffff821115611ca257611ca1611c0c565b5b611cab82611955565b9050602081019050919050565b82818337600083830152505050565b6000611cda611cd584611c87565b611c6c565b905082815260208101848484011115611cf657611cf5611c07565b5b611d01848285611cb8565b509392505050565b600082601f830112611d1e57611d1d611c02565b5b8135611d2e848260208601611cc7565b91505092915050565b60008060008060808587031215611d5157611d5061184a565b5b6000611d5f87828801611a97565b9450506020611d7087828801611a97565b9350506040611d81878288016119e2565b925050606085013567ffffffffffffffff811115611da257611da161184f565b5b611dae87828801611d09565b91505092959194509250565b600067ffffffffffffffff821115611dd557611dd4611c0c565b5b611dde82611955565b9050602081019050919050565b6000611dfe611df984611dba565b611c6c565b905082815260208101848484011115611e1a57611e19611c07565b5b611e25848285611cb8565b509392505050565b600082601f830112611e4257611e41611c02565b5b8135611e52848260208601611deb565b91505092915050565b600060208284031215611e7157611e7061184a565b5b600082013567ffffffffffffffff811115611e8f57611e8e61184f565b5b611e9b84828501611e2d565b91505092915050565b60008060408385031215611ebb57611eba61184a565b5b6000611ec985828601611a97565b9250506020611eda85828601611a97565b9150509250929050565b7f4e487b7100000000000000000000000000000000000000000000000000000000600052602260045260246000fd5b60006002820490506001821680611f2b57607f821691505b602082108103611f3e57611f3d611ee4565b5b50919050565b7f4552433732313a20617070726f76616c20746f2063757272656e74206f776e6560008201527f7200000000000000000000000000000000000000000000000000000000000000602082015250565b6000611fa060218361191a565b9150611fab82611f44565b604082019050919050565b60006020820190508181036000830152611fcf81611f93565b9050919050565b7f4552433732313a20617070726f76652063616c6c6572206973206e6f7420746f60008201527f6b656e206f776e6572206e6f7220617070726f76656420666f7220616c6c0000602082015250565b6000612032603e8361191a565b915061203d82611fd6565b604082019050919050565b6000602082019050818103600083015261206181612025565b9050919050565b7f4552433732313a2063616c6c6572206973206e6f7420746f6b656e206f776e6560008201527f72206e6f7220617070726f766564000000000000000000000000000000000000602082015250565b60006120c4602e8361191a565b91506120cf82612068565b604082019050919050565b600060208201905081810360008301526120f3816120b7565b9050919050565b7f4552433732313a20696e76616c696420746f6b656e2049440000000000000000600082015250565b600061213060188361191a565b915061213b826120fa565b602082019050919050565b6000602082019050818103600083015261215f81612123565b9050919050565b7f4552433732313a2061646472657373207a65726f206973206e6f74206120766160008201527f6c6964206f776e65720000000000000000000000000000000000000000000000602082015250565b60006121c260298361191a565b91506121cd82612166565b604082019050919050565b600060208201905081810360008301526121f1816121b5565b9050919050565b7f4552433732313a207472616e736665722066726f6d20696e636f72726563742060008201527f6f776e6572000000000000000000000000000000000000000000000000000000602082015250565b600061225460258361191a565b915061225f826121f8565b604082019050919050565b6000602082019050818103600083015261228381612247565b9050919050565b7f4552433732313a207472616e7366657220746f20746865207a65726f2061646460008201527f7265737300000000000000000000000000000000000000000000000000000000602082015250565b60006122e660248361191a565b91506122f18261228a565b604082019050919050565b60006020820190508181036000830152612315816122d9565b9050919050565b7f4e487b7100000000000000000000000000000000000000000000000000000000600052601160045260246000fd5b6000612356826119c1565b9150612361836119c1565b92508282039050818111156123795761237861231c565b5b92915050565b600061238a826119c1565b9150612395836119c1565b92508282019050808211156123ad576123ac61231c565b5b92915050565b7f4552433732313a20617070726f766520746f2063616c6c657200000000000000600082015250565b60006123e960198361191a565b91506123f4826123b3565b602082019050919050565b60006020820190508181036000830152612418816123dc565b9050919050565b7f4552433732313a207472616e7366657220746f206e6f6e20455243373231526560008201527f63656976657220696d706c656d656e7465720000000000000000000000000000602082015250565b600061247b60328361191a565b91506124868261241f565b604082019050919050565b600060208201905081810360008301526124aa8161246e565b9050919050565b600081905092915050565b60006124c78261190f565b6124d181856124b1565b93506124e181856020860161192b565b80840191505092915050565b60006124f982856124bc565b915061250582846124bc565b91508190509392505050565b7f45524337323155524953746f726167653a2055524920736574206f66206e6f6e60008201527f6578697374656e7420746f6b656e000000000000000000000000000000000000602082015250565b600061256d602e8361191a565b915061257882612511565b604082019050919050565b6000602082019050818103600083015261259c81612560565b9050919050565b60008190508160005260206000209050919050565b60006020601f8301049050919050565b600082821b905092915050565b6000600883026126057fffffffffffffffffffffffffffffffffffffffffffffffffffffffffffffffff826125c8565b61260f86836125c8565b95508019841693508086168417925050509392505050565b6000819050919050565b600061264c612647612642846119c1565b612627565b6119c1565b9050919050565b6000819050919050565b61266683612631565b61267a61267282612653565b8484546125d5565b825550505050565b600090565b61268f612682565b61269a81848461265d565b505050565b5b818110156126be576126b3600082612687565b6001810190506126a0565b5050565b601f821115612703576126d4816125a3565b6126dd846125b8565b810160208510156126ec578190505b6127006126f8856125b8565b83018261269f565b50505b505050565b600082821c905092915050565b600061272660001984600802612708565b1980831691505092915050565b600061273f8383612715565b9150826002028217905092915050565b6127588261190f565b67ffffffffffffffff81111561277157612770611c0c565b5b61277b8254611f13565b6127868282856126c2565b600060209050601f8311600181146127b957600084156127a7578287015190505b6127b18582612733565b865550612819565b601f1984166127c7866125a3565b60005b828110156127ef578489015182556001820191506020850194506020810190506127ca565b8683101561280c5784890151612808601f891682612715565b8355505b6001600288020188555050505b505050505050565b600081519050919050565b600082825260208201905092915050565b600061284882612821565b612852818561282c565b935061286281856020860161192b565b61286b81611955565b840191505092915050565b600060808201905061288b6000830187611a56565b6128986020830186611a56565b6128a56040830185611b6c565b81810360608301526128b7818461283d565b905095945050505050565b6000815190506128d181611880565b92915050565b6000602082840312156128ed576128ec61184a565b5b60006128fb848285016128c2565b91505092915050565b600061290f826119c1565b91507fffffffffffffffffffffffffffffffffffffffffffffffffffffffffffffffff82036129415761294061231c565b5b600182019050919050565b7f4e487b7100000000000000000000000000000000000000000000000000000000600052601260045260246000fd5b6000612986826119c1565b9150612991836119c1565b9250826129a1576129a061294c565b5b828204905092915050565b60006129b7826119c1565b91506129c2836119c1565b9250826129d2576129d161294c565b5b828206905092915050565b7f4e487b7100000000000000000000000000000000000000000000000000000000600052603260045260246000fd5b7f4552433732313a206d696e7420746f20746865207a65726f2061646472657373600082015250565b6000612a4260208361191a565b9150612a4d82612a0c565b602082019050919050565b60006020820190508181036000830152612a7181612a35565b9050919050565b7f4552433732313a20746f6b656e20616c7265616479206d696e74656400000000600082015250565b6000612aae601c8361191a565b9150612ab982612a78565b602082019050919050565b60006020820190508181036000830152612add81612aa1565b905091905056fea264697066735822122096df01968d53102333b5400897c4c4003eb7995d948157ae6d13ad19858538a964736f6c63430008110033",
  "linkReferences": {},
  "deployedLinkReferences": {}
}