{
    "_format": "hh-sol-artifact-1",
    "contractName": "MyToken",
    "sourceName": "contracts/NFT_with_presale.sol",
    "abi": [
        {
            "inputs": [
                {
                    "internalType": "string",
                    "name": "_baseUri",
                    "type": "string"
                },
                {
                    "internalType": "string",
                    "name": "name",
                    "type": "string"
                },
                {
                    "internalType": "string",
                    "name": "symbol",
                    "type": "string"
                },
                {
                    "internalType": "uint256",
                    "name": "_maxSupply",
                    "type": "uint256"
                },
                {
                    "internalType": "uint256",
                    "name": "_mintPrice",
                    "type": "uint256"
                },
                {
                    "internalType": "uint256",
                    "name": "_startAt",
                    "type": "uint256"
                },
                {
                    "internalType": "uint256",
                    "name": "_endAt",
                    "type": "uint256"
                },
                {
                    "internalType": "uint256",
                    "name": "_presaleFee",
                    "type": "uint256"
                },
                {
                    "internalType": "uint256",
                    "name": "_presaleMaxPerWallet",
                    "type": "uint256"
                },
                {
                    "internalType": "uint256",
                    "name": "_presaleSoftCap",
                    "type": "uint256"
                },
                {
                    "internalType": "uint256",
                    "name": "_presalePlatformCutPercentage",
                    "type": "uint256"
                }
            ],
            "stateMutability": "payable",
            "type": "constructor"
        },
        {
            "anonymous": false,
            "inputs": [
                {
                    "indexed": true,
                    "internalType": "address",
                    "name": "owner",
                    "type": "address"
                },
                {
                    "indexed": true,
                    "internalType": "address",
                    "name": "approved",
                    "type": "address"
                },
                {
                    "indexed": true,
                    "internalType": "uint256",
                    "name": "tokenId",
                    "type": "uint256"
                }
            ],
            "name": "Approval",
            "type": "event"
        },
        {
            "anonymous": false,
            "inputs": [
                {
                    "indexed": true,
                    "internalType": "address",
                    "name": "owner",
                    "type": "address"
                },
                {
                    "indexed": true,
                    "internalType": "address",
                    "name": "operator",
                    "type": "address"
                },
                {
                    "indexed": false,
                    "internalType": "bool",
                    "name": "approved",
                    "type": "bool"
                }
            ],
            "name": "ApprovalForAll",
            "type": "event"
        },
        {
            "anonymous": false,
            "inputs": [
                {
                    "indexed": true,
                    "internalType": "address",
                    "name": "previousOwner",
                    "type": "address"
                },
                {
                    "indexed": true,
                    "internalType": "address",
                    "name": "newOwner",
                    "type": "address"
                }
            ],
            "name": "OwnershipTransferred",
            "type": "event"
        },
        {
            "anonymous": false,
            "inputs": [
                {
                    "indexed": true,
                    "internalType": "address",
                    "name": "from",
                    "type": "address"
                },
                {
                    "indexed": true,
                    "internalType": "address",
                    "name": "to",
                    "type": "address"
                },
                {
                    "indexed": true,
                    "internalType": "uint256",
                    "name": "tokenId",
                    "type": "uint256"
                }
            ],
            "name": "Transfer",
            "type": "event"
        },
        {
            "inputs": [
                {
                    "internalType": "address",
                    "name": "to",
                    "type": "address"
                },
                {
                    "internalType": "uint256",
                    "name": "tokenId",
                    "type": "uint256"
                }
            ],
            "name": "approve",
            "outputs": [],
            "stateMutability": "nonpayable",
            "type": "function"
        },
        {
            "inputs": [
                {
                    "internalType": "address",
                    "name": "owner",
                    "type": "address"
                }
            ],
            "name": "balanceOf",
            "outputs": [
                {
                    "internalType": "uint256",
                    "name": "",
                    "type": "uint256"
                }
            ],
            "stateMutability": "view",
            "type": "function"
        },
        {
            "inputs": [],
            "name": "baseUri",
            "outputs": [
                {
                    "internalType": "string",
                    "name": "",
                    "type": "string"
                }
            ],
            "stateMutability": "view",
            "type": "function"
        },
        {
            "inputs": [
                {
                    "internalType": "uint256",
                    "name": "tokenId",
                    "type": "uint256"
                }
            ],
            "name": "burn",
            "outputs": [],
            "stateMutability": "nonpayable",
            "type": "function"
        },
        {
            "inputs": [],
            "name": "claim",
            "outputs": [],
            "stateMutability": "nonpayable",
            "type": "function"
        },
        {
            "inputs": [],
            "name": "dump",
            "outputs": [],
            "stateMutability": "nonpayable",
            "type": "function"
        },
        {
            "inputs": [],
            "name": "emergencyWithdraw",
            "outputs": [],
            "stateMutability": "nonpayable",
            "type": "function"
        },
        {
            "inputs": [],
            "name": "emergencyWithdrawProfit",
            "outputs": [
                {
                    "internalType": "uint256",
                    "name": "",
                    "type": "uint256"
                }
            ],
            "stateMutability": "view",
            "type": "function"
        },
        {
            "inputs": [
                {
                    "internalType": "uint256",
                    "name": "tokenId",
                    "type": "uint256"
                }
            ],
            "name": "getApproved",
            "outputs": [
                {
                    "internalType": "address",
                    "name": "",
                    "type": "address"
                }
            ],
            "stateMutability": "view",
            "type": "function"
        },
        {
            "inputs": [
                {
                    "internalType": "address",
                    "name": "wallet",
                    "type": "address"
                }
            ],
            "name": "getOrders",
            "outputs": [
                {
                    "internalType": "uint256[]",
                    "name": "arr",
                    "type": "uint256[]"
                }
            ],
            "stateMutability": "view",
            "type": "function"
        },
        {
            "inputs": [],
            "name": "handlePresaleEnd",
            "outputs": [],
            "stateMutability": "nonpayable",
            "type": "function"
        },
        {
            "inputs": [
                {
                    "internalType": "address",
                    "name": "owner",
                    "type": "address"
                },
                {
                    "internalType": "address",
                    "name": "operator",
                    "type": "address"
                }
            ],
            "name": "isApprovedForAll",
            "outputs": [
                {
                    "internalType": "bool",
                    "name": "",
                    "type": "bool"
                }
            ],
            "stateMutability": "view",
            "type": "function"
        },
        {
            "inputs": [],
            "name": "maxSupply",
            "outputs": [
                {
                    "internalType": "uint256",
                    "name": "",
                    "type": "uint256"
                }
            ],
            "stateMutability": "view",
            "type": "function"
        },
        {
            "inputs": [],
            "name": "mint",
            "outputs": [],
            "stateMutability": "payable",
            "type": "function"
        },
        {
            "inputs": [],
            "name": "mintPrice",
            "outputs": [
                {
                    "internalType": "uint256",
                    "name": "",
                    "type": "uint256"
                }
            ],
            "stateMutability": "view",
            "type": "function"
        },
        {
            "inputs": [],
            "name": "name",
            "outputs": [
                {
                    "internalType": "string",
                    "name": "",
                    "type": "string"
                }
            ],
            "stateMutability": "view",
            "type": "function"
        },
        {
            "inputs": [
                {
                    "internalType": "address",
                    "name": "",
                    "type": "address"
                }
            ],
            "name": "orderedTokens",
            "outputs": [
                {
                    "internalType": "uint256",
                    "name": "",
                    "type": "uint256"
                }
            ],
            "stateMutability": "view",
            "type": "function"
        },
        {
            "inputs": [],
            "name": "owner",
            "outputs": [
                {
                    "internalType": "address",
                    "name": "",
                    "type": "address"
                }
            ],
            "stateMutability": "view",
            "type": "function"
        },
        {
            "inputs": [
                {
                    "internalType": "uint256",
                    "name": "tokenId",
                    "type": "uint256"
                }
            ],
            "name": "ownerOf",
            "outputs": [
                {
                    "internalType": "address",
                    "name": "",
                    "type": "address"
                }
            ],
            "stateMutability": "view",
            "type": "function"
        },
        {
            "inputs": [],
            "name": "paused",
            "outputs": [
                {
                    "internalType": "bool",
                    "name": "",
                    "type": "bool"
                }
            ],
            "stateMutability": "view",
            "type": "function"
        },
        {
            "inputs": [],
            "name": "preOrder",
            "outputs": [],
            "stateMutability": "payable",
            "type": "function"
        },
        {
            "inputs": [],
            "name": "preOrderCount",
            "outputs": [
                {
                    "internalType": "uint256",
                    "name": "",
                    "type": "uint256"
                }
            ],
            "stateMutability": "view",
            "type": "function"
        },
        {
            "inputs": [
                {
                    "internalType": "address",
                    "name": "",
                    "type": "address"
                }
            ],
            "name": "preOrders",
            "outputs": [
                {
                    "internalType": "uint256",
                    "name": "",
                    "type": "uint256"
                }
            ],
            "stateMutability": "view",
            "type": "function"
        },
        {
            "inputs": [
                {
                    "internalType": "address",
                    "name": "",
                    "type": "address"
                }
            ],
            "name": "preOrdersValue",
            "outputs": [
                {
                    "internalType": "uint256",
                    "name": "",
                    "type": "uint256"
                }
            ],
            "stateMutability": "view",
            "type": "function"
        },
        {
            "inputs": [],
            "name": "presale",
            "outputs": [
                {
                    "internalType": "uint256",
                    "name": "startAt",
                    "type": "uint256"
                },
                {
                    "internalType": "uint256",
                    "name": "endAt",
                    "type": "uint256"
                },
                {
                    "internalType": "uint256",
                    "name": "fee",
                    "type": "uint256"
                },
                {
                    "internalType": "uint256",
                    "name": "maxPerWallet",
                    "type": "uint256"
                },
                {
                    "internalType": "uint256",
                    "name": "softCap",
                    "type": "uint256"
                }
            ],
            "stateMutability": "view",
            "type": "function"
        },
        {
            "inputs": [],
            "name": "presaleHandled",
            "outputs": [
                {
                    "internalType": "bool",
                    "name": "",
                    "type": "bool"
                }
            ],
            "stateMutability": "view",
            "type": "function"
        },
        {
            "inputs": [],
            "name": "presaleProfit",
            "outputs": [
                {
                    "internalType": "uint256",
                    "name": "",
                    "type": "uint256"
                }
            ],
            "stateMutability": "view",
            "type": "function"
        },
        {
            "inputs": [],
            "name": "renounceOwnership",
            "outputs": [],
            "stateMutability": "nonpayable",
            "type": "function"
        },
        {
            "inputs": [
                {
                    "internalType": "address",
                    "name": "from",
                    "type": "address"
                },
                {
                    "internalType": "address",
                    "name": "to",
                    "type": "address"
                },
                {
                    "internalType": "uint256",
                    "name": "tokenId",
                    "type": "uint256"
                }
            ],
            "name": "safeTransferFrom",
            "outputs": [],
            "stateMutability": "nonpayable",
            "type": "function"
        },
        {
            "inputs": [
                {
                    "internalType": "address",
                    "name": "from",
                    "type": "address"
                },
                {
                    "internalType": "address",
                    "name": "to",
                    "type": "address"
                },
                {
                    "internalType": "uint256",
                    "name": "tokenId",
                    "type": "uint256"
                },
                {
                    "internalType": "bytes",
                    "name": "data",
                    "type": "bytes"
                }
            ],
            "name": "safeTransferFrom",
            "outputs": [],
            "stateMutability": "nonpayable",
            "type": "function"
        },
        {
            "inputs": [
                {
                    "internalType": "address",
                    "name": "operator",
                    "type": "address"
                },
                {
                    "internalType": "bool",
                    "name": "approved",
                    "type": "bool"
                }
            ],
            "name": "setApprovalForAll",
            "outputs": [],
            "stateMutability": "nonpayable",
            "type": "function"
        },
        {
            "inputs": [
                {
                    "internalType": "bytes4",
                    "name": "interfaceId",
                    "type": "bytes4"
                }
            ],
            "name": "supportsInterface",
            "outputs": [
                {
                    "internalType": "bool",
                    "name": "",
                    "type": "bool"
                }
            ],
            "stateMutability": "view",
            "type": "function"
        },
        {
            "inputs": [],
            "name": "symbol",
            "outputs": [
                {
                    "internalType": "string",
                    "name": "",
                    "type": "string"
                }
            ],
            "stateMutability": "view",
            "type": "function"
        },
        {
            "inputs": [],
            "name": "togglePause",
            "outputs": [],
            "stateMutability": "nonpayable",
            "type": "function"
        },
        {
            "inputs": [
                {
                    "internalType": "uint256",
                    "name": "index",
                    "type": "uint256"
                }
            ],
            "name": "tokenByIndex",
            "outputs": [
                {
                    "internalType": "uint256",
                    "name": "",
                    "type": "uint256"
                }
            ],
            "stateMutability": "view",
            "type": "function"
        },
        {
            "inputs": [
                {
                    "internalType": "address",
                    "name": "owner",
                    "type": "address"
                },
                {
                    "internalType": "uint256",
                    "name": "index",
                    "type": "uint256"
                }
            ],
            "name": "tokenOfOwnerByIndex",
            "outputs": [
                {
                    "internalType": "uint256",
                    "name": "",
                    "type": "uint256"
                }
            ],
            "stateMutability": "view",
            "type": "function"
        },
        {
            "inputs": [
                {
                    "internalType": "uint256",
                    "name": "tokenId",
                    "type": "uint256"
                }
            ],
            "name": "tokenURI",
            "outputs": [
                {
                    "internalType": "string",
                    "name": "",
                    "type": "string"
                }
            ],
            "stateMutability": "view",
            "type": "function"
        },
        {
            "inputs": [],
            "name": "totalSupply",
            "outputs": [
                {
                    "internalType": "uint256",
                    "name": "",
                    "type": "uint256"
                }
            ],
            "stateMutability": "view",
            "type": "function"
        },
        {
            "inputs": [
                {
                    "internalType": "address",
                    "name": "from",
                    "type": "address"
                },
                {
                    "internalType": "address",
                    "name": "to",
                    "type": "address"
                },
                {
                    "internalType": "uint256",
                    "name": "tokenId",
                    "type": "uint256"
                }
            ],
            "name": "transferFrom",
            "outputs": [],
            "stateMutability": "nonpayable",
            "type": "function"
        },
        {
            "inputs": [
                {
                    "internalType": "address",
                    "name": "newOwner",
                    "type": "address"
                }
            ],
            "name": "transferOwnership",
            "outputs": [],
            "stateMutability": "nonpayable",
            "type": "function"
        },
        {
            "inputs": [],
            "name": "uniquePresaleCollectors",
            "outputs": [
                {
                    "internalType": "uint256",
                    "name": "",
                    "type": "uint256"
                }
            ],
            "stateMutability": "view",
            "type": "function"
        },
        {
            "inputs": [
                {
                    "internalType": "uint256",
                    "name": "",
                    "type": "uint256"
                }
            ],
            "name": "whitelist",
            "outputs": [
                {
                    "internalType": "address",
                    "name": "",
                    "type": "address"
                }
            ],
            "stateMutability": "view",
            "type": "function"
        },
        {
            "inputs": [
                {
                    "internalType": "address[]",
                    "name": "wallets",
                    "type": "address[]"
                }
            ],
            "name": "whitelistWallets",
            "outputs": [],
            "stateMutability": "nonpayable",
            "type": "function"
        },
        {
            "inputs": [],
            "name": "withdraw",
            "outputs": [],
            "stateMutability": "nonpayable",
            "type": "function"
        }
    ],
    "bytecode": "0x608060405273412bb6e1febbfcf428dd0f6a739c30c79128a244601560006101000a81548173ffffffffffffffffffffffffffffffffffffffff021916908373ffffffffffffffffffffffffffffffffffffffff1602179055506040516200600e3803806200600e83398181016040528101906200007e9190620004da565b8989816000908162000091919062000885565b508060019081620000a3919062000885565b505050620000c6620000ba6200023e60201b60201c565b6200024660201b60201c565b600a8114620000d7576000620000da565b60015b60ff16600f81905550600f5482620000f391906200099b565b88101562000138576040517f08c379a00000000000000000000000000000000000000000000000000000000081526004016200012f9062000a37565b60405180910390fd5b8060108190555086600d8190555087600c8190555060006040518060a0016040528088815260200187815260200186815260200185815260200184815250905080601760008201518160000155602082015181600101556040820151816002015560608201518160030155608082015181600401559050508b60169081620001c1919062000885565b50601560009054906101000a900473ffffffffffffffffffffffffffffffffffffffff1673ffffffffffffffffffffffffffffffffffffffff166108fc349081150290604051600060405180830381858888f193505050501580156200022b573d6000803e3d6000fd5b5050505050505050505050505062000a59565b600033905090565b6000600a60009054906101000a900473ffffffffffffffffffffffffffffffffffffffff16905081600a60006101000a81548173ffffffffffffffffffffffffffffffffffffffff021916908373ffffffffffffffffffffffffffffffffffffffff1602179055508173ffffffffffffffffffffffffffffffffffffffff168173ffffffffffffffffffffffffffffffffffffffff167f8be0079c531659141344cd1fd0a4f28419497f9722a3daafe3b4186f6b6457e060405160405180910390a35050565b6000604051905090565b600080fd5b600080fd5b600080fd5b600080fd5b6000601f19601f8301169050919050565b7f4e487b7100000000000000000000000000000000000000000000000000000000600052604160045260246000fd5b62000375826200032a565b810181811067ffffffffffffffff821117156200039757620003966200033b565b5b80604052505050565b6000620003ac6200030c565b9050620003ba82826200036a565b919050565b600067ffffffffffffffff821115620003dd57620003dc6200033b565b5b620003e8826200032a565b9050602081019050919050565b60005b8381101562000415578082015181840152602081019050620003f8565b60008484015250505050565b6000620004386200043284620003bf565b620003a0565b90508281526020810184848401111562000457576200045662000325565b5b62000464848285620003f5565b509392505050565b600082601f83011262000484576200048362000320565b5b81516200049684826020860162000421565b91505092915050565b6000819050919050565b620004b4816200049f565b8114620004c057600080fd5b50565b600081519050620004d481620004a9565b92915050565b60008060008060008060008060008060006101608c8e03121562000503576200050262000316565b5b60008c015167ffffffffffffffff8111156200052457620005236200031b565b5b620005328e828f016200046c565b9b505060208c015167ffffffffffffffff8111156200055657620005556200031b565b5b620005648e828f016200046c565b9a505060408c015167ffffffffffffffff8111156200058857620005876200031b565b5b620005968e828f016200046c565b9950506060620005a98e828f01620004c3565b9850506080620005bc8e828f01620004c3565b97505060a0620005cf8e828f01620004c3565b96505060c0620005e28e828f01620004c3565b95505060e0620005f58e828f01620004c3565b945050610100620006098e828f01620004c3565b9350506101206200061d8e828f01620004c3565b925050610140620006318e828f01620004c3565b9150509295989b509295989b9093969950565b600081519050919050565b7f4e487b7100000000000000000000000000000000000000000000000000000000600052602260045260246000fd5b600060028204905060018216806200069757607f821691505b602082108103620006ad57620006ac6200064f565b5b50919050565b60008190508160005260206000209050919050565b60006020601f8301049050919050565b600082821b905092915050565b600060088302620007177fffffffffffffffffffffffffffffffffffffffffffffffffffffffffffffffff82620006d8565b620007238683620006d8565b95508019841693508086168417925050509392505050565b6000819050919050565b600062000766620007606200075a846200049f565b6200073b565b6200049f565b9050919050565b6000819050919050565b620007828362000745565b6200079a62000791826200076d565b848454620006e5565b825550505050565b600090565b620007b1620007a2565b620007be81848462000777565b505050565b5b81811015620007e657620007da600082620007a7565b600181019050620007c4565b5050565b601f8211156200083557620007ff81620006b3565b6200080a84620006c8565b810160208510156200081a578190505b620008326200082985620006c8565b830182620007c3565b50505b505050565b600082821c905092915050565b60006200085a600019846008026200083a565b1980831691505092915050565b600062000875838362000847565b9150826002028217905092915050565b620008908262000644565b67ffffffffffffffff811115620008ac57620008ab6200033b565b5b620008b882546200067e565b620008c5828285620007ea565b600060209050601f831160018114620008fd5760008415620008e8578287015190505b620008f4858262000867565b86555062000964565b601f1984166200090d86620006b3565b60005b82811015620009375784890151825560018201915060208501945060208101905062000910565b8683101562000957578489015162000953601f89168262000847565b8355505b6001600288020188555050505b505050505050565b7f4e487b7100000000000000000000000000000000000000000000000000000000600052601160045260246000fd5b6000620009a8826200049f565b9150620009b5836200049f565b9250828201905080821115620009d057620009cf6200096c565b5b92915050565b600082825260208201905092915050565b7f696e636f6e73697374656e7420746f6b656e6e6f6d6963730000000000000000600082015250565b600062000a1f601883620009d6565b915062000a2c82620009e7565b602082019050919050565b6000602082019050818103600083015262000a528162000a10565b9050919050565b6155a58062000a696000396000f3fe6080604052600436106102675760003560e01c80636f96344c11610144578063b88d4fde116100b6578063e43305451161007a578063e4330545146108ed578063e985e9c514610904578063f176a99514610941578063f2fde38b1461094b578063fa4ca0c514610974578063fdea8e0b146109b157610267565b8063b88d4fde1461082e578063c4ae316814610857578063c87b56dd1461086e578063d5abeb01146108ab578063db2e21bc146108d657610267565b80638da5cb5b116101085780638da5cb5b1461074257806395d89b411461076d5780639abc8320146107985780639cd205b9146107c3578063a22cb465146107da578063a2dd192b1461080357610267565b80636f96344c146106495780636fca1d0a1461068657806370a08231146106b1578063715018a6146106ee5780637ebd1b301461070557610267565b80632f745c59116101dd5780634e71d92d116101a15780634e71d92d146105375780634f6ccce71461054e5780635c975abb1461058b5780636352211e146105b65780636817c76c146105f357806368b8be641461061e57610267565b80632f745c59146104545780633ccfd60b1461049157806342842e0e146104a857806342966c68146104d1578063446b512e146104fa57610267565b8063095ea7b31161022f578063095ea7b3146103795780631249c58b146103a257806318160ddd146103ac5780631fadbf9b146103d757806323b872dd146104025780632d0a913e1461042b57610267565b806301ffc9a71461026c57806304c4558a146102a957806306fdde03146102d4578063081812fc146102ff578063093376fe1461033c575b600080fd5b34801561027857600080fd5b50610293600480360381019061028e9190613ba1565b6109e0565b6040516102a09190613be9565b60405180910390f35b3480156102b557600080fd5b506102be6109f2565b6040516102cb9190613c1d565b60405180910390f35b3480156102e057600080fd5b506102e96109f8565b6040516102f69190613cc8565b60405180910390f35b34801561030b57600080fd5b5061032660048036038101906103219190613d16565b610a8a565b6040516103339190613d84565b60405180910390f35b34801561034857600080fd5b50610363600480360381019061035e9190613dcb565b610ad0565b6040516103709190613eb6565b60405180910390f35b34801561038557600080fd5b506103a0600480360381019061039b9190613ed8565b610b97565b005b6103aa610cae565b005b3480156103b857600080fd5b506103c1610d5e565b6040516103ce9190613c1d565b60405180910390f35b3480156103e357600080fd5b506103ec610d6b565b6040516103f99190613c1d565b60405180910390f35b34801561040e57600080fd5b5061042960048036038101906104249190613f18565b610d71565b005b34801561043757600080fd5b50610452600480360381019061044d91906140b3565b610dd1565b005b34801561046057600080fd5b5061047b60048036038101906104769190613ed8565b610e57565b6040516104889190613c1d565b60405180910390f35b34801561049d57600080fd5b506104a6610efc565b005b3480156104b457600080fd5b506104cf60048036038101906104ca9190613f18565b611018565b005b3480156104dd57600080fd5b506104f860048036038101906104f39190613d16565b611038565b005b34801561050657600080fd5b50610521600480360381019061051c9190613dcb565b611094565b60405161052e9190613c1d565b60405180910390f35b34801561054357600080fd5b5061054c6110ac565b005b34801561055a57600080fd5b5061057560048036038101906105709190613d16565b61130e565b6040516105829190613c1d565b60405180910390f35b34801561059757600080fd5b506105a061137f565b6040516105ad9190613be9565b60405180910390f35b3480156105c257600080fd5b506105dd60048036038101906105d89190613d16565b611392565b6040516105ea9190613d84565b60405180910390f35b3480156105ff57600080fd5b50610608611443565b6040516106159190613c1d565b60405180910390f35b34801561062a57600080fd5b50610633611449565b6040516106409190613c1d565b60405180910390f35b34801561065557600080fd5b50610670600480360381019061066b9190613dcb565b61144f565b60405161067d9190613c1d565b60405180910390f35b34801561069257600080fd5b5061069b611467565b6040516106a89190613c1d565b60405180910390f35b3480156106bd57600080fd5b506106d860048036038101906106d39190613dcb565b61146d565b6040516106e59190613c1d565b60405180910390f35b3480156106fa57600080fd5b50610703611524565b005b34801561071157600080fd5b5061072c60048036038101906107279190613d16565b611538565b6040516107399190613d84565b60405180910390f35b34801561074e57600080fd5b50610757611577565b6040516107649190613d84565b60405180910390f35b34801561077957600080fd5b506107826115a1565b60405161078f9190613cc8565b60405180910390f35b3480156107a457600080fd5b506107ad611633565b6040516107ba9190613cc8565b60405180910390f35b3480156107cf57600080fd5b506107d86116c1565b005b3480156107e657600080fd5b5061080160048036038101906107fc9190614128565b6118b2565b005b34801561080f57600080fd5b506108186118c8565b6040516108259190613be9565b60405180910390f35b34801561083a57600080fd5b506108556004803603810190610850919061421d565b6118db565b005b34801561086357600080fd5b5061086c61193d565b005b34801561087a57600080fd5b5061089560048036038101906108909190613d16565b611971565b6040516108a29190613cc8565b60405180910390f35b3480156108b757600080fd5b506108c06119d9565b6040516108cd9190613c1d565b60405180910390f35b3480156108e257600080fd5b506108eb6119df565b005b3480156108f957600080fd5b50610902611d95565b005b34801561091057600080fd5b5061092b600480360381019061092691906142a0565b61206c565b6040516109389190613be9565b60405180910390f35b610949612100565b005b34801561095757600080fd5b50610972600480360381019061096d9190613dcb565b612485565b005b34801561098057600080fd5b5061099b60048036038101906109969190613dcb565b612508565b6040516109a89190613c1d565b60405180910390f35b3480156109bd57600080fd5b506109c6612520565b6040516109d79594939291906142e0565b60405180910390f35b60006109eb82612544565b9050919050565b60135481565b606060008054610a0790614362565b80601f0160208091040260200160405190810160405280929190818152602001828054610a3390614362565b8015610a805780601f10610a5557610100808354040283529160200191610a80565b820191906000526020600020905b815481529060010190602001808311610a6357829003601f168201915b5050505050905090565b6000610a95826125be565b6004600083815260200190815260200160002060009054906101000a900473ffffffffffffffffffffffffffffffffffffffff169050919050565b6060601d60008373ffffffffffffffffffffffffffffffffffffffff1673ffffffffffffffffffffffffffffffffffffffff1681526020019081526020016000205481600081518110610b2657610b25614393565b5b602002602001018181525050601e60008373ffffffffffffffffffffffffffffffffffffffff1673ffffffffffffffffffffffffffffffffffffffff1681526020019081526020016000205481600181518110610b8657610b85614393565b5b602002602001018181525050919050565b6000610ba282611392565b90508073ffffffffffffffffffffffffffffffffffffffff168373ffffffffffffffffffffffffffffffffffffffff1603610c12576040517f08c379a0000000000000000000000000000000000000000000000000000000008152600401610c0990614434565b60405180910390fd5b8073ffffffffffffffffffffffffffffffffffffffff16610c31612609565b73ffffffffffffffffffffffffffffffffffffffff161480610c605750610c5f81610c5a612609565b61206c565b5b610c9f576040517f08c379a0000000000000000000000000000000000000000000000000000000008152600401610c96906144c6565b60405180910390fd5b610ca98383612611565b505050565b426017600101541115610cf6576040517f08c379a0000000000000000000000000000000000000000000000000000000008152600401610ced90614532565b60405180910390fd5b600d54341015610d3b576040517f08c379a0000000000000000000000000000000000000000000000000000000008152600401610d329061459e565b60405180910390fd5b610d436126ca565b3460126000828254610d5591906145ed565b92505081905550565b6000600880549050905090565b600e5481565b610d82610d7c612609565b82612792565b610dc1576040517f08c379a0000000000000000000000000000000000000000000000000000000008152600401610db890614693565b60405180910390fd5b610dcc838383612827565b505050565b4260176001015411610e18576040517f08c379a0000000000000000000000000000000000000000000000000000000008152600401610e0f906146ff565b60405180910390fd5b610e20612a8d565b600f54600c54610e30919061471f565b81511115610e3d57600080fd5b80601c9080519060200190610e53929190613a8e565b5050565b6000610e628361146d565b8210610ea3576040517f08c379a0000000000000000000000000000000000000000000000000000000008152600401610e9a906147c5565b60405180910390fd5b600660008473ffffffffffffffffffffffffffffffffffffffff1673ffffffffffffffffffffffffffffffffffffffff168152602001908152602001600020600083815260200190815260200160002054905092915050565b610f04612a8d565b426017600101541115610f4c576040517f08c379a0000000000000000000000000000000000000000000000000000000008152600401610f4390614532565b60405180910390fd5b600a60169054906101000a900460ff16610fc157610f686116c1565b3373ffffffffffffffffffffffffffffffffffffffff166108fc600e5447610f90919061471f565b9081150290604051600060405180830381858888f19350505050158015610fbb573d6000803e3d6000fd5b50611016565b3373ffffffffffffffffffffffffffffffffffffffff166108fc600e5447610fe9919061471f565b9081150290604051600060405180830381858888f19350505050158015611014573d6000803e3d6000fd5b505b565b611033838383604051806020016040528060008152506118db565b505050565b611049611043612609565b82612792565b611088576040517f08c379a000000000000000000000000000000000000000000000000000000000815260040161107f90614693565b60405180910390fd5b61109181612b0b565b50565b601f6020528060005260406000206000915090505481565b4260176001015411156110f4576040517f08c379a00000000000000000000000000000000000000000000000000000000081526004016110eb90614532565b60405180910390fd5b600080600090505b601c805490508160ff16101561119c573373ffffffffffffffffffffffffffffffffffffffff16601c8260ff168154811061113a57611139614393565b5b9060005260206000200160009054906101000a900473ffffffffffffffffffffffffffffffffffffffff1673ffffffffffffffffffffffffffffffffffffffff1603611189576001915061119c565b8080611194906147f2565b9150506110fc565b50806111dd576040517f08c379a00000000000000000000000000000000000000000000000000000000081526004016111d490614867565b60405180910390fd5b600a60159054906101000a900460ff1661122c576040517f08c379a0000000000000000000000000000000000000000000000000000000008152600401611223906148f9565b60405180910390fd5b6000601d60003373ffffffffffffffffffffffffffffffffffffffff1673ffffffffffffffffffffffffffffffffffffffff16815260200190815260200160002054116112ae576040517f08c379a00000000000000000000000000000000000000000000000000000000081526004016112a59061498b565b60405180910390fd5b6112b66126ca565b601d60003373ffffffffffffffffffffffffffffffffffffffff1673ffffffffffffffffffffffffffffffffffffffff1681526020019081526020016000206000815480929190611306906149ab565b919050555050565b6000611318610d5e565b8210611359576040517f08c379a000000000000000000000000000000000000000000000000000000000815260040161135090614a46565b60405180910390fd5b6008828154811061136d5761136c614393565b5b90600052602060002001549050919050565b600a60149054906101000a900460ff1681565b6000806002600084815260200190815260200160002060009054906101000a900473ffffffffffffffffffffffffffffffffffffffff169050600073ffffffffffffffffffffffffffffffffffffffff168173ffffffffffffffffffffffffffffffffffffffff160361143a576040517f08c379a000000000000000000000000000000000000000000000000000000000815260040161143190614ab2565b60405180910390fd5b80915050919050565b600d5481565b60115481565b601d6020528060005260406000206000915090505481565b60145481565b60008073ffffffffffffffffffffffffffffffffffffffff168273ffffffffffffffffffffffffffffffffffffffff16036114dd576040517f08c379a00000000000000000000000000000000000000000000000000000000081526004016114d490614b44565b60405180910390fd5b600360008373ffffffffffffffffffffffffffffffffffffffff1673ffffffffffffffffffffffffffffffffffffffff168152602001908152602001600020549050919050565b61152c612a8d565b6115366000612c28565b565b601c818154811061154857600080fd5b906000526020600020016000915054906101000a900473ffffffffffffffffffffffffffffffffffffffff1681565b6000600a60009054906101000a900473ffffffffffffffffffffffffffffffffffffffff16905090565b6060600180546115b090614362565b80601f01602080910402602001604051908101604052809291908181526020018280546115dc90614362565b80156116295780601f106115fe57610100808354040283529160200191611629565b820191906000526020600020905b81548152906001019060200180831161160c57829003601f168201915b5050505050905090565b6016805461164090614362565b80601f016020809104026020016040519081016040528092919081815260200182805461166c90614362565b80156116b95780601f1061168e576101008083540402835291602001916116b9565b820191906000526020600020905b81548152906001019060200180831161169c57829003601f168201915b505050505081565b426017600001541115611709576040517f08c379a000000000000000000000000000000000000000000000000000000000815260040161170090614bb0565b60405180910390fd5b611711612a8d565b426017600101541115611759576040517f08c379a000000000000000000000000000000000000000000000000000000000815260040161175090614532565b60405180910390fd5b60176004015460115411156118795760006064601054600e5461177c9190614bd0565b6117869190614c41565b9050601560009054906101000a900473ffffffffffffffffffffffffffffffffffffffff1673ffffffffffffffffffffffffffffffffffffffff166108fc829081150290604051600060405180830381858888f193505050501580156117f0573d6000803e3d6000fd5b506000600f54111561183d5761183c601560009054906101000a900473ffffffffffffffffffffffffffffffffffffffff16600b6000815461183190614c72565b919050819055612cee565b5b6001600a60156101000a81548160ff0219169083151502179055506001600a60166101000a81548160ff021916908315150217905550506118b0565b6000600a60156101000a81548160ff0219169083151502179055506001600a60166101000a81548160ff0219169083151502179055505b565b6118c46118bd612609565b8383612d0c565b5050565b600a60169054906101000a900460ff1681565b6118ec6118e6612609565b83612792565b61192b576040517f08c379a000000000000000000000000000000000000000000000000000000000815260040161192290614693565b60405180910390fd5b61193784848484612e78565b50505050565b611945612a8d565b600a60149054906101000a900460ff1615600a60146101000a81548160ff021916908315150217905550565b606061197c826125be565b6000611986612ed4565b905060008151116119a657604051806020016040528060008152506119d1565b806119b084612f66565b6040516020016119c1929190614cf6565b6040516020818303038152906040525b915050919050565b600c5481565b426017600001541115611a27576040517f08c379a0000000000000000000000000000000000000000000000000000000008152600401611a1e90614bb0565b60405180910390fd5b4260176001015411611a6e576040517f08c379a0000000000000000000000000000000000000000000000000000000008152600401611a65906146ff565b60405180910390fd5b600080600090505b601c805490508160ff161015611b16573373ffffffffffffffffffffffffffffffffffffffff16601c8260ff1681548110611ab457611ab3614393565b5b9060005260206000200160009054906101000a900473ffffffffffffffffffffffffffffffffffffffff1673ffffffffffffffffffffffffffffffffffffffff1603611b035760019150611b16565b8080611b0e906147f2565b915050611a76565b5080611b57576040517f08c379a0000000000000000000000000000000000000000000000000000000008152600401611b4e90614867565b60405180910390fd5b6000601d60003373ffffffffffffffffffffffffffffffffffffffff1673ffffffffffffffffffffffffffffffffffffffff1681526020019081526020016000205411611bd9576040517f08c379a0000000000000000000000000000000000000000000000000000000008152600401611bd090614d66565b60405180910390fd5b6000601e60003373ffffffffffffffffffffffffffffffffffffffff1673ffffffffffffffffffffffffffffffffffffffff1681526020019081526020016000205490506000601e60003373ffffffffffffffffffffffffffffffffffffffff1673ffffffffffffffffffffffffffffffffffffffff168152602001908152602001600020819055506000601d60003373ffffffffffffffffffffffffffffffffffffffff1673ffffffffffffffffffffffffffffffffffffffff1681526020019081526020016000208190555060136000815480929190611cba906149ab565b919050555080600e6000828254611cd1919061471f565b9250508190555060116000815480929190611ceb906149ab565b91905055506064600a82611cff9190614bd0565b611d099190614c41565b60146000828254611d1a91906145ed565b9250508190555060006064600a83611d329190614bd0565b611d3c9190614c41565b82611d47919061471f565b90503373ffffffffffffffffffffffffffffffffffffffff166108fc829081150290604051600060405180830381858888f19350505050158015611d8f573d6000803e3d6000fd5b50505050565b426017600101541115611ddd576040517f08c379a0000000000000000000000000000000000000000000000000000000008152600401611dd490614532565b60405180910390fd5b600080600090505b601c805490508160ff161015611e85573373ffffffffffffffffffffffffffffffffffffffff16601c8260ff1681548110611e2357611e22614393565b5b9060005260206000200160009054906101000a900473ffffffffffffffffffffffffffffffffffffffff1673ffffffffffffffffffffffffffffffffffffffff1603611e725760019150611e85565b8080611e7d906147f2565b915050611de5565b5080611ec6576040517f08c379a0000000000000000000000000000000000000000000000000000000008152600401611ebd90614867565b60405180910390fd5b600a60159054906101000a900460ff1615611f16576040517f08c379a0000000000000000000000000000000000000000000000000000000008152600401611f0d90614df8565b60405180910390fd5b6000601e60003373ffffffffffffffffffffffffffffffffffffffff1673ffffffffffffffffffffffffffffffffffffffff1681526020019081526020016000205411611f98576040517f08c379a0000000000000000000000000000000000000000000000000000000008152600401611f8f90614e64565b60405180910390fd5b6000601e60003373ffffffffffffffffffffffffffffffffffffffff1673ffffffffffffffffffffffffffffffffffffffff1681526020019081526020016000205490506000601e60003373ffffffffffffffffffffffffffffffffffffffff1673ffffffffffffffffffffffffffffffffffffffff168152602001908152602001600020819055503373ffffffffffffffffffffffffffffffffffffffff166108fc829081150290604051600060405180830381858888f19350505050158015612067573d6000803e3d6000fd5b505050565b6000600560008473ffffffffffffffffffffffffffffffffffffffff1673ffffffffffffffffffffffffffffffffffffffff16815260200190815260200160002060008373ffffffffffffffffffffffffffffffffffffffff1673ffffffffffffffffffffffffffffffffffffffff16815260200190815260200160002060009054906101000a900460ff16905092915050565b426017600001541115612148576040517f08c379a000000000000000000000000000000000000000000000000000000000815260040161213f90614bb0565b60405180910390fd5b426017600101541161218f576040517f08c379a0000000000000000000000000000000000000000000000000000000008152600401612186906146ff565b60405180910390fd5b600080600090505b601c805490508160ff161015612237573373ffffffffffffffffffffffffffffffffffffffff16601c8260ff16815481106121d5576121d4614393565b5b9060005260206000200160009054906101000a900473ffffffffffffffffffffffffffffffffffffffff1673ffffffffffffffffffffffffffffffffffffffff16036122245760019150612237565b808061222f906147f2565b915050612197565b5080612278576040517f08c379a000000000000000000000000000000000000000000000000000000000815260040161226f90614867565b60405180910390fd5b6017600201543410156122c0576040517f08c379a00000000000000000000000000000000000000000000000000000000081526004016122b790614ed0565b60405180910390fd5b601760030154601d60003373ffffffffffffffffffffffffffffffffffffffff1673ffffffffffffffffffffffffffffffffffffffff1681526020019081526020016000205410612346576040517f08c379a000000000000000000000000000000000000000000000000000000000815260040161233d90614f3c565b60405180910390fd5b6000601d60003373ffffffffffffffffffffffffffffffffffffffff1673ffffffffffffffffffffffffffffffffffffffff16815260200190815260200160002054036123a657601360008154809291906123a090614c72565b91905055505b601d60003373ffffffffffffffffffffffffffffffffffffffff1673ffffffffffffffffffffffffffffffffffffffff16815260200190815260200160002060008154809291906123f690614c72565b919050555034601e60003373ffffffffffffffffffffffffffffffffffffffff1673ffffffffffffffffffffffffffffffffffffffff168152602001908152602001600020600082825461244a91906145ed565b9250508190555034600e600082825461246391906145ed565b925050819055506011600081548092919061247d90614c72565b919050555050565b61248d612a8d565b600073ffffffffffffffffffffffffffffffffffffffff168173ffffffffffffffffffffffffffffffffffffffff16036124fc576040517f08c379a00000000000000000000000000000000000000000000000000000000081526004016124f390614fce565b60405180910390fd5b61250581612c28565b50565b601e6020528060005260406000206000915090505481565b60178060000154908060010154908060020154908060030154908060040154905085565b60007f780e9d63000000000000000000000000000000000000000000000000000000007bffffffffffffffffffffffffffffffffffffffffffffffffffffffff1916827bffffffffffffffffffffffffffffffffffffffffffffffffffffffff191614806125b757506125b6826130c6565b5b9050919050565b6125c7816131a8565b612606576040517f08c379a00000000000000000000000000000000000000000000000000000000081526004016125fd90614ab2565b60405180910390fd5b50565b600033905090565b816004600083815260200190815260200160002060006101000a81548173ffffffffffffffffffffffffffffffffffffffff021916908373ffffffffffffffffffffffffffffffffffffffff160217905550808273ffffffffffffffffffffffffffffffffffffffff1661268483611392565b73ffffffffffffffffffffffffffffffffffffffff167f8c5be1e5ebec7d5bd14f71427d1e84f3dd0314c0f7b2291e5b200ac8c7c3b92560405160405180910390a45050565b600a60149054906101000a900460ff161561271a576040517f08c379a00000000000000000000000000000000000000000000000000000000081526004016127119061503a565b60405180910390fd5b600c54600f54612728610d5e565b61273291906145ed565b10612772576040517f08c379a0000000000000000000000000000000000000000000000000000000008152600401612769906150a6565b60405180910390fd5b61279033600b6000815461278590614c72565b919050819055612cee565b565b60008061279e83611392565b90508073ffffffffffffffffffffffffffffffffffffffff168473ffffffffffffffffffffffffffffffffffffffff1614806127e057506127df818561206c565b5b8061281e57508373ffffffffffffffffffffffffffffffffffffffff1661280684610a8a565b73ffffffffffffffffffffffffffffffffffffffff16145b91505092915050565b8273ffffffffffffffffffffffffffffffffffffffff1661284782611392565b73ffffffffffffffffffffffffffffffffffffffff161461289d576040517f08c379a000000000000000000000000000000000000000000000000000000000815260040161289490615138565b60405180910390fd5b600073ffffffffffffffffffffffffffffffffffffffff168273ffffffffffffffffffffffffffffffffffffffff160361290c576040517f08c379a0000000000000000000000000000000000000000000000000000000008152600401612903906151ca565b60405180910390fd5b612917838383613214565b612922600082612611565b6001600360008573ffffffffffffffffffffffffffffffffffffffff1673ffffffffffffffffffffffffffffffffffffffff1681526020019081526020016000206000828254612972919061471f565b925050819055506001600360008473ffffffffffffffffffffffffffffffffffffffff1673ffffffffffffffffffffffffffffffffffffffff16815260200190815260200160002060008282546129c991906145ed565b92505081905550816002600083815260200190815260200160002060006101000a81548173ffffffffffffffffffffffffffffffffffffffff021916908373ffffffffffffffffffffffffffffffffffffffff160217905550808273ffffffffffffffffffffffffffffffffffffffff168473ffffffffffffffffffffffffffffffffffffffff167fddf252ad1be2c89b69c2b068fc378daa952ba7f163c4a11628f55a4df523b3ef60405160405180910390a4612a88838383613224565b505050565b612a95612609565b73ffffffffffffffffffffffffffffffffffffffff16612ab3611577565b73ffffffffffffffffffffffffffffffffffffffff1614612b09576040517f08c379a0000000000000000000000000000000000000000000000000000000008152600401612b0090615236565b60405180910390fd5b565b6000612b1682611392565b9050612b2481600084613214565b612b2f600083612611565b6001600360008373ffffffffffffffffffffffffffffffffffffffff1673ffffffffffffffffffffffffffffffffffffffff1681526020019081526020016000206000828254612b7f919061471f565b925050819055506002600083815260200190815260200160002060006101000a81549073ffffffffffffffffffffffffffffffffffffffff021916905581600073ffffffffffffffffffffffffffffffffffffffff168273ffffffffffffffffffffffffffffffffffffffff167fddf252ad1be2c89b69c2b068fc378daa952ba7f163c4a11628f55a4df523b3ef60405160405180910390a4612c2481600084613224565b5050565b6000600a60009054906101000a900473ffffffffffffffffffffffffffffffffffffffff16905081600a60006101000a81548173ffffffffffffffffffffffffffffffffffffffff021916908373ffffffffffffffffffffffffffffffffffffffff1602179055508173ffffffffffffffffffffffffffffffffffffffff168173ffffffffffffffffffffffffffffffffffffffff167f8be0079c531659141344cd1fd0a4f28419497f9722a3daafe3b4186f6b6457e060405160405180910390a35050565b612d08828260405180602001604052806000815250613229565b5050565b8173ffffffffffffffffffffffffffffffffffffffff168373ffffffffffffffffffffffffffffffffffffffff1603612d7a576040517f08c379a0000000000000000000000000000000000000000000000000000000008152600401612d71906152a2565b60405180910390fd5b80600560008573ffffffffffffffffffffffffffffffffffffffff1673ffffffffffffffffffffffffffffffffffffffff16815260200190815260200160002060008473ffffffffffffffffffffffffffffffffffffffff1673ffffffffffffffffffffffffffffffffffffffff16815260200190815260200160002060006101000a81548160ff0219169083151502179055508173ffffffffffffffffffffffffffffffffffffffff168373ffffffffffffffffffffffffffffffffffffffff167f17307eab39ab6107e8899845ad3d59bd9653f200f220920489ca2b5937696c3183604051612e6b9190613be9565b60405180910390a3505050565b612e83848484612827565b612e8f84848484613284565b612ece576040517f08c379a0000000000000000000000000000000000000000000000000000000008152600401612ec590615334565b60405180910390fd5b50505050565b606060168054612ee390614362565b80601f0160208091040260200160405190810160405280929190818152602001828054612f0f90614362565b8015612f5c5780601f10612f3157610100808354040283529160200191612f5c565b820191906000526020600020905b815481529060010190602001808311612f3f57829003601f168201915b5050505050905090565b606060008203612fad576040518060400160405280600181526020017f300000000000000000000000000000000000000000000000000000000000000081525090506130c1565b600082905060005b60008214612fdf578080612fc890614c72565b915050600a82612fd89190614c41565b9150612fb5565b60008167ffffffffffffffff811115612ffb57612ffa613f70565b5b6040519080825280601f01601f19166020018201604052801561302d5781602001600182028036833780820191505090505b5090505b600085146130ba57600182613046919061471f565b9150600a856130559190615354565b603061306191906145ed565b60f81b81838151811061307757613076614393565b5b60200101907effffffffffffffffffffffffffffffffffffffffffffffffffffffffffffff1916908160001a905350600a856130b39190614c41565b9450613031565b8093505050505b919050565b60007f80ac58cd000000000000000000000000000000000000000000000000000000007bffffffffffffffffffffffffffffffffffffffffffffffffffffffff1916827bffffffffffffffffffffffffffffffffffffffffffffffffffffffff1916148061319157507f5b5e139f000000000000000000000000000000000000000000000000000000007bffffffffffffffffffffffffffffffffffffffffffffffffffffffff1916827bffffffffffffffffffffffffffffffffffffffffffffffffffffffff1916145b806131a157506131a08261340b565b5b9050919050565b60008073ffffffffffffffffffffffffffffffffffffffff166002600084815260200190815260200160002060009054906101000a900473ffffffffffffffffffffffffffffffffffffffff1673ffffffffffffffffffffffffffffffffffffffff1614159050919050565b61321f838383613475565b505050565b505050565b6132338383613587565b6132406000848484613284565b61327f576040517f08c379a000000000000000000000000000000000000000000000000000000000815260040161327690615334565b60405180910390fd5b505050565b60006132a58473ffffffffffffffffffffffffffffffffffffffff16613760565b156133fe578373ffffffffffffffffffffffffffffffffffffffff1663150b7a026132ce612609565b8786866040518563ffffffff1660e01b81526004016132f094939291906153da565b6020604051808303816000875af192505050801561332c57506040513d601f19601f82011682018060405250810190613329919061543b565b60015b6133ae573d806000811461335c576040519150601f19603f3d011682016040523d82523d6000602084013e613361565b606091505b5060008151036133a6576040517f08c379a000000000000000000000000000000000000000000000000000000000815260040161339d90615334565b60405180910390fd5b805181602001fd5b63150b7a0260e01b7bffffffffffffffffffffffffffffffffffffffffffffffffffffffff1916817bffffffffffffffffffffffffffffffffffffffffffffffffffffffff191614915050613403565b600190505b949350505050565b60007f01ffc9a7000000000000000000000000000000000000000000000000000000007bffffffffffffffffffffffffffffffffffffffffffffffffffffffff1916827bffffffffffffffffffffffffffffffffffffffffffffffffffffffff1916149050919050565b613480838383613783565b600073ffffffffffffffffffffffffffffffffffffffff168373ffffffffffffffffffffffffffffffffffffffff16036134c2576134bd81613788565b613501565b8173ffffffffffffffffffffffffffffffffffffffff168373ffffffffffffffffffffffffffffffffffffffff1614613500576134ff83826137d1565b5b5b600073ffffffffffffffffffffffffffffffffffffffff168273ffffffffffffffffffffffffffffffffffffffff16036135435761353e8161393e565b613582565b8273ffffffffffffffffffffffffffffffffffffffff168273ffffffffffffffffffffffffffffffffffffffff1614613581576135808282613a0f565b5b5b505050565b600073ffffffffffffffffffffffffffffffffffffffff168273ffffffffffffffffffffffffffffffffffffffff16036135f6576040517f08c379a00000000000000000000000000000000000000000000000000000000081526004016135ed906154b4565b60405180910390fd5b6135ff816131a8565b1561363f576040517f08c379a000000000000000000000000000000000000000000000000000000000815260040161363690615520565b60405180910390fd5b61364b60008383613214565b6001600360008473ffffffffffffffffffffffffffffffffffffffff1673ffffffffffffffffffffffffffffffffffffffff168152602001908152602001600020600082825461369b91906145ed565b92505081905550816002600083815260200190815260200160002060006101000a81548173ffffffffffffffffffffffffffffffffffffffff021916908373ffffffffffffffffffffffffffffffffffffffff160217905550808273ffffffffffffffffffffffffffffffffffffffff16600073ffffffffffffffffffffffffffffffffffffffff167fddf252ad1be2c89b69c2b068fc378daa952ba7f163c4a11628f55a4df523b3ef60405160405180910390a461375c60008383613224565b5050565b6000808273ffffffffffffffffffffffffffffffffffffffff163b119050919050565b505050565b6008805490506009600083815260200190815260200160002081905550600881908060018154018082558091505060019003906000526020600020016000909190919091505550565b600060016137de8461146d565b6137e8919061471f565b90506000600760008481526020019081526020016000205490508181146138cd576000600660008673ffffffffffffffffffffffffffffffffffffffff1673ffffffffffffffffffffffffffffffffffffffff168152602001908152602001600020600084815260200190815260200160002054905080600660008773ffffffffffffffffffffffffffffffffffffffff1673ffffffffffffffffffffffffffffffffffffffff168152602001908152602001600020600084815260200190815260200160002081905550816007600083815260200190815260200160002081905550505b6007600084815260200190815260200160002060009055600660008573ffffffffffffffffffffffffffffffffffffffff1673ffffffffffffffffffffffffffffffffffffffff16815260200190815260200160002060008381526020019081526020016000206000905550505050565b60006001600880549050613952919061471f565b905060006009600084815260200190815260200160002054905060006008838154811061398257613981614393565b5b9060005260206000200154905080600883815481106139a4576139a3614393565b5b9060005260206000200181905550816009600083815260200190815260200160002081905550600960008581526020019081526020016000206000905560088054806139f3576139f2615540565b5b6001900381819060005260206000200160009055905550505050565b6000613a1a8361146d565b905081600660008573ffffffffffffffffffffffffffffffffffffffff1673ffffffffffffffffffffffffffffffffffffffff168152602001908152602001600020600083815260200190815260200160002081905550806007600084815260200190815260200160002081905550505050565b828054828255906000526020600020908101928215613b07579160200282015b82811115613b065782518260006101000a81548173ffffffffffffffffffffffffffffffffffffffff021916908373ffffffffffffffffffffffffffffffffffffffff16021790555091602001919060010190613aae565b5b509050613b149190613b18565b5090565b5b80821115613b31576000816000905550600101613b19565b5090565b6000604051905090565b600080fd5b600080fd5b60007fffffffff0000000000000000000000000000000000000000000000000000000082169050919050565b613b7e81613b49565b8114613b8957600080fd5b50565b600081359050613b9b81613b75565b92915050565b600060208284031215613bb757613bb6613b3f565b5b6000613bc584828501613b8c565b91505092915050565b60008115159050919050565b613be381613bce565b82525050565b6000602082019050613bfe6000830184613bda565b92915050565b6000819050919050565b613c1781613c04565b82525050565b6000602082019050613c326000830184613c0e565b92915050565b600081519050919050565b600082825260208201905092915050565b60005b83811015613c72578082015181840152602081019050613c57565b60008484015250505050565b6000601f19601f8301169050919050565b6000613c9a82613c38565b613ca48185613c43565b9350613cb4818560208601613c54565b613cbd81613c7e565b840191505092915050565b60006020820190508181036000830152613ce28184613c8f565b905092915050565b613cf381613c04565b8114613cfe57600080fd5b50565b600081359050613d1081613cea565b92915050565b600060208284031215613d2c57613d2b613b3f565b5b6000613d3a84828501613d01565b91505092915050565b600073ffffffffffffffffffffffffffffffffffffffff82169050919050565b6000613d6e82613d43565b9050919050565b613d7e81613d63565b82525050565b6000602082019050613d996000830184613d75565b92915050565b613da881613d63565b8114613db357600080fd5b50565b600081359050613dc581613d9f565b92915050565b600060208284031215613de157613de0613b3f565b5b6000613def84828501613db6565b91505092915050565b600081519050919050565b600082825260208201905092915050565b6000819050602082019050919050565b613e2d81613c04565b82525050565b6000613e3f8383613e24565b60208301905092915050565b6000602082019050919050565b6000613e6382613df8565b613e6d8185613e03565b9350613e7883613e14565b8060005b83811015613ea9578151613e908882613e33565b9750613e9b83613e4b565b925050600181019050613e7c565b5085935050505092915050565b60006020820190508181036000830152613ed08184613e58565b905092915050565b60008060408385031215613eef57613eee613b3f565b5b6000613efd85828601613db6565b9250506020613f0e85828601613d01565b9150509250929050565b600080600060608486031215613f3157613f30613b3f565b5b6000613f3f86828701613db6565b9350506020613f5086828701613db6565b9250506040613f6186828701613d01565b9150509250925092565b600080fd5b7f4e487b7100000000000000000000000000000000000000000000000000000000600052604160045260246000fd5b613fa882613c7e565b810181811067ffffffffffffffff82111715613fc757613fc6613f70565b5b80604052505050565b6000613fda613b35565b9050613fe68282613f9f565b919050565b600067ffffffffffffffff82111561400657614005613f70565b5b602082029050602081019050919050565b600080fd5b600061402f61402a84613feb565b613fd0565b9050808382526020820190506020840283018581111561405257614051614017565b5b835b8181101561407b57806140678882613db6565b845260208401935050602081019050614054565b5050509392505050565b600082601f83011261409a57614099613f6b565b5b81356140aa84826020860161401c565b91505092915050565b6000602082840312156140c9576140c8613b3f565b5b600082013567ffffffffffffffff8111156140e7576140e6613b44565b5b6140f384828501614085565b91505092915050565b61410581613bce565b811461411057600080fd5b50565b600081359050614122816140fc565b92915050565b6000806040838503121561413f5761413e613b3f565b5b600061414d85828601613db6565b925050602061415e85828601614113565b9150509250929050565b600080fd5b600067ffffffffffffffff82111561418857614187613f70565b5b61419182613c7e565b9050602081019050919050565b82818337600083830152505050565b60006141c06141bb8461416d565b613fd0565b9050828152602081018484840111156141dc576141db614168565b5b6141e784828561419e565b509392505050565b600082601f83011261420457614203613f6b565b5b81356142148482602086016141ad565b91505092915050565b6000806000806080858703121561423757614236613b3f565b5b600061424587828801613db6565b945050602061425687828801613db6565b935050604061426787828801613d01565b925050606085013567ffffffffffffffff81111561428857614287613b44565b5b614294878288016141ef565b91505092959194509250565b600080604083850312156142b7576142b6613b3f565b5b60006142c585828601613db6565b92505060206142d685828601613db6565b9150509250929050565b600060a0820190506142f56000830188613c0e565b6143026020830187613c0e565b61430f6040830186613c0e565b61431c6060830185613c0e565b6143296080830184613c0e565b9695505050505050565b7f4e487b7100000000000000000000000000000000000000000000000000000000600052602260045260246000fd5b6000600282049050600182168061437a57607f821691505b60208210810361438d5761438c614333565b5b50919050565b7f4e487b7100000000000000000000000000000000000000000000000000000000600052603260045260246000fd5b7f4552433732313a20617070726f76616c20746f2063757272656e74206f776e6560008201527f7200000000000000000000000000000000000000000000000000000000000000602082015250565b600061441e602183613c43565b9150614429826143c2565b604082019050919050565b6000602082019050818103600083015261444d81614411565b9050919050565b7f4552433732313a20617070726f76652063616c6c6572206973206e6f7420746f60008201527f6b656e206f776e6572206e6f7220617070726f76656420666f7220616c6c0000602082015250565b60006144b0603e83613c43565b91506144bb82614454565b604082019050919050565b600060208201905081810360008301526144df816144a3565b9050919050565b7f70726573616c65206973207374696c6c206f6e00000000000000000000000000600082015250565b600061451c601383613c43565b9150614527826144e6565b602082019050919050565b6000602082019050818103600083015261454b8161450f565b9050919050565b7f6d696e742066656520697320696e636f72726563740000000000000000000000600082015250565b6000614588601583613c43565b915061459382614552565b602082019050919050565b600060208201905081810360008301526145b78161457b565b9050919050565b7f4e487b7100000000000000000000000000000000000000000000000000000000600052601160045260246000fd5b60006145f882613c04565b915061460383613c04565b925082820190508082111561461b5761461a6145be565b5b92915050565b7f4552433732313a2063616c6c6572206973206e6f7420746f6b656e206f776e6560008201527f72206e6f7220617070726f766564000000000000000000000000000000000000602082015250565b600061467d602e83613c43565b915061468882614621565b604082019050919050565b600060208201905081810360008301526146ac81614670565b9050919050565b7f70726573616c6520686173206578706972656400000000000000000000000000600082015250565b60006146e9601383613c43565b91506146f4826146b3565b602082019050919050565b60006020820190508181036000830152614718816146dc565b9050919050565b600061472a82613c04565b915061473583613c04565b925082820390508181111561474d5761474c6145be565b5b92915050565b7f455243373231456e756d657261626c653a206f776e657220696e646578206f7560008201527f74206f6620626f756e6473000000000000000000000000000000000000000000602082015250565b60006147af602b83613c43565b91506147ba82614753565b604082019050919050565b600060208201905081810360008301526147de816147a2565b9050919050565b600060ff82169050919050565b60006147fd826147e5565b915060ff82036148105761480f6145be565b5b600182019050919050565b7f6e6f74206f6e207468652077686974656c697374000000000000000000000000600082015250565b6000614851601483613c43565b915061485c8261481b565b602082019050919050565b6000602082019050818103600083015261488081614844565b9050919050565b7f70726573616c6520776173206e6f74207375636365737366756c2c2063616c6c60008201527f2064756d70000000000000000000000000000000000000000000000000000000602082015250565b60006148e3602583613c43565b91506148ee82614887565b604082019050919050565b60006020820190508181036000830152614912816148d6565b9050919050565b7f596f75206861766520636c61696d656420616c6c2070726573616c6520746f6b60008201527f656e730000000000000000000000000000000000000000000000000000000000602082015250565b6000614975602383613c43565b915061498082614919565b604082019050919050565b600060208201905081810360008301526149a481614968565b9050919050565b60006149b682613c04565b9150600082036149c9576149c86145be565b5b600182039050919050565b7f455243373231456e756d657261626c653a20676c6f62616c20696e646578206f60008201527f7574206f6620626f756e64730000000000000000000000000000000000000000602082015250565b6000614a30602c83613c43565b9150614a3b826149d4565b604082019050919050565b60006020820190508181036000830152614a5f81614a23565b9050919050565b7f4552433732313a20696e76616c696420746f6b656e2049440000000000000000600082015250565b6000614a9c601883613c43565b9150614aa782614a66565b602082019050919050565b60006020820190508181036000830152614acb81614a8f565b9050919050565b7f4552433732313a2061646472657373207a65726f206973206e6f74206120766160008201527f6c6964206f776e65720000000000000000000000000000000000000000000000602082015250565b6000614b2e602983613c43565b9150614b3982614ad2565b604082019050919050565b60006020820190508181036000830152614b5d81614b21565b9050919050565b7f70726573616c6520686173206e6f742073746172746564000000000000000000600082015250565b6000614b9a601783613c43565b9150614ba582614b64565b602082019050919050565b60006020820190508181036000830152614bc981614b8d565b9050919050565b6000614bdb82613c04565b9150614be683613c04565b9250828202614bf481613c04565b91508282048414831517614c0b57614c0a6145be565b5b5092915050565b7f4e487b7100000000000000000000000000000000000000000000000000000000600052601260045260246000fd5b6000614c4c82613c04565b9150614c5783613c04565b925082614c6757614c66614c12565b5b828204905092915050565b6000614c7d82613c04565b91507fffffffffffffffffffffffffffffffffffffffffffffffffffffffffffffffff8203614caf57614cae6145be565b5b600182019050919050565b600081905092915050565b6000614cd082613c38565b614cda8185614cba565b9350614cea818560208601613c54565b80840191505092915050565b6000614d028285614cc5565b9150614d0e8284614cc5565b91508190509392505050565b7f6e6f7468696e6720746f20776974686472617700000000000000000000000000600082015250565b6000614d50601383613c43565b9150614d5b82614d1a565b602082019050919050565b60006020820190508181036000830152614d7f81614d43565b9050919050565b7f70726573616c65207375636365656465642c20636c61696d20796f757220746f60008201527f6b656e2873290000000000000000000000000000000000000000000000000000602082015250565b6000614de2602683613c43565b9150614ded82614d86565b604082019050919050565b60006020820190508181036000830152614e1181614dd5565b9050919050565b7f796f752068617665206e6f207072656f72646572000000000000000000000000600082015250565b6000614e4e601483613c43565b9150614e5982614e18565b602082019050919050565b60006020820190508181036000830152614e7d81614e41565b9050919050565b7f70726573616c652066656520697320696e636f72726563740000000000000000600082015250565b6000614eba601883613c43565b9150614ec582614e84565b602082019050919050565b60006020820190508181036000830152614ee981614ead565b9050919050565b7f796f752068617665207265616368656420746865207072654f726465724d6178600082015250565b6000614f26602083613c43565b9150614f3182614ef0565b602082019050919050565b60006020820190508181036000830152614f5581614f19565b9050919050565b7f4f776e61626c653a206e6577206f776e657220697320746865207a65726f206160008201527f6464726573730000000000000000000000000000000000000000000000000000602082015250565b6000614fb8602683613c43565b9150614fc382614f5c565b604082019050919050565b60006020820190508181036000830152614fe781614fab565b9050919050565b7f6d696e74696e6720697320706175736564000000000000000000000000000000600082015250565b6000615024601183613c43565b915061502f82614fee565b602082019050919050565b6000602082019050818103600083015261505381615017565b9050919050565b7f6d617820737570706c7920726561636865640000000000000000000000000000600082015250565b6000615090601283613c43565b915061509b8261505a565b602082019050919050565b600060208201905081810360008301526150bf81615083565b9050919050565b7f4552433732313a207472616e736665722066726f6d20696e636f72726563742060008201527f6f776e6572000000000000000000000000000000000000000000000000000000602082015250565b6000615122602583613c43565b915061512d826150c6565b604082019050919050565b6000602082019050818103600083015261515181615115565b9050919050565b7f4552433732313a207472616e7366657220746f20746865207a65726f2061646460008201527f7265737300000000000000000000000000000000000000000000000000000000602082015250565b60006151b4602483613c43565b91506151bf82615158565b604082019050919050565b600060208201905081810360008301526151e3816151a7565b9050919050565b7f4f776e61626c653a2063616c6c6572206973206e6f7420746865206f776e6572600082015250565b6000615220602083613c43565b915061522b826151ea565b602082019050919050565b6000602082019050818103600083015261524f81615213565b9050919050565b7f4552433732313a20617070726f766520746f2063616c6c657200000000000000600082015250565b600061528c601983613c43565b915061529782615256565b602082019050919050565b600060208201905081810360008301526152bb8161527f565b9050919050565b7f4552433732313a207472616e7366657220746f206e6f6e20455243373231526560008201527f63656976657220696d706c656d656e7465720000000000000000000000000000602082015250565b600061531e603283613c43565b9150615329826152c2565b604082019050919050565b6000602082019050818103600083015261534d81615311565b9050919050565b600061535f82613c04565b915061536a83613c04565b92508261537a57615379614c12565b5b828206905092915050565b600081519050919050565b600082825260208201905092915050565b60006153ac82615385565b6153b68185615390565b93506153c6818560208601613c54565b6153cf81613c7e565b840191505092915050565b60006080820190506153ef6000830187613d75565b6153fc6020830186613d75565b6154096040830185613c0e565b818103606083015261541b81846153a1565b905095945050505050565b60008151905061543581613b75565b92915050565b60006020828403121561545157615450613b3f565b5b600061545f84828501615426565b91505092915050565b7f4552433732313a206d696e7420746f20746865207a65726f2061646472657373600082015250565b600061549e602083613c43565b91506154a982615468565b602082019050919050565b600060208201905081810360008301526154cd81615491565b9050919050565b7f4552433732313a20746f6b656e20616c7265616479206d696e74656400000000600082015250565b600061550a601c83613c43565b9150615515826154d4565b602082019050919050565b60006020820190508181036000830152615539816154fd565b9050919050565b7f4e487b7100000000000000000000000000000000000000000000000000000000600052603160045260246000fdfea2646970667358221220aefb100e194e0c734674295f06ef673880f054d523506a878e2f8eb47b673e9d64736f6c63430008110033",
    "linkReferences": {},
    "deployedLinkReferences": {}
}